:020000040800F2
:1000000018570020010300085B340008852E000803
:1000100059340008010E0008D53C0008000000001B
:100020000000000000000000000000004102000885
:10003000D90E0008000000009D02000839360008B3
:100040001B0300081B0300081B0300081B03000818
:100050001B0300081B0300081B0300081B03000808
:100060001B0300081B0300081B0300081B030008F8
:100070001B0300081B0300081B0300081B030008E8
:100080001B0300081B0300081B0300081B030008D8
:100090001B0300081B0300081B0300081B030008C8
:1000A0001B030008F93600081B0300081B030008A7
:1000B0001B0300081B0300081B0300081B030008A8
:1000C0001B0300081B0300081B0300081B03000898
:1000D0001B030008B13C0008BD3C00081B030008DE
:1000E0001B0300081B0300081B0300081B03000878
:1000F0001B0300081B0300081B0300081B03000868
:100100001B0300081B0300081B0300081B03000857
:100110001B0300084D3800081B03000805370008C2
:100120001B030008050E0008110E00081B03000841
:100130001B0300081B0300081B0300081B03000827
:100140001B0300081B0300081B0300081B03000817
:100150001B0300081D0E0008290E0008C93C0008FA
:100160001B0300081B0300081B0300081B030008F7
:100170001B0300081B0300081B030008000000000D
:100180001B0300081B03000800F002F800F048F809
:100190000AA090E8000C82448344AAF10107DA45E2
:1001A00001D100F03DF8AFF2090EBAE80F0013F0EC
:1001B000010F18BFFB1A43F001031847DC5B000076
:1001C000FC5B0000103A24BF78C878C1FAD8520707
:1001D00024BF30C830C144BF04680C6070470000C1
:1001E0000023002400250026103A28BF78C1FBD840
:1001F000520728BF30C148BF0B607047642900F028
:100200007981782900F0B281002070471FB505F090
:1002100099FC9DE8030000F037FB1FBD10B510BD31
:1002200000F038FC1146FFF7F1FF03F08FFD00F0FE
:1002300056FC03B4FFF7F2FF03BC00F087FC00009C
:100240002C4B19680868B0E8F04F80F30988BFF3B9
:100250006F8F4FF0000080F311887047000000009E
:1002600008480068006880F308884FF0000080F3B9
:10027000148862B661B6BFF34F8FBFF36F8F00DF94
:1002800000BF00BF08ED00E0DFF80C00016841F49A
:1002900070010160704700BF88ED00E0EFF3098056
:1002A000BFF36F8F134B1A681EF0100F08BF20EDBD
:1002B000108A20E9F04F106009B44FF0500080F32D
:1002C0001188BFF34F8FBFF36F8F04F069FD4FF0BC
:1002D000000080F3118809BC19680868B0E8F04F85
:1002E0001EF0100F08BFB0EC108A80F30988BFF32E
:1002F0006F8F704788000020EFF305807047000083
:100300000948804709480047FEE7FEE7FEE7FEE7A9
:10031000FEE7FEE7FEE7FEE7FEE7FEE704480549E5
:10032000054A064B70470000E936000889010008BD
:10033000185100201857002018530020185300208F
:1003400070B5064600F084FA056806F10B0020F04F
:100350000704B4429CBF002070BD2B466A68BAB146
:100360001068A04210D304F1080188423CBF5068D5
:10037000586007D35168101941601168091B01606A
:1003800058601460101D70BD13465268002AE7D1F2
:100390002146284600F064FA0028DED170BD70B511
:1003A0000446051F00F054FA0068002C14BF44688E
:1003B00070BD002C18BFAC423CBF20466468F8D327
:1003C00001680A18AA4218BF456003D12A68054689
:1003D0001144016028684119A1421CBF6C6070BDC6
:1003E0006168696021680844286070BD53EA020CA6
:1003F00000F069802DE9F04B4FF00006002B1FBF85
:10040000B3FA83F503FA05F424FA05F65E4012BF49
:100410001643B2FA82F502FA05F4C5F120051EBFB3
:1004200022FA05FC44EA0C04203556EA044C4FEA53
:10043000144418BF641C4FF000084FF000099042AC
:1004400071EB030C39D3002919BFB1FA81F701FA16
:1004500007F6B0FA80F700FA07F6C7F120071EBFCB
:1004600020FA07FC46EA0C062037B6FBF4FCA7EBA3
:100470000507103F07F01F0BCBF120060CFA0BFB12
:100480002CFA06F644BFB3460026202FA4BF5E46D2
:100490004FF0000B5BEA060C08BF4FF0010B19EBA5
:1004A0000B09ABFB027C48EB0608C01B06FB02CC29
:1004B0000BFB03CC71EB0C01C1E70B460246414636
:1004C0004846BDE8F08B13B54FF000004FF0000137
:1004D000AFF30080BDE81C40704700000FB4044932
:1004E00010B503AA029800F05FFA10BC5DF814FB87
:1004F000740000202DE9F04106460024106875299B
:10050000314616A510D0AFF30080002802DA404231
:1005100013A507E031688A0701D512A502E0490753
:1005200004D511A5012401E0AFF3008000210A22C7
:1005300006F1240709E0B0FBF2FCB0FBF2F302FB8A
:100540001C00303078541846491C0028F3D123464B
:100550002A463046BDE8F04100F0CCB9000000006A
:100560002D0000002B0000002000000070B50446A4
:100570000D4621461068AFF300802188090502D599
:100580000F4A7A4402E00E4A7A440E32002104F106
:10059000240305E000F00F060009965D5E54491C37
:1005A0000028F7D120780023000704D5702D02D051
:1005B00009B1022311322046BDE8704000F09AB91B
:1005C000965700002DE9F05F894604464FF0000A77
:1005D000DFF824B1FB44C0F820A02046E16888473A
:1005E00000287DD0252806D0D4E901219047206A33
:1005F000401C2062F1E700255F462046E1688847FD
:100600002028064607DB312E05D2B81910F8200C39
:1006100008B10543F1E7A80701D525F00405C4F8A2
:100620001CA00027C4F818A02A2E09D0304603F0D9
:1006300062FB38B304EB8708303EC8F8186019E055
:1006400059F8041B204604EB87029161E168884752
:10065000012F064618D1E069002820DA25F0200590
:100660001DE0D8F8180000EB800006EB40003038A1
:10067000C8F818002046E1688847064603F03BFBAF
:100680000028EED1012F0AD02E2E08D12046E16895
:1006900088477F1C0646022F45F02005C4DBA06971
:1006A000002803DA404245F00105A061E80701D0C7
:1006B00025F01005A6B1A6F14100192802D8203670
:1006C00045F400654A463146204625604D46FFF711
:1006D00095FD60B1012807D0ED1D25F0070000E071
:1006E00007E000F1080978E705F1040975E73046ED
:1006F0007AE7206ABDE8F09F6C570000032A40F2B9
:10070000308010F0030C00F0158011F8013BBCF1B3
:10071000020F624498BF11F801CB00F8013B38BFCB
:1007200011F8013BA2F1040298BF00F801CB38BFD9
:1007300000F8013B11F0030300F02580083AC0F0F7
:10074000088051F8043B083A51F804CBA0E808109F
:10075000F5E7121D5CBF51F8043B40F8043BAFF3D2
:100760000080D20724BF11F8013B11F801CB48BF2C
:1007700011F8012B24BF00F8013B00F801CB48BF62
:1007800000F8012B704710B5203AC0F00B80B1E89B
:100790001850203AA0E81850B1E81850A0E81850B6
:1007A000BFF4F5AF5FEA027C24BFB1E81850A0E8BF
:1007B000185044BF18C918C0BDE810405FEA827CD9
:1007C00024BF51F8043B40F8043B08BF7047D207F0
:1007D00028BF31F8023B48BF11F8012B28BF20F891
:1007E000023B48BF00F8012B704702F0FF0343EAC9
:1007F000032242EA024200F0EBB84FF0000200B5DB
:10080000134694469646203922BFA0E80C50A0E833
:100810000C50B1F12001BFF4F7AF090728BFA0E8E1
:100820000C5048BF0CC05DF804EB890028BF40F8AD
:10083000042B08BF704748BF20F8022B11F0804FEF
:1008400018BF00F8012B70477047704770470000D1
:1008500000487047C050002070477047704770478D
:1008600038B504460A4600206946AFF300800028E8
:1008700008BF38BD02460099204600F0CDF801209F
:1008800038BD012000F0FEB8F8B5AFF30080054692
:1008900000200C46102000BF0646A819A0420DD922
:1008A000324669460020AFF30080070008BF00F021
:1008B000E9F80098A04218BF0546C419FFF7C8FF21
:1008C00005600746F01D20F007004619284600F095
:1008D0000AF8B44208BFF8BDA21B31463868BDE82B
:1008E000F84000F099B800210160C0E9011070479C
:1008F000102070472DE9F0470D4699469246044670
:1009000000F124080168880604D5E06921F010018F
:10091000216000E00120A84201DD471B00E0002724
:10092000A1697A1902EB0900081AA0612078C006B3
:1009300002D42046AFF30080002608E0D4E901216C
:100940001AF806009047206A401C761C20624E452B
:10095000F4DB2078C0060AD52046AFF3008006E01D
:10096000D4E9012130209047206A401C2062381EC3
:10097000A7F10107F4DC07E0D4E9012118F805002C
:100980009047206A401C2062281EA5F10105F3DC77
:100990002046AFF300802078000602D50220BDE893
:1009A000F0870120FBE70000074B70B50D467B4444
:1009B00000F051F80446284600F060F810B14FF0FE
:1009C000FF3070BD204670BD873300004FF000023D
:1009D0000429C0F0128010F0030C3FF410AFCCF1EA
:1009E000040CBCF1020F18BF00F8012BA8BF20F8BF
:1009F000022BA1EB0C01FFF702BF5FEAC17C24BF11
:100A000000F8012B00F8012B48BF00F8012B7047BC
:100A100000487047B8500020034640688C460028C4
:100A200018BF88423CBF03464068F8D31868184492
:100A3000884207D00CF1030020F00700001D411A86
:100A4000521A0146081D0A60FFF7A9BC01694A1C39
:100A500002610878704700B58FB0CDE901310021FF
:100A6000059105497944CDE9031011466846FFF721
:100A7000A9FD0FB000BD0000E5FFFFFF007B00F007
:100A80008000704710B500F039F8BDE8104000F064
:100A90002FB870477546FFF7BBFFAE4605006946A5
:100AA000534620F00700854618B020B5FFF736FC06
:100AB000BDE820404FF000064FF000074FF000085F
:100AC0004FF0000B21F00701AC46ACE8C009ACE8E0
:100AD000C009ACE8C009ACE8C0098D46704710B544
:100AE0000446AFF300802046BDE81040FFF7A1BBED
:100AF000002801D000F02AB87047000010B5012886
:100B000005D0002103A000F027F8012010BD09A1A5
:100B1000F8E7000053494752544D454D3A204F7570
:100B200074206F662068656170206D656D6F7279E5
:100B3000000000003A2048656170206D656D6F729D
:100B40007920636F727275707465640001491820B2
:100B5000ABBEFEE72600020070B505460C460A2033
:100B600000E06D1C00F011F835B128780028F8D1AC
:100B700002E0641C00F009F814B120780028F8D1D4
:100B8000BDE870400A20AFF3008008B569468DF8D3
:100B900000000320ABBE08BD464910B54A6822F4E8
:100BA00040324A604A6843681A434A6001684A68AA
:100BB00022F480724A6001684A68036942EA0322AB
:100BC0004A6001684A6822F040724A6001684A68D7
:100BD00083681A434A6001688A6822F400628A6066
:100BE00001688A68C3681A438A60816A6FF070621C
:100BF000D14201688A6822F070628A6001688A685E
:100C00000CD0836A1A438A6001688A6822F04052D5
:100C10008A6001688A68C36A1A4301E022F0405280
:100C20008A6001688A6822F002028A6001688A6824
:100C3000037E42EA43028A6090F82010002901688E
:100C40004A680FD042F400624A6001684A6822F4A0
:100C500060424A6001684A68174C436A04EB4333B8
:100C60001A4301E022F400624A600168CA6A22F471
:100C70007002CA620168CA6A838B104C04EB03538A
:100C80001A43CA6201688A6822F400728A600168A5
:100C90008A6890F8303042EA43228A6001688A68A4
:100CA00022F480628A6001688A68406942EA802092
:100CB000886010BD0023014000E0FFFF0000F0FF4E
:100CC000552909D188210B4A03280ED005DC0128BB
:100CD00009D0022800D191607047042807D0552818
:100CE000FAD15161704751607047D160704711610E
:100CF000704700000C0000202DE9F0472F4C2078B1
:100D00000025002856D02E488678017890F803A058
:100D1000552E4FD1012904D0032941D0042949D1AE
:100D200043E04178AA2904D026A0FFF7D7FB25701D
:100D300040E0804600798708B800FFF701FB814654
:100D4000002041460AE000BF01EB800333F8052F85
:100D50005B8843EA024249F82020401CB842F3DB9A
:100D600008EB870090F80780062000EB8701144805
:100D700002F0D2FF0746B84505D1257051463046EE
:100D800003F0A0FD08E012A0FFF7A8FB4246394699
:100D900012A0FFF7A3FB25704846FFF700FB09E010
:100DA00031465046FFF78CFF04E0042213495046B9
:100DB00002F0BAFB2570BDE8F0870000700000204B
:100DC000FC030020484541445F4552524F520A00FF
:100DD0004352435F4552524F520A00006372635FB1
:100DE00063616C203A307825582020206372635F5D
:100DF00046726D653A203078255800000C000020BE
:100E0000FEE70000014800F0FBB90000DC0600200E
:100E1000014800F0F5B900001C060020014800F070
:100E2000EFB900003C070020014800F0E9B90000DC
:100E30007C06002001681823CAB2103AB2FBF3F214
:100E4000054B6FF30901032A9B5CC36500D9091D9B
:100E50008165084670470000FC5C000810B501463B
:100E600000208B698A6A4FF0C07453B1B3F5005FFC
:100E700015D072B1012A0CD0022A0AD0032A09D156
:100E800004E01AB1012A06D0022A03D1C96AC901B5
:100E900000D5012010BDC96AA142FAD010BD002AB8
:100EA000F7D0012AF2D0022AF3D0032AF3D010BDE2
:100EB00030B50468256825F48025256004686360E2
:100EC0008368402B036803D099600068C26030BD1E
:100ED0009A600068C16030BD704700000648016834
:100EE00041F080710160054800214160016841F0D6
:100EF0000101016070470000FCED00E0001000E01F
:100F000072B6FEE778B50024009490F83C20012AE0
:100F100019D0012280F83C200A6807230568092AB5
:100F200013D9EE680A3A02EB420293409E43EE6008
:100F30000B788A680A3B03EB43039A400368DD6839
:100F40002A43DA6010E0022078BD2E6902EB4202EB
:100F500093409E432E610B788A6803EB43039A40CB
:100F600003681D692A431A614A681F23072A13D29E
:100F700005686E6B521E02EB820293409E436E63C5
:100F80000B790A885B1E92B203EB83039A400368D5
:100F90005D6B2A435A6327E005680D2A12D22E6B37
:100FA000D21F02EB820293409E432E630B790A8884
:100FB000DB1F92B203EB83039A4003681D6B2A4345
:100FC0001A6311E0EE6A0D3A02EB820293409E43EF
:100FD000EE620B790A880D3B92B203EB83039A40D1
:100FE0000368DD6A2A43DA62164B0568144A9D429B
:100FF00006D10D68122D03D1556845F48005556062
:1010000005689D4218D10B68102B01D0112B13D10C
:10101000536843F400035360096810290CD10A494E
:101020000A4A0968B1FBF2F101EB8101490000E0D5
:10103000491E00910029FBD180F83C40002078BD7A
:1010400000230140002001408400002040420F00A6
:1010500070B504004FF0000503D0206C002610B1DD
:1010600007E0012070BD204600F01CF8666484F89B
:101070003C60206CC00610D4206C20F4885040F0F6
:10108000020020642046FFF787FD6664206C20F094
:10109000020040F00100206400E0012584F83C607B
:1010A000284670BD30B587B0044614216846FFF766
:1010B000A4FB20492068884239D11F4800250168D7
:1010C00041F480710160006800F4807005901A4856
:1010D0001438016841F004010160016801F0040165
:1010E0000591016841F001010160016801F0010111
:1010F0000591016841F0020101600068032400F0DD
:10110000020005903F208DE8310069460B4800F051
:10111000E9F9FF208DE831006946094800F0E2F95D
:10112000009469460748CDE9014500F0DBF907B0B6
:1011300030BD000000200140443802400008024059
:1011400000000240000402402DE9F0410446876D92
:1011500000F0C6FA064694F835000025022806D0AD
:101160008020606584F834500120BDE8F08120685B
:10117000016821F0160101602068416921F08001B9
:101180004161206C08B9A06C20B12068016821F091
:10119000080101602068016821F0010101600CE094
:1011A00000F09EFA801B052807D9202060650320E7
:1011B00084F8350084F83450D7E720680068C00709
:1011C000EED194F85C103F208840B860012084F88C
:1011D000350084F834500020C7E790F83510022914
:1011E00003D08021416501207047052180F835102A
:1011F0000068016821F001010160002070470000D3
:101200002DE9F84304464FF00009CDF800906348FB
:101210004FF41651A56D0068B0FBF1F72E6894F8F5
:101220005C10082000FA01F131420FD021680A68F1
:1012300052070BD50A6822F004020A6094F85C1089
:101240008840A860606D40F00100606594F85C1013
:101250004FF0010808FA01F0304208D021684969CE
:10126000090604D5A860606D40F00200606594F83E
:101270005C1004208840304208D021680968890742
:1012800004D5A860606D40F00400606594F85C10BF
:1012900010208840304218D021680968090714D509
:1012A000A86020680168490304D50068000308D5D8
:1012B000A16C07E00168C90503D4016821F00801A9
:1012C0000160216C09B12046884794F85C10202009
:1012D0008840304231D021680968C9062DD5A86000
:1012E00094F8350005282068016806D0490347D5E1
:1012F000006800031DD4616C1CE021F01601016040
:101300002068416921F080014161206C08B9A06C1E
:1013100020B12068016821F00801016094F85C1098
:101320003F208840A86084F8358084F83490216D8F
:101330001FE0E16B09B120468847606D00282BD083
:10134000606DC00714D0052084F83500206801685E
:1013500021F0010101600098401C0090B84203D8C0
:1013600020680068C007F6D184F8358084F834908E
:10137000E16C002910D001B02046BDE8F0430847D9
:101380000168C905D5D4016821F01001016084F815
:10139000358084F83490CCE7BDE8F88384000020E1
:1013A0002DE9F041044600F09BF906465CB10220AD
:1013B00084F83500002584F834502068016821F055
:1013C000010101600DE00120BDE8F08100F088F925
:1013D000801B052805D920206065032084F835008E
:1013E000F2E720680068C007F0D122681168204841
:1013F0000140D4E901031843D4E9033633431843C9
:1014000063691843A3691843E3691843236A1843BF
:101410000843616A042903D1D4E90B131943084333
:10142000106020684069666A20F0070130460E436C
:10143000012704280CD1A06A0643E06A40B1204687
:10144000FFF70CFD20B14020606584F83570BAE7E5
:10145000206846612046FFF7EDFC94F85C203F21B0
:1014600091408160656584F835700020ACE700002C
:101470003F8010F02DE9F0410446866D90F834006D
:10148000002501280DD0012084F8340094F835702F
:101490000020012F07D084F8340002252846BDE83B
:1014A000F0810220FBE7022784F835706065204652
:1014B000FFF7FEFC94F85C103F208840B060206885
:1014C000016841F016010160206C20B120680168BC
:1014D00041F0080101602068016841F001010160EC
:1014E000DCE700002DE9F84FDFF8BCA10022012560
:1014F00003264FF00F090AF1040BAAF1040E00BFF6
:101500000B6805FA02F42340A34270D10F7907F06B
:101510000307012F01D0022F16D187684FEA420836
:1015200006FA08FC27EA0C07D1F80CC00CFA08FCF4
:101530004CEA070CC0F808C04768A7430C79C4F30D
:10154000001494403C4344600C79E443A4070AD05F
:10155000C4684FEA420C06FA0CF7BC438F6807FADE
:101560000CF72743C7600C7904F00304022C12D156
:10157000D40800EB840CDCF820405707FF0E09FA72
:1015800007F824EA0804D1F8108008FA07F848EAB6
:101590000408CCF8208004684FEA420C06FA0CF7E5
:1015A000BC430F7907F0030707FA0CF727430760DE
:1015B0004C6814F4403F70D03C4C276847F4804797
:1015C0002760246822F0030704F480440094384C18
:1015D00007EB040CDCF8084897074FEA177809FA7C
:1015E00008F7BC43334FB84202D1002724E054E04F
:1015F000314FB84201D101271EE0304FB84201D12E
:10160000022719E02E4FB84201D1032714E02D4FD5
:10161000B84201D104270FE02B4FB84201D1052772
:101620000AE02A4FB84201D1062705E0284FB84208
:1016300001D1072700E0082707FA08F72743CCF86D
:101640000878DAF800405746D1F804C09C435FEAB6
:10165000CC2C00D51C433C60DBF800405F46D1F841
:1016600004C09C435FEA8C2C00D51C433C60DEF830
:1016700000407746D1F804C09C435FEA8C3C00D51B
:101680001C433C60084F083F3C68D1F804C09C43B1
:101690005FEACC3C00D51C433C60521C102AFFF48E
:1016A0002FAFBDE8F88F0000083C014044380240ED
:1016B00000300140000002400004024000080240E7
:1016C000000C0240001002400014024000180240CA
:1016D000001C02400AB1816170470904FBE7000069
:1016E00001488068704700007800002070B5040051
:1016F00025D094F83D00002520B984F83C502046C0
:1017000000F0B8F8242084F83D002068016821F03A
:10171000010101602068016841F400410160206816
:10172000016821F40041016000F0B4FA4D4A61689B
:10173000914201D84C4900E04C49884201D2012035
:1017400070BD4B492368B0FBF1F15E6826F03F069F
:101750000E435E606368934206D94FF49673594313
:101760004FF47A73B1FBF3F12368491C1E6A26F02B
:101770003F06314319626168914210D84900401E0A
:10178000B0FBF1F2521CC2F30B02042A01D2042076
:1017900022E0B0FBF1F0401CC0F30B001CE0A2689B
:1017A000F2B301EBC10303EB0116431EB3FBF6F3E7
:1017B0005B1C43F480431B0549D092B301EBC1028B
:1017C00002EB0111401EB0FBF1F0401CC0F30B0016
:1017D00040F4804040F400402168CA694CF6FF7331
:1017E0009A431043C861D4E9071001432068026896
:1017F00022F0C00211430160D4E9030101432068D3
:10180000826848F2FF339A4311438160D4E90501AD
:1018100008432168CA6822F0FF021043C86001E053
:101820000EE016E02068016841F0010101602564C6
:10183000202084F83D00256384F83E50002070BDD0
:1018400001EB4106431EB3FBF6F35B1CB3E701203B
:10185000C2E701EB4101401EB0FBF1F0401CC0F3B8
:101860000B00B7E7A086010080841E0000093D0040
:1018700040420F002DE9F04186B00446142168462D
:10188000FEF7BBFF23683B4CDFF8E4C00022394978
:1018900012250326042738481034634518D10B68F5
:1018A00043F002030B60096802AB01F002010591ED
:1018B000C021CDE9001583E8C4006946FFF712FE98
:1018C000206840F400102060206800F400101CE044
:1018D000DFF8A8C063451CD10B6843F002030B601E
:1018E000096802AB01F0020105914FF44061CDE9B6
:1018F000001583E8C4006946FFF7F4FD206840F452
:1019000080002060206800F48000059006B0BDE8EB
:10191000F0811B488342F9D10868904640F00400EA
:101920000860086800F004000590086840F00100B5
:1019300008600868694600F00100059058158DE8B8
:1019400021011048CDE90367FFF7CCFD4FF480700B
:101950008DE8210169460C48CDE90367FFF7C2FD18
:10196000206840F400002060206800F40000CCE70C
:10197000005400403038024000040240005800404B
:10198000005C0040000802400000024002488168FC
:101990000278114481607047780000200B4810B530
:1019A000016841F400710160016841F480610160E7
:1019B000016841F480710160032000F09FF80F205E
:1019C00000F006F800F050F8002010BD003C024086
:1019D00030B505461F4887B00024016841F020015A
:1019E0000160006806A900F02000009001A800F046
:1019F00031F90498A8B100F04DF940001649174A92
:101A0000B0FBF1F11648491E026040F2E732C0E92E
:101A10000324C0E90114846100F038FC040003D001
:101A200015E000F037F9E9E70D4800F0C3FC0400C9
:101A30000DD1372000F034F8102D07D200222946AE
:101A4000372000F03BF80748056000E0012407B0AC
:101A5000204630BD4038024040420F000014004094
:101A60009C0700207C0000200C4882B0016841F4F3
:101A700080410160006800F4804000900748001F2A
:101A8000016841F0805101600068002200F0805040
:101A900000900F21901E02B000F010B844380240B0
:101AA000002809DB00F01F0201219140400980005D
:101AB00000F1E020C0F8001170470000F0B40E4BB8
:101AC0001B680C46C3F30223C3F10705042D00D99C
:101AD0000425191D072901D2002300E0DB1E012681
:101AE00006FA05F1491E214099409E40761E164097
:101AF0003143F0BC02F0EFB80CED00E0064900F015
:101B0000070208684FF6FF03184040EA0220034A24
:101B100010430860704700000CED00E00000FA057B
:101B20002DE9F0470E46050065D0DFF81481D8F89E
:101B30000000F7B200F00700B04207D288F800704A
:101B4000D8F8000000F00700B04254D128683D4C9E
:101B5000810712D5400703D5206840F4E05020608B
:101B60002878000703D5206840F460402060206892
:101B7000A96820F0F000084320602878C0072DD025
:101B8000304968680839012812D0022813D0032888
:101B900011D00968890700292DDA216821F0030195
:101BA00001432160FFF79CFD814641F2883A0EE037
:101BB00009688903EFE709688901ECE7FFF790FD01
:101BC000A0EB0901514502D90320BDE8F087206848
:101BD000696800F00C00B0EB810FEFD1D8F800106D
:101BE000404601F00701B14207D90770006800F0D4
:101BF0000700B04201D00120E7E72878400705D56B
:101C00002068E96820F4E050084320602878000745
:101C100006D52068296920F4604040EAC1002060B0
:101C200000F058F82168084AC1F30311515CC8401C
:101C30000649086006480068FFF7CAFE0020C4E7AE
:101C4000003C024008380240045D00088400002087
:101C50007C0000200F2202600C4A136803F003038B
:101C60004360136803F0F0038360136803F4E053E8
:101C7000C36012684FF4E05303EAD20202610448E1
:101C8000006800F007000860704700000838024054
:101C9000003C02400448054900680968044AC1F351
:101CA0008221515CC84070478400002008380240FF
:101CB000145D00080448054900680968044AC1F336
:101CC0004231515CC840704784000020083802400F
:101CD000145D0008154810B5006810F00C02144897
:101CE00013D04110042A0FD0082A0ED10F4C241F04
:101CF0002268236802F03F025B0207D52068C0F328
:101D00008810A0FB010106E0084610BD2168C1F360
:101D10008811A1FB00010023FEF768FB2168C1F3D5
:101D20000141491C4900B0FBF1F010BD08380240E8
:101D30000024F4002DE9F84F04006ED02078DFF87D
:101D40004C93C007A9F104054AD009F104000168C9
:101D5000C1F38101012908D00068C0F38100022885
:101D60000AD1D9F80000400206D52868800337D58B
:101D700060680028E1D033E06068B0F5803F10D0A3
:101D8000B0F5A02F286810D020F480302860286893
:101D900020F4802028606068A8B1FFF7A1FC064607
:101DA0000DE0286840F48030F4E740F4802028609B
:101DB000F7E700BFFFF794FC801B642873D82868FE
:101DC0008003F7D50CE0FFF78BFC064605E000BF6B
:101DD000FFF786FC801B6428F0D828688003F7D4BE
:101DE0002078DFF8AC8280074FF0000A3ED5A74884
:101DF000001D016811F00C0F08D00068C0F38100CD
:101E000002280BD1D9F80000400207D428688007C7
:101E100016D5E068012800D112E033E1E068B8B1DE
:101E20000120C8F80000FFF75BFC064605E000BF94
:101E3000FFF756FC801B0228C0D828688007F7D51A
:101E40002868216920F0F80040EAC10028600DE010
:101E5000C8F800A0FFF744FC064604E0FFF740FC8A
:101E6000801B02281FD828688007F7D42078000735
:101E700022D5864F87486169703771B101210160B1
:101E8000FFF72EFC064604E0FFF72AFC801B022821
:101E900009D838688007F7D50EE0C0F800A0FFF732
:101EA0001FFC064605E082E0FFF71AFC801B0228B3
:101EB0007DD838688007F7D42078400768D5DFF8E8
:101EC000CCB100270BF13C0BDBF80000C0000BD4B9
:101ED000DBF8001041F08051CBF80010DBF8000077
:101EE000012700F0805000906B4E3068C00510D480
:101EF000306840F480703060FFF7F2FB009005E03E
:101F0000FFF7EEFB0099401A022850D83068C00550
:101F1000F6D55E4EA0686C3601280FD005283068D3
:101F200010D020F001003060306820F004003060F4
:101F3000A068B8B1FFF7D4FB00900FE0306840F024
:101F40000100F4E740F004003060F7E7FFF7C8FB5A
:101F50000099411A41F28830814266D83068800782
:101F6000F4D50EE0FFF7BCFB009007E0FFF7B8FBED
:101F70000099411A41F28830814256D83068800772
:101F8000F4D42FB1DBF8001021F08051CBF8001011
:101F9000A069C8B33D49091D0968C1F3810102293F
:101FA0004AD00228504607D0C8F8600000E03CE064
:101FB000FFF796FB04463BE04746C8F86000FFF792
:101FC0008FFB064605E000BFFFF78AFB801B022857
:101FD0002BD828688001F7D4D4E907010843A16A07
:101FE0002E4A490802EB0141626A41EA8211084324
:101FF00094F82C1040EA0161C9F8001001203866FD
:10200000FFF76EFB044606E03EE000BFFFF768FB0B
:10201000001B022809D828688001F7D534E000BFEA
:10202000FFF75EFB001B022802D90320BDE8F88FF2
:1020300028688001F4D427E00128F7D0D9F80000FF
:10204000E26900F4800191421CD1226A00F03F0154
:10205000914217D147F6C071626A0140B1EB821F0D
:1020600010D1A26A4FF0FF3300F4403103EB52026B
:10207000B1EB024F06D194F82C1000F07060B0EB79
:10208000016F01D00120D1E70020CFE704380240E2
:1020900000004742800E4742007000400000FFFFF2
:1020A00070B5040009D0606A002540B12561656102
:1020B000A56294F8510040B10CE0012070BD606849
:1020C000B0F5827FF4D0E561F2E784F85050204605
:1020D00000F044F8022084F851002068016821F0E3
:1020E00040010160A088218900F4827001F404415C
:1020F0000843A18901F400610843217C01F0020139
:102100000843217D01F001010843218B01F4007196
:102110000843217F01F03801084394F8201001F0B2
:1021200080010843218D01F40051084321680860B3
:10213000A069042101EA104094F8241001F0100174
:102140000843216848602068C16921F40061C161C9
:102150006565012084F85100002070BDF0B587B09E
:10216000044614216846FEF748FB1F4F23680022EF
:102170001E490224032505261D48BB4213D11B4BD3
:1021800014331F6847F480571F601B6803F48053A3
:1021900005930B6843F002030B60096801F002012C
:1021A0000591382116E0134FBB421BD10F4B103362
:1021B0001F6847F480471F601B6803F48043059342
:1021C0000B6843F002030B60096801F002010591FE
:1021D0004FF46041CDE9001402AB694683E8640026
:1021E000FFF780F907B0F0BD003001403038024001
:1021F00000040240003800407047704770B590F806
:102200003C20012A32D0012480F83C40022280F890
:102210003D2003685A689D6822F070060A683243C0
:102220005A60134B02689A4214D0B2F1804F11D019
:10223000104B9A420ED0104B9A420BD00F4B9A4241
:1022400008D00F4B9A4205D00E4B9A4202D00E4B4B
:102250009A4204D1496825F080031943916080F8BF
:102260003D40002180F83C10084670BD022070BD42
:10227000000001400004004000080040000C004045
:1022800000040140004001400018004010B5040067
:1022900003D094F83D0010B107E0012010BD0020EC
:1022A00084F83C00204600F01FF8022084F83D002E
:1022B000211D206801F02CFA012084F8460084F8E2
:1022C0003E0084F83F0084F8400084F8410084F820
:1022D000420084F8430084F8440084F8450084F800
:1022E0003D00002010BD000008B50068114988427B
:1022F00012D11148016841F001010160006800221B
:1023000000F00100009006211920FFF7D7FBBDE87F
:1023100008401920FFF7C4BBB0F1804F09D106482F
:10232000001F016841F001010160006800F0010038
:10233000009008BD000001404438024090F83D1074
:10234000012901D001207047022180F83D1000686A
:102350001149884214D0B0F1804F11D00F49884202
:102360000ED00F4988420BD00E49884208D00E4942
:10237000884205D00D49884202D00D49884204D1D7
:10238000816801F00701062903D0016841F00101CD
:102390000160002070470000000001400004004080
:1023A00000080040000C00400004014000400140D3
:1023B0000018004090F83D10012901D0012070471D
:1023C000022180F83D100168CA6842F00102CA602B
:1023D00000681149884214D0B0F1804F11D00F49E4
:1023E00088420ED00E4988420BD00E49884208D050
:1023F0000D49884205D00D49884202D00C498842D7
:1024000004D1816801F00701062903D0016841F079
:1024100001010160002070470000014000040040FD
:1024200000080040000C0040000401400040014052
:102430000018004070B5044690F83C0000250128C3
:1024400017D0012684F83C60022084F83D00206803
:10245000826822F0770222F47F4282600868502866
:1024600038D00DDC20284FD005DC90B3102811D1D6
:102470004AE0022070BD302846D040280AD13BE017
:1024800060282FD070280DD0B0F5805F03D0B0F554
:10249000005F12D0012584F83D60002084F83C00E4
:1024A000284670BDCB68D1E90121206801F098F978
:1024B0002068816841F0770109E0CB68D1E901210A
:1024C000206801F08DF92068816841F480418160C5
:1024D000E1E719E0CA684968206801F093F95021E2
:1024E000206806E0CA684968206801F09CF960210C
:1024F000206801F07FF9CEE7CA684968206801F0DA
:1025000081F940212068F4E7226801461046F0E78F
:1025100070472DE9F04104460068C66805694FF030
:102520000007A90713D5B10711D5F91E01610120D4
:102530002077206880698007204602D0FFF7E8FFF7
:1025400004E000F07EF8204600F07CF8277768076A
:1025500016D5700714D521686FF0040008610220B9
:1025600020772068806910F4407F204602D0FFF772
:10257000CFFF04E000F065F8204600F063F827770D
:10258000280715D5300713D521686FF008000861BA
:10259000042020772068C0698007204602D0FFF71A
:1025A000B7FF04E000F04DF8204600F04BF8277725
:1025B000E80616D5F00614D521686FF01000086102
:1025C000082020772068C06910F4407F204602D0A0
:1025D000FFF79EFF04E000F034F8204600F032F8E8
:1025E0002777E80708D0F00706D021686FF00100D0
:1025F0000861204600F028F8280608D5300606D5E0
:1026000021686FF0800008612046FFF7F5FD68063D
:1026100008D5700606D521686FF040000861204695
:1026200000F02EF8A8060AD5B00608D521686FF08C
:10263000200008612046BDE8F041FFF7DEBDBDE89F
:10264000F08170477047000010B5044600680949E2
:10265000884201D1FFF79AF907492068884207D1DB
:1026600006480068002803D0BDE8104001F05EBCB9
:1026700010BD000000140040000001406C0000206C
:10268000704738B5044690F84200202801D0022057
:1026900038BD51B14AB1012020630020606320465B
:1026A00001F09AFA216B012901D0012038BD21687F
:1026B0000A684968009121680C3151E8002F42F006
:1026C000100241E80023002BF5D138BD2DE9F0417F
:1026D00005461D4801261D4C0F46854211D100F0CC
:1026E00039F81B493A4601F13400FEF74CF82670E0
:1026F00034211748FEF781F8342215491248FFF7B4
:10270000C0FF1148D83885421BD1607858B10E48B7
:10271000D83800F01FF80E491E22683101F11E0062
:10272000FDF7ECFF66700A481E216830FEF765F879
:10273000BDE8F04106491E22683101F1CC00FFF7E7
:10274000A0BFBDE8F0810000D4050020700000208B
:10275000C803002010B504460068406994F8411091
:10276000C0F3C010212911D180B12068143050E885
:10277000001F21F0800140E80012002AF5D1A06B73
:1027800008B1FEF7E1FC204601F031F9206840690C
:1027900094F84210C0F38010222911D180B1206832
:1027A000143050E8001F21F0400140E80012002AD8
:1027B000F5D1E06B08B1FEF7C7FC204601F0F0F858
:1027C000002010BD70470000F8B501680446086895
:1027D000CA684B6910F00F0F4FF0000559D003F095
:1027E000010602F49077374365D0C10705D0D105C3
:1027F00003D5616C41F001016164410705D5D9073A
:1028000003D0616C41F002016164810705D5D907ED
:1028100003D0616C41F004016164010707D502F047
:102820002001314303D0616C41F008016164616CA7
:1028300000293AD0800604D5900602D5204601F042
:10284000E4F820684069616CC0F38010090700D487
:1028500060B3204601F0A4F820684069400621D505
:102860002068143050E8001F21F0400140E80012B9
:10287000002AF5D1E06BA8B172490165E06BFEF763
:10288000ACFC002811D0E06B016D01B0BDE8F04058
:10289000084783060FD593060DD52046BDE8F840BE
:1028A00001F0B3B82046FFF78DFFF8BD2046FFF7D3
:1028B00089FF6564F8BD266B2023012E7ED1C606F4
:1028C0007CD5D6067AD508684868009048694FF0EC
:1028D000020640064DD5E26B106840684FF48077E1
:1028E0000004000C3AD0A18D814237D9E085D0692F
:1028F000B8422DD020680C3050E8001F21F48071C0
:1029000040E80012002AF5D12068143050E8001F7A
:1029100021F0010140E80012002AF5D120681430AE
:1029200050E8001F21F0400140E80012002AF5D1D4
:1029300084F84230256320680C3050E8001F21F0F5
:10294000100140E80012002AF5D1E06BFEF7FCFB15
:102950006663A08DE18D401A81B206E0A18D8142AF
:10296000A8D1D069B842A5D166632046FFF7AEFE74
:10297000F8BDA08DE18D401A81B2E08D0028F7D01E
:102980000029F5D020680C3050E8002F22F4907216
:1029900040E80027002FF5D12068143050E8002FC0
:1029A00022F0010240E80027002FF5D184F84230E0
:1029B000256320680C3050E8002F00E006E022F08C
:1029C000100240E80023002BF3D1CDE705062BD5FC
:1029D000150629D594F841002128C9D1A068B0F581
:1029E000805F01D12069B0B1206A411C2162216859
:1029F00000784860E08C401E0004000CE084B7D1F1
:102A00002068C16821F08001C1602068C16841F080
:102A10004001C160F8BD206A0088C0F3080048602A
:102A2000206A801C2062E5E74006F3D55006F1D508
:102A3000CA68204622F04002CA6084F8413000F0A3
:102A40001FFAF8BD5938000870B5040004D094F896
:102A50004100002510B106E0012070BD84F840500F
:102A6000204600F023F8242084F841002068C16843
:102A700021F40051C160204601F028F82068016966
:102A800021F4904101612068416921F02A014161EE
:102A90002068C16841F40051C1606564202084F859
:102AA000410084F842006563002070BD2DE9F04FBD
:102AB00087B0044614216846FDF79FFEAE48AD4A34
:102AC0002368AD49103802260327DFF8B0920025AD
:102AD0004FF00808934218D10A6842F400220A60B5
:102AE000096801F400210591016841F004010160C9
:102AF000006802AA00F004000590B802CDE90006C3
:102B000082E8A00169464846D9E09D4A934232D105
:102B10000A6842F480120A60096801F48011059184
:102B2000016841F004010160016801F004010591B0
:102B3000016841F008010160006802AA00F0080085
:102B400005909814CDE9000682E8A0016946484640
:102B5000FEF7C8FC0420CDE9000602AA694682E817
:102B6000A0018848FEF7BEFC002205213520FEF7B3
:102B7000A5FF35205CE0DFF810C2DFF8FCA10722DA
:102B80000AF1040A4FF4806B634556D1DAF800303D
:102B900043F01003CAF80030DAF8001001F0100119
:102BA0000591016841F0010101600068029500F0A3
:102BB000010005904FF4C060CDE90006CDE9037235
:102BC00069467248FEF78EFC724E71484FF00068FD
:102BD0003060C6E90185C6E9035B7561B561F561E1
:102BE00035625F4630467562FEF7DAFB08B1FEF7E4
:102BF00087F9E663B463674E654860367830E6E887
:102C000002084020A1C6634846F814596030B561F7
:102C1000F56135627562FEF7C3FB08B1FEF770F926
:102C2000A663002205212520B463FEF747FF252077
:102C3000FEF736FF07B0BDE8F08FDFF85CC16345F3
:102C400020D10B6843F400330B60096801F40031B4
:102C50000591016841F0080101600068029500F0EB
:102C6000080005906020CDE90006CDE903726946B1
:102C70004448FEF737FC002205212620FEF71EFF00
:102C80002620D5E7DFF814C163451BD10B6843F458
:102C900080230B60096801F480210591016841F0EF
:102CA000080101600068029500F0080005904FF4EB
:102CB0004070CDE90006CDE9037269463148FEF760
:102CC00011FCB7E736498B42B4D1DAF8002042F064
:102CD0002002CAF80020DAF8001001F02001059166
:102CE000016841F004010160006802AA00F00400DC
:102CF0000590C020CDE9000682E8A001694648465B
:102D0000FEF7F0FB234E2248C036183830604FF0F3
:102D10002068C6E90185C6E9035B75614FF4403060
:102D2000B561C6E907505F4630467562FEF738FB6D
:102D300008B1FEF7E5F8E663B4631548194E603054
:102D4000E6E802084020A1C6164846F81459B561C5
:102D5000F56135627562FEF723FB08B1FEF7D0F826
:102D6000A663002205214720B463FEF7A7FE472093
:102D70005EE70000004C004040380240000802407E
:102D800000500040000C02400010014000000240D2
:102D9000406402401C0600200044004000480040FF
:102DA000001401403C07002090F84230202B01D055
:102DB0000220704721B11AB10023036300F05CBF09
:102DC00001207047094988420CD109490A780F2A25
:102DD00008D1097E19B101F00F01042902D1054A79
:102DE0000121117019220249FFF7DEBFB40400204F
:102DF00028010020080000207047000070B504463C
:102E000090F84100202801D0022070BD01B3FAB132
:102E10002162A284E28400206064212384F841308E
:102E2000A56B144BEB63A56B134B2B64A56B134B7A
:102E3000EB64A36B186520681346A56B021D28463A
:102E4000FEF718FB30B110206064202084F84100A8
:102E5000012070BD21686FF04000086020681430C8
:102E600050E8001F41F0800140E80012002AF5D12F
:102E7000002070BD553900089739000867380008F0
:102E800070477047FEE72DE9F0478046154604205D
:102E900000EB4506894697007000FDF751FA4AF6A7
:102EA0000121018048F4AA41418004468780002125
:102EB00007E059F8212004EB8103170CDF801A8109
:102EC000491CA942F5DBA900891D00F025FFBB21A3
:102ED00041EA002004EB85010122C8804FF6FF7013
:102EE00000EA4601204600F0B9FA2046BDE8F04766
:102EF000FDF755BA7FB5002415480094019402945B
:102F00001249039401604FF48031C0E90114046157
:102F1000047680F820400F49C0E90A140125C561F4
:102F2000C46080F830404561FEF792F808B1FDF7C3
:102F3000E7FFCDE90045694605480294FDF7E2FF49
:102F4000002801D0FDF7DCFF7FBD0000002001401C
:102F5000440100200100000F154808B5016841F444
:102F6000800101600068002200F4800000900521CB
:102F70003920FEF7A3FD3920FEF792FD002205213E
:102F80003A20FEF79BFD3A20FEF78AFD002205213C
:102F90004520FEF793FD4520FEF782FD0022052126
:102FA0004620FEF78BFDBDE808404620FEF778BDC1
:102FB0003038024010B50121144A084600F06AFF7B
:102FC000134C124A0121A061303A342000F036FF40
:102FD0000E4A2061183A0121082000F02FFF0B4A09
:102FE00060619C3A00210B4800F0CCFF074A60600A
:102FF000783A0021084800F0C5FF044AA060543A1E
:103000000021064800F0BEFFE06010BDEC5C000847
:10301000540000209B350008A1350008F535000854
:1030200070B586B014216846FDF7E7FB1E48002402
:10303000016841F080010160016801F080010591A3
:10304000016841F004010160016801F0040105918B
:10305000016841F001010160016801F00101059181
:10306000016841F002010160016801F0020105916F
:10307000016841F00801016000680C4E00F0080092
:103080004FF480550590002229463046FEF722FB7A
:1030900001200095CDE90104694630460394FEF70E
:1030A00021FA06B070BD0000303802400004024032
:1030B0000D4810B50B4901600C49416000214FF4E7
:1030C00080428160C0E9031241618161C161016296
:1030D000FEF70CFB002803D0BDE81040FDF710BF41
:1030E00010BD0000005400408C010020801A060032
:1030F0000D4810B50B4901600C49416000214FF4A7
:1031000080428160C0E9031241618161C161016255
:10311000FEF7ECFA002803D0BDE81040FDF7F0BE42
:1031200010BD000000580040E0010020A086010012
:103130000D4810B50B4901600C494FF48042C0E9BD
:1031400001120021C0E9031241618161C161016284
:10315000FEF7CCFA002803D0BDE81040FDF7D0BE42
:1031600010BD0000005C004034020020801A060000
:103170000F4810B50D4901604FF482714160002184
:103180008160C1604FF400720161C0E90512C16144
:103190000162416281620A21C162FEF781FF00285B
:1031A00003D0BDE81040FDF7ABBE10BD00300140BC
:1031B000880200200F4810B50D4901604FF482715C
:1031C000416000218160C1604FF400720161C0E97B
:1031D0000512C1610162416281620A21C162FEF78A
:1031E0005FFF002803D0BDE81040FDF789BE10BD89
:1031F00000380040E002002010B586B000241748D7
:10320000009401940294039404941349059401607A
:1032100044F29F11C0E901140921C0E9031444617B
:103220008461FFF733F808B1FDF76AFE4FF4805070
:10323000009069460948FFF7FDF808B1FDF760FE08
:10324000049404A905480594FEF7D8FF002801D08E
:10325000FDF756FE06B010BD000001403803002007
:1032600010B586B00024164800940194029403948B
:1032700004944FF08041059401605321C0E901148A
:10328000611EC0E903148461FFF700F808B1FDF77F
:1032900037FE4FF48050009069460948FFF7CAF89E
:1032A00008B1FDF72DFE049404A905480594FEF726
:1032B000A5FF002801D0FDF723FE06B010BD0000D9
:1032C000800300200C4810B50A4901604FF4E13139
:1032D0004160002181600C22C160C0E9041281615B
:1032E000C161FFF7B1FB002803D0BDE81040FDF736
:1032F00007BE10BD004C00406C0400200E4810B505
:103300000C4901600D4941604FF4805181604900D2
:10331000C160C91001610C21416100218161C1615D
:10332000FFF792FB002803D0BDE81040FDF7E8BD91
:1033300010BD000000500040B4040020A086010031
:10334000104810B50E4901600F49416000218160AD
:103350000C22C160C0E904128161C161FFF774FBF6
:1033600008B1FDF7CDFD07491E22CC390548FFF70E
:1033700088F906480068016821F00801016010BD65
:1033800000100140FC04002020A107001C060020C2
:103390000C4810B50A4901600B4941600021816069
:1033A0000C22C160C0E904128161C161FFF74CFBCE
:1033B000002803D0BDE81040FDF7A2BD10BD0000FD
:1033C000004400404405002020A107000C4810B52F
:1033D0000A4901604FF4E1314160002181600C2213
:1033E000C160C0E904128161C161FFF72DFB0028B3
:1033F00003D0BDE81040FDF783BD10BD004800407C
:103400008C050020104810B50E4901600F4941603D
:10341000002181600C22C160C0E904128161C16198
:10342000FFF712FB08B1FDF76BFD3422084906488F
:10343000FFF727F907480068016821F008010160DB
:1034400010BD000000140140D405002000093D001B
:10345000C8030020DC060020FEE7FEE72DE9F74F59
:103460002D4C17468B464FF4805901224946204681
:10347000FEF730F95A4629480099FFF7BFFCDFF8FC
:103480009C8000BF98F841002028FBD100224946CB
:10349000A2462046FEF71EF94FF08045686AA91043
:1034A0001F4C204A643007E02378012B07D01160BD
:1034B000BFF34F8FBFF36F8F6B6A8342F4D92078CD
:1034C000002826D1002F24D0002620E020780128D3
:1034D0001FD0012249465046FEF7FCF85A460F48D5
:1034E0000099FFF78BFC404690F841102029FBD152
:1034F000002249465046FEF7EDF8686A963002E031
:103500002178012905D0696A8142F9D9761CBE4229
:10351000DCDBBDE8FE8F000000040240D405002083
:103520007000002004ED00E02DE9F04715468946C3
:10353000804600F0E7FB042000EB4506AF0070007A
:10354000FCF7FEFE4AF60121018048F4AA414180C1
:1035500004468780002107E059F8212004EB81030D
:10356000170CDF801A81491CA942F5DBA900891DCF
:1035700000F0D2FBBB2141EA002004EB85010122CF
:10358000C8804FF6FF7000EA46012046FFF766FF4D
:103590002046BDE8F047FCF702BFFDF7ADFBFCE7B6
:1035A0000E48FEF707FF0E4F0E4C0F4D0F4E4FF01B
:1035B000FF384146B86901F085FF0128F9D16068FC
:1035C0000122286006491046FFF75DFC6068306004
:1035D0002968411A06A0FCF781FFEAE738030020BA
:1035E00054000020001000E0000000200400002033
:1035F00025640A000F4E4FF41677002500EE105A8E
:103600000520B8EEC00A86ED000A00F0DBFB6D1C59
:10361000BD42F3DB4FEA070400EE104A0520B8EE86
:10362000C00A86ED000A00F0CDFB641E002CF3DC1E
:10363000E3E700005400002010B54FF0E0200069DF
:1036400002F08EF8012803D0BDE8104001F054BC10
:1036500010BD000030B593B030216846FDF7CDF8BD
:1036600014210CA8FDF7C9F81D480025016841F098
:1036700080510160006800F0805011901948016885
:1036800041F4804101600068022400F48040119000
:1036900001200090000401908001CDE9064008AAB5
:1036A0000420A82182E813000B906846FEF742FB35
:1036B00008B172B6FEE70CA90F2081E831004FF483
:1036C000A0500F904FF48050109005210CA8FEF7E9
:1036D00027FA002801D072B6FEE713B030BD000013
:1036E00040380240007000400248016841F4700117
:1036F0000160704788ED00E00148FEF70ABF000056
:10370000380300200148FEF704BF00009C0700209A
:10371000F0B50268274B284D284E294F294C4FF011
:10372000804C984209D0604507D0A84205D0B042ED
:1037300003D0B84201D0A04204D122F0700E4A68F2
:1037400042EA0E0298421BD0604519D0A84217D019
:10375000B04215D0B84213D0A04211D01A4DA842A1
:103760000ED01A4DA8420BD0194DA84208D0194DC1
:10377000A84205D0184DA84202D0184DA84203D146
:1037800022F44075CA682A434D6922F080022A4318
:103790008D68C5620D688562984201D0A04201D152
:1037A00009690163016841F004010160012141617F
:1037B0000260F0BD0000014000040040000800402D
:1037C000000C004000040140004001400044014062
:1037D0000048014000180040001C0040002000404C
:1037E00010B5846842EA032224F47F440A4322434A
:1037F000826010BD826822F070020A4342F0070125
:103800008160704710B5036A046A24F00104046201
:10381000846924F0F00444EA021423F00A020A4303
:103820008461026210BD10B5036A046A24F01004BA
:103830000462846923F0A00324F4704444EA023251
:1038400043EA01118261016210BD00000148FEF7E8
:10385000BBBF0000B404002010B5806B0021C185FF
:10386000FEF7B0FF10BD70B5846B2068406994F816
:103870004110C0F3C0100025212904D118B1E584FE
:10388000204600F0B4F82068406994F84210C0F374
:103890008010222904D118B1E585204600F080F877
:1038A000606C40F0100060642046FEF78BFF70BD36
:1038B00010B50146806B096809684FF00002C90520
:1038C0002ED4C28501680C3151E8003F23F4807387
:1038D00041E80034002CF5D10168143151E8003F73
:1038E00023F0010341E80034002CF5D101681431C4
:1038F00051E8003F23F0400341E80034002CF5D1AB
:10390000202180F84210016B012909D101680C3196
:1039100051E8003F23F0100341E80034002CF5D1BA
:103920004263016B012902D0FFF74CFA10BD818D73
:10393000FEF7CCFE10BD10B5806B01214163016B19
:10394000012902D0FFF758FA10BD818D4908FEF712
:10395000BDFE10BD10B50146806B09680968C90538
:1039600016D40021C1840168143151E8002F22F0DF
:10397000800241E80023002BF5D101680C3151E8A9
:10398000002F42F0400241E80023002BF5D110BD8A
:10399000FFF776FA10BD10B5806BFFF772FA10BD15
:1039A00001680C3151E8002F22F4907241E80023A5
:1039B000002BF5D10168143151E8002F22F00102EB
:1039C00041E80023002BF5D1016B012909D10168E1
:1039D0000C3151E8002F22F0100241E80023002BA7
:1039E000F5D1202180F84210002101637047016861
:1039F0000C3151E8002F22F0C00241E80023002BD7
:103A0000F5D1202180F84110704708B590F8421098
:103A1000222901D0022008BD82684FF480539A42C7
:103A200001D1016921B1816A9A421BD04AB10AE0F1
:103A30000268816A5268C2F308020A80816A891C9E
:103A400008E0026972B10268526802F07F020A70EF
:103A5000816A491C8162C18D491E0904090CC18516
:103A600003D01BE002685268F1E70168CA6822F0DF
:103A70002002CA600168CA6822F48072CA600168C4
:103A80004A6922F001024A61202180F84210002197
:103A90004163026B012A03D0FFF794F9002008BDAF
:103AA000016301680C3151E8002F22F0100241E857
:103AB0000023002BF5D101680A68D20602D50A68F6
:103AC00049680091818DFEF701FEE7E770B5044675
:103AD00000680169E26821F44051114301612169E4
:103AE000A068E26908436169114308432168CA6814
:103AF00049F20C639A430243CA6020684169A26993
:103B000021F440711143416131492068884202D05B
:103B10003049884202D1FEF7CDF801E0FEF7BAF84D
:103B2000E2690023192164253226B2F5004F62684C
:103B300028D0A0FB0101930F9200FCF757FC01462F
:103B4000B0FBF5F06FF01802504301EB800006EB7C
:103B50000010B0FBF5F000F0F002B1FBF5F002EB65
:103B60000012B1FBF5F06FF01803584301EB800031
:103B700006EB0010B0FBF5F000F00F0021681044D8
:103B8000886070BDA0FB010192185B41FCF72EFC20
:103B90000146B0FBF5F00201B1FBF5F06FF0180340
:103BA000584301EB800006EBC000B0FBF5F000F0DD
:103BB000F80002EB4002B1FBF5F0584301EB800046
:103BC00006EBC000B0FBF5F000F00700D6E7000000
:103BD000001001400014014038B58162044682851E
:103BE000002013466064222284F84220E56B1F4ABD
:103BF000EA63E56B1E4A2A64E56B1E4AEA64E26BDF
:103C000010650A462168E06B091DFDF733FC30B1F1
:103C100010206064202084F84200012038BD206814
:103C2000016840680090206948B120680C3050E875
:103C3000001F41F4807140E80012002AF5D120688D
:103C4000143050E8001F41F0010140E80012002A42
:103C5000F5D12068143050E8001F41F0400140E8E1
:103C60000012002AF5D1002038BD0000B13800084C
:103C7000373900086738000881628285C2850021D3
:103C80004164222180F84210016921B10168CA68AB
:103C900042F48072CA6001684A6942F001024A61D6
:103CA0000068C16841F02001C16000207047000039
:103CB0000148FEF789BD0000FC0400200148FEF722
:103CC00083BD0000440500200148FEF77DBD0000D3
:103CD000D4050020FEE70907090E002804DB00F1E7
:103CE000E02080F80014704700F00F0000F1E020A1
:103CF00080F8141D704730380A2801D2012070471F
:103D00000020704703487721416141608160C160B4
:103D1000016170470C00002030B50346FF200022EF
:103D2000044C03E09D5C4540521C605D8A42F9D31F
:103D300030BD00004E5B000803490A685206FCD5FE
:103D4000C2B24A607047000000100140FDF726FE35
:103D5000FFF780FCFFF764F9FFF7FEF8FFF7CAF8FA
:103D6000FFF7A6F9FFF7C4F9FFF7E2F9FFF700FA4A
:103D7000FFF720FAFFF7A6FAFFF7C0FAFFF7E0FA1D
:103D8000FFF706FBFFF722FBFFF73CFBFFF734FAD8
:103D9000FFF766FA0848FEF7D1FA192207490848E2
:103DA000FFF702F8FDF79AF800F01AF8FFF702F9AA
:103DB00000F028F8FEE70000800300202801002022
:103DC000B404002010B5EFF3058111B16FF00504C4
:103DD00003E0002408B100F0E7FE204610BD00001B
:103DE000EFF3058010B16FF00500704704480168DB
:103DF00011B14FF0FF307047012101600020704782
:103E0000D800002010B5EFF3058010B16FF0050069
:103E100010BD08480168012902D04FF0FF3010BDE5
:103E2000054A002182F8141D0221016000F06CFF98
:103E3000002010BDD80000200BE000E0F8B51446CB
:103E40004FF00005EFF3058212BB08B301B3A4B134
:103E5000D4E9023263B1502A1AD32269C2B1676928
:103E600000FB01F6B74213D3009501F0B9F807E063
:103E700072B9226962B9626952B9002201F08FF801
:103E8000050005D00CB1216800E0002100F02AFEF9
:103E90002846F8BDF8B5144603460E464FF0000517
:103EA000EFF3058098BB93B39E423DD84CB1A06818
:103EB0000028E06803D0502836D3012002E008B182
:103EC00032E00020012B05D010B31846A26801F0A3
:103ED00046F820E040B10320009000221146012066
:103EE000A36801F07DF804E003220021012001F025
:103EF00056F8050018D086B100231A46194601F07D
:103F0000E7F8012809D0284600F000FE00250BE064
:103F1000184601F007F8050006D00CB1216800E052
:103F20000021284600F0DEFD2846F8BD38B5002403
:103F3000E51E00280BD000BFEFF30581A9B10021D9
:103F40000091694601F0D3F9012815D102E06FF024
:103F5000030412E0009880B109494FF080500860D6
:103F6000BFF34F8FBFF36F8F07E000231A46194648
:103F700001F0AEF8012800D02C46204638BD0000E4
:103F800004ED00E02DE9FF414FEA01034FF0000589
:103F9000EFF30581039549BB40B380271821002426
:103FA0004AB3166806B1344696691EB13146761E8C
:103FB000382E02D21679F60703D0002004B0BDE8EF
:103FC000F081566906B1B708D2F808C0BCF1000FFD
:103FD0000DD0D5685C2D18D312693AB136B18DE891
:103FE00006103A46214601F090FB03900DE0D6689A
:103FF0005EB912694AB903AACDE90012BAB22146E4
:1040000001F056FB012800D003950398D6E7000085
:104010002DE9F041134C0F460546E6682068001D67
:1040200000F062FC681C07D137B12168BDE8F0419F
:104030000D48091D00F0A8BC20683544B542456014
:10404000216805D2A06BBDE8F041091D00F084BCD9
:10405000606B091D00F080FCA06A854200D2A56259
:10406000BDE8F08188000020D40C00202DE9F0414B
:10407000054600F095FC2D4CA068401CA06020680F
:104080002B4F10B1606930B32BE02560A068012888
:1040900027D1002606EB860007EB800000F04EFCDF
:1040A000761C382EF6D3234800F048FC2148143003
:1040B00000F044FC1F48283000F040FC1D483C3014
:1040C00000F03CFC1B48503000F038FC194860639D
:1040D0001430A06305E02068E96AC06A884200D80D
:1040E0002560606A401C60626864E86A21698842F1
:1040F00000D9206100EB800007EB8000291D00F053
:1041000043FC00F06DFC606900280CD02068E96A6F
:10411000C06A884207D208494FF080500860BFF358
:104120004F8FBFF36F8FBDE8F08100008800002043
:1041300024080020840C002004ED00E038B500F0D5
:104140002FFC104C2068C8B90F4800F0F7FB0E4850
:10415000143000F0F3FB0C48E060143020610A4B8F
:104160000020F03B009003F1500210210A2000F0E3
:1041700037FF206010B105A100F0B4FCBDE8384065
:1041800000F02EBCC4000020D80D0020546D7251E8
:104190000000000030B4026C0B46002A0BD0C1684E
:1041A0001144C1608468A14201D30168C16030BC80
:1041B0001846FCF7A3BA30BC70472DE9F041856B77
:1041C000174604460026026C82B1C7B1E068FCF7CE
:1041D00095FAE168206C091AE1602268914202D2E6
:1041E000A168081AE060022F16D017E02068A8B96D
:1041F000A06801F02DFB06460020A0600EE060687C
:10420000FCF77CFA216C606808446060A168884211
:1042100004D32068606001E005B16D1E6D1CA563CC
:104220003046BDE8F08110B5044690F8590058B109
:1042300001280CD002280FD0502080F31188BFF342
:104240004F8FBFF36F8FFEE7206B00F0DDFB204642
:10425000BDE8104000F0D8BB10BD000010484FF47E
:104260007051420706D0C01D0D4920F00700411AC9
:10427000C1F570510B4A00230144C2E9000308391B
:10428000183A21F0070111604B600B600B1AC0E96E
:10429000001393604FF0004053605061704700007E
:1042A000B8140020F4000020144E154CA6F29C47D0
:1042B0004FF08058DFF84C9012E000BF00F070FB28
:1042C000F068C568281D00F00FFBA068401EA060C4
:1042D0006068401E606000F083FB2846FFF7A3FF84
:1042E00060680028EAD138680128F9D9C9F8008047
:1042F000BFF34F8FBFF36F8FF2E70000C00C0020B9
:104300008800002004ED00E070B51D46049C51B10A
:10431000C4F80020C4E90F010121204600F094FEFA
:1043200084F84C5070BD2460F4E700002DE9F05F84
:104330008846DDE90B941546834691009A460A9E0D
:10434000A522206BFCF751FA6FF00301206B01EB03
:104350008501084420F00707780707D0502080F334
:104360001188BFF34F8FBFF36F8FFEE70025B8F1C1
:10437000000F0FD05FF00000221818F8001082F82C
:10438000341018F8001011B1401C1028F4D384F830
:10439000435001E084F83450382E00D33726E662CB
:1043A000C4E91365201D00F0D4FA04F1180000F0F0
:1043B000D0FA2461C6F138006462A061656584F8B2
:1043C000585052465946384600F066FA2060B9F116
:1043D000000F01D0C9F80040BDE8F09F30B5114989
:1043E00000E011460A688242FBD34B685C188442A5
:1043F00003D1406818444860084643681C1894423A
:1044000009D1084C183C2468A24209D052681A44C9
:1044100042600A6812680260814200D0086030BDC4
:104420000460F9E7F400002070B5002441600B4DF2
:104430000061914206D8D11A8269914206D2011DCB
:10444000286907E09A4203D2994201D3012403E08C
:10445000011DE86800F080FA204670BDC40000200D
:1044600010B5044600F09CFAA06B28B15FF0000480
:1044700000F0B6FA204610BD0124F9E730B589B046
:104480003C4D6EE00498002806DADDE90601059A45
:1044900090470498002864DB069C606910B1201DD9
:1044A00000F022FA03A800F0D7F8024604980A2880
:1044B00057D2DFE800F00505052D334A05052D33F9
:1044C00094F8280040F0010084F828000599A069BC
:1044D000059B01442046FFF7A7FF68B3216A2046E9
:1044E000884794F8280040073BD5002000900598A5
:1044F000A169002342181946204601F0EFFAD8B905
:10450000502080F31188BFF34F8FBFF36F8FFEE70A
:1045100014F8280F20F00100207022E094F8280001
:1045200040F0010084F828000598A06128B18118A6
:1045300013462046FFF778FF13E0502080F31188E0
:10454000BFF34F8FBFF36F8FFEE794F8280081070A
:1045500003D4204600F058FA03E020F0010084F86C
:104560002800002204A9286800F010FF002889D143
:1045700009B030BDC40000202DE9FC410F460546BE
:1045800000F006FC01A800F067F80446019818B195
:1045900001F012FABDE8FC81254EAFB13069006828
:1045A000D0B30027291B3A46306800F0DBFA01F04F
:1045B00003FA0028EED11F494FF080500860BFF386
:1045C0004F8FBFF36F8FE5E7A542EBD801F0F4F909
:1045D000F0682746C068C468201D00F085F994F88B
:1045E0002800410719D5A0692B4641193A462046B3
:1045F000FFF71AFFA8B100200346014600902A46A3
:10460000204601F06BFA60B9502080F31188BFF3A7
:104610004F8FBFF36F8FFEE707E020F0010084F8B3
:104620002800216A20468847B4E70127BAE700003E
:10463000C400002004ED00E00648416B096829B180
:10464000416BC968C9684968816270474FF0FF31A2
:10465000FAE700008800002070B5054601F08EF8EA
:10466000064E0446B068844203D200F009F80120E7
:1046700000E0002028602046B46070BDC400002027
:10468000F8B5194D20E0C068C4680668201D00F028
:104690002BF9216A2046884794F82800400713D553
:1046A000A0693044B04206D924616060211DE868E9
:1046B00000F052F908E0002003460146009032461F
:1046C000204601F00BFA38B1E86801680029DAD118
:1046D0002969C5E90310F8BD502080F31188BFF3A4
:1046E0004F8FBFF36F8FFEE7C4000020084840687B
:1046F000401C4FF0500080F3118804D0BFF34F8F5F
:10470000BFF36F8FFEE7BFF34F8FBFF36F8FFEE7EF
:10471000FC000020074CE068016841B1C06800213E
:10472000D0F80000FFF728FFFFF7A8FEF3E701210C
:104730000020F7E7C40000202DE9F041044600F016
:104740002FF994F9455004F1240609E0606A48B154
:10475000304601F0F9F808B100F054FA6D1E6DB260
:10476000002DF3DC4FF0FF3684F8456000F038F997
:1047700000F016F994F9445004F1100709E020699B
:1047800048B1384601F0E0F808B100F03BFA6D1E80
:104790006DB2002DF3DC84F84460BDE8F04100F018
:1047A0001FB900002DE9F0410546002700F0F0FA9E
:1047B000324E306808B9FFF751FD706905424ED19D
:1047C000C5B3083568070ED005F00700C0F1080032
:1047D0000544680707D0502080F31188BFF34F8F3E
:1047E000BFF36F8FFEE72DB37068854237D823483B
:1047F000183001460C6801E020460C466168A94269
:1048000002D221680029F7D131688C4227D007688D
:104810002168016060680837411B10290FD96019B1
:10482000420708D0502080F31188BFF34F8FBFF3A9
:104830006F8FFEE713E041606560FFF7CFFD6168B1
:104840007068401A7060B268904200D2B0607069BF
:1048500001430020C4E90001F068401CF06001F051
:10486000ABF8780707D0502080F31188BFF34F8F43
:10487000BFF36F8FFEE73846BDE8F081DC00002013
:104880000449086818B10868026D521C026508687E
:10489000704700008800002010B5031F4FF080749F
:1048A0001C601B1F21F001011960191F044B0B60D4
:1048B00014390A60091F6FF0020244380A6010BD03
:1048C000ED4600081CB54AF60322ADF8002040EA88
:1048D0000120ADF80200BB20ADF804000022062143
:1048E0006846FEF7BBFD1CBDD0E9013201699A6044
:1048F000D0E901235A604A68824201D182684A6045
:10490000002202610868401E0860086870470000C5
:10491000034B036003F15C00086080201060704767
:10492000000E0020044B036003F15C0008604FF4AC
:1049300080701060704700005C10002000F10801DA
:104940004FF0FF32C0E90112C16001610021016036
:10495000704700210161704730B50B685A1C02D0C6
:1049600000F1080202E0026904E02246546825686A
:104970009D42FAD953684B6099608A605160086122
:104980000168491C016030BD42684A6093688B60D1
:1049900093685960916008610168491C0160704723
:1049A000502080F31188BFF34F8FBFF36F8F0A49F8
:1049B0004868401C486001280CD10848006810F085
:1049C000FF0F07D0502080F31188BFF34F8FBFF344
:1049D0006F8FFEE770470000FC00002004ED00E050
:1049E0000849486828B1401E486001D180F3118809
:1049F0007047502080F31188BFF34F8FBFF36F8F44
:104A0000FEE70000FC00002070B500282AD0164DFB
:104A1000A0F1080460686969084207D1502080F35A
:104A20001188BFF34F8FBFF36F8FFEE722683AB153
:104A3000502080F31188BFF34F8FBFF36F8FFEE7D5
:104A40008843606000F0A4F96068696808446860A1
:104A50002046FFF7C3FC2869401C2861BDE8704070
:104A600000F0AABF70BD0000DC0000204FF0E02085
:104A700000210161816105494FF47A720968B1FB37
:104A8000F2F1491E41610721016170478400002055
:104A900010B5FBF731FC114910280ED300F1E020CE
:104AA00090F8F0030A78904207D2502080F31188E2
:104AB000BFF34F8FBFF36F8FFEE709480068896827
:104AC00000F4E060884207D9502080F31188BFF3DA
:104AD0004F8FBFF36F8FFEE710BD0000FC0000207A
:104AE0000CED00E010B5084B002200BF53F8324037
:104AF0001CB1521C082AF9D310BD43F8321003EB45
:104B0000C201486010BD0000E407002010B5040099
:104B10000AD000F013F894F8460000280CD1204683
:104B2000BDE81040FFF770BF502080F31188BFF33D
:104B30004F8FBFF36F8FFEE710BD0000084A0021C2
:104B400002EBC1035B68834206D1002042F83100CA
:104B500002EBC10148607047491C0829F0D3704737
:104B6000E407002070B515460E460446FFF718FF0F
:104B700094F944100020491C01D184F8440094F9B0
:104B80004510491C01D184F84500FFF729FFA06BAF
:104B900028B92A46314604F1240000F051F8204695
:104BA000BDE87040FFF7C8BD10B5020014D00F4833
:104BB000006B38B1502080F31188BFF34F8FBFF3E3
:104BC0006F8FFEE700F0E4F800211046FFF720FAAF
:104BD00000F0F2FE002807D105494FF08050086030
:104BE000BFF34F8FBFF36F8F10BD00008800002010
:104BF00004ED00E002490A6A0260C968416070473A
:104C00008800002001490120C86170478800002009
:104C100010B50C4650B1094909681831FFF79CFEE0
:104C20002046BDE810400121FFF7F2B9502080F383
:104C30001188BFF34F8FBFF36F8FFEE7880000200E
:104C400070B514460D4668B10A4909681831FFF776
:104C50009BFE0CB14FF0FF3521462846BDE8704061
:104C6000FFF7D6B9502080F31188BFF34F8FBFF301
:104C70006F8FFEE78800002070B504003ED0226DE3
:104C8000A2B1E06C884200D30146E06A884235D088
:104C9000012A33D11A4D2A6894420FD1502080F353
:104CA0001188BFF34F8FBFF36F8FFEE7502080F363
:104CB0001188BFF34F8FBFF36F8FFEE7E162A269E8
:104CC000002A02DBC1F13801A1610E4E00EB800029
:104CD000616906EB8000814210D1201DFFF704FEC0
:104CE000E06A2969884200D9286100EB800006EB60
:104CF0008000211DBDE87040FFF746BE70BD00007A
:104D0000880000202408002030B587B000240394D8
:104D100005AA04A903A80494FFF7FAFDDDE903013D
:104D20000094CDE90110002315A11748059A00F061
:104D3000ECFC164D0028E8621FD000F09FFE012811
:104D400009D0401C19D1502080F31188BFF34F8F38
:104D5000BFF36F8FFEE7502080F31188BFF34F8FB2
:104D6000BFF36F8F4FF0FF30A86201206861EC60E5
:104D700007B0BDE8304000F045B807B030BD0000D6
:104D800049444C4500000000A9420008880000206A
:104D90000248016B491C0163704700008800002035
:104DA000164810B5016B11B10121C16110BD002180
:104DB000C1610169124A01E0B9B1491E01EB8103E9
:104DC00052F82330002BF7D001EB810302EB830272
:104DD00002F1080453685B685360A34201D15B6829
:104DE0005360DA680260016110BD502080F31188C1
:104DF000BFF34F8FBFF36F8FFEE7000088000020E6
:104E0000240800201CB537480168374A914207D171
:104E1000502080F31188BFF34F8FBFF36F8FFEE7F1
:104E200000683149491E884207D1502080F311881B
:104E3000BFF34F8FBFF36F8FFEE72C4908780190C7
:104E4000FF20087008788DF800009DF800009DF89C
:104E5000002000F0F000904207D0502080F311882D
:104E6000BFF34F8FBFF36F8FFEE79DF80000204C1C
:104E700000F0500020700720A06005E09DF80020A1
:104E800052008DF80020401E9DF800201206F5D437
:104E9000A060032807D0502080F31188BFF34F8F04
:104EA000BFF36F8FFEE74FF44070A0600198087069
:104EB0000C482030016841F470010160016841F044
:104EC00070410160FFF7D2FD00206060FBF7DCF964
:104ED0000848016841F040410160FBF7C1F900203A
:104EE0001CBD000000ED00E071C20F4100E400E0D5
:104EF000FC00002034EF00E010B5502080F3118852
:104F0000BFF34F8FBFF36F8F00F03EFC18B1044921
:104F10004FF080500860002080F3118810BD000021
:104F200004ED00E010B50C4648B184420FD9502082
:104F300080F31188BFF34F8FBFF36F8FFEE75020D0
:104F400080F31188BFF34F8FBFF36F8FFEE702220C
:104F5000002100F024F8002800D0846310BD38B58B
:104F60000C4648B184420FD9502080F31188BFF31A
:104F70004F8FBFF36F8FFEE7502080F31188BFF390
:104F80004F8FBFF36F8FFEE702211346002200917F
:104F9000114600F025F8002800D0846338BDF8B52C
:104FA00017460E46050013D005FB06F05030FFF7FC
:104FB000F9FB04000AD0002084F8460004F15002F6
:104FC0003B46314628460094FFF79EF92046F8BD3F
:104FD000502080F31188BFF34F8FBFF36F8FFEE730
:104FE00038B5049D18B153B1CAB181B120E0502049
:104FF00080F31188BFF34F8FBFF36F8FFEE7502010
:1050000080F31188BFF34F8FBFF36F8FFEE75020FF
:1050100080F31188BFF34F8FBFF36F8FFEE739B175
:10502000502080F31188BFF34F8FBFF36F8FFEE7DF
:1050300050241C46012384F846302B460094FFF789
:1050400063F9204638BD000070B50D46040025D038
:10505000FFF7A6FCD4E90F20216802FB0011A16034
:105060000021A163216861600A46D4E90F01401E56
:1050700000FB0121E16021464FF0FF3001F8440FB1
:10508000487004F110008DB1FFF758FC04F12400C2
:10509000FFF754FCFFF7A4FC012070BD502080F303
:1050A0001188BFF34F8FBFF36F8FFEE7216900298F
:1050B000F0D000F049FC0028ECD004494FF08050BB
:1050C0000860BFF34F8FBFF36F8FE3E704ED00E09D
:1050D0002DE9FF4782B01D468A464FF000080400C4
:1050E00003D0BAF1000F08D011E0502080F31188EE
:1050F000BFF34F8FBFF36F8FFEE7206C38B15020A6
:1051000080F31188BFF34F8FBFF36F8FFEE7022D3F
:105110000AD1E06B012807D0502080F31188BFF33B
:105120004F8FBFF36F8FFEE700F01AFB3F4F4FF03A
:1051300000094FF0805648B9049838B1502080F3E8
:105140001188BFF34F8FBFF36F8FFEE7FFF728FC87
:10515000A06BE16B884207D3022D05D00498D0B133
:10516000B8F1000F1AD01EE02A4651462046FFF73C
:1051700024F8616A19B104F1240000F0E5FB20B1C4
:105180003E60BFF34F8FBFF36F8FFFF729FC012005
:1051900006B0BDE8F087FFF723FC22E06846FFF782
:1051A00029FD4FF00108FFF71BFCFFF7F1FDFFF7AA
:1051B000F7FB94F94400401C01D184F8449094F921
:1051C0004500401C01D184F84590FFF709FC04A973
:1051D000684600F033FA30B12046FFF7ADFA00F030
:1051E000EBFB0020D4E7FFF7DBFBA06BE16B884211
:1051F00013D1FFF7F5FB04F110000499FFF708FD48
:105200002046FFF799FA00F0D7FB00289ED13E60B8
:10521000BFF34F8FBFF36F8F98E7FFF7E1FB204697
:10522000FFF78AFA00F0C8FB90E7000004ED00E009
:105230002DE9F0471F4690468946040003D0B9F196
:10524000000F08D011E0502080F31188BFF34F8F7A
:10525000BFF36F8FFEE7206C38B1502080F31188C8
:10526000BFF34F8FBFF36F8FFEE7022F0AD1E06BC2
:10527000012807D0502080F31188BFF34F8FBFF370
:105280006F8FFEE7FFF704FC5020EFF3118680F3E9
:105290001188BFF34F8FBFF36F8FA06BE16B884214
:1052A00006D3022F04D0002086F31188BDE8F087D2
:1052B00094F94550A06B3A4649462046FEF77DFFDB
:1052C000681C04D06D1C84F845500120ECE7606A2E
:1052D0000028FAD004F1240000F036FB0028F4D0B6
:1052E000B8F1000FF1D00121C8F80010EDE770B55A
:1052F0000E46040009D0206C78B1502080F311884C
:10530000BFF34F8FBFF36F8FFEE7502080F31188FC
:10531000BFF34F8FBFF36F8FFEE7206848B9A068D7
:1053200038B1502080F31188BFF34F8FBFF36F8FD8
:10533000FEE7FFF7ADFB5020EFF3118580F31188F6
:10534000BFF34F8FBFF36F8FA16BE06B884218D90B
:1053500094F94500491CA163411C04D0401C84F809
:10536000450001200EE0606A0028FAD004F1240014
:1053700000F0EAFA0028F4D0002EF2D001203060CC
:10538000EFE7002085F3118870BD00002DE9F74795
:10539000002683B08A46040003D0BAF1000F08D07B
:1053A00011E0502080F31188BFF34F8FBFF36F8F50
:1053B000FEE7206C38B1502080F31188BFF34F8F87
:1053C000BFF36F8FFEE700F0CBF9DFF8F4804FF00A
:1053D00000094FF0805748B9059838B1502080F344
:1053E0001188BFF34F8FBFF36F8FFEE7FFF7D8FA37
:1053F000A56BC5B151462046FEF7CCFE6D1EA563D8
:10540000206950B104F1100000F09EFA28B1C8F8EC
:105410000070BFF34F8FBFF36F8FFFF7E1FA0120EA
:1054200006B0BDE8F087059808B11EB106E0FFF7A9
:10543000D7FA27E06846FFF7DDFB0126FFF7D0FA31
:10544000FFF7A6FCFFF7ACFA94F94400401C01D129
:1054500084F8449094F94500401C01D184F84590AB
:10546000FFF7BEFA05A9684600F0E8F800282046D4
:105470000AD0FFF761F900F09FFA2046FEF7F0FF2F
:105480000028B3D00020CBE7FEF7EAFF90B104F18B
:1054900024000599FFF7BCFB2046FFF74DF900F00B
:1054A0008BFA0028A2D1C8F80070BFF34F8FBFF36A
:1054B0006F8F9BE72046FFF73FF900F07DFA95E7F5
:1054C00004ED00E02DE9F343002683B004003546E7
:1054D00009D0206C78B1502080F31188BFF34F8F32
:1054E000BFF36F8FFEE7502080F31188BFF34F8F1B
:1054F000BFF36F8FFEE700F033F9DFF83C814FF028
:1055000000094FF0805748B9049838B1502080F313
:105510001188BFF34F8FBFF36F8FFEE7FFF740FA9D
:10552000A06BC8B1401EA063206810B9FFF7A8F9AE
:10553000A060206950B104F1100000F005FA28B114
:10554000C8F80070BFF34F8FBFF36F8FFFF748FAB3
:10555000012005B0BDE8F083049808B166B10FE002
:105560003DB1502080F31188BFF34F8FBFF36F8F91
:10557000FEE7FFF735FA5DE06846FFF73BFB0126E3
:10558000FFF72EFAFFF704FCFFF70AFA94F944003C
:10559000401C01D184F8449094F94500401C01D18D
:1055A00084F84590FFF71CFA04A9684600F046F815
:1055B0000028204612D0FFF7BFF800F0FDF9204682
:1055C000FEF74EFF0028A9D09DB3FFF7E9F9606A06
:1055D00050B3206B0068C0F1380126E0FEF740FFB1
:1055E000E0B1206838B9FFF7DBF9A06800F070F986
:1055F0000546FFF7F5F904F124000499FFF708FBCD
:105600002046FFF799F800F0D7F9002886D1C8F8AE
:105610000070BFF34F8FBFF36F8F7FE72046FFF718
:105620008BF800F0C9F979E70021A068FFF724FBA7
:105630009FE7FFE700208CE704ED00E02DE9F04153
:105640000C46050011D0C4B1FFF7AAF9174BDA6870
:105650006E682068911B471C17D02F681B6A9F42F9
:1056600019D0964217D8012410E0502080F31188F9
:10567000BFF34F8FBFF36F8FFEE7502080F3118889
:10568000BFF34F8FBFF36F8FFEE70024FFF7A8F93A
:105690002046BDE8F081884205D9401A206028469E
:1056A000FFF7A8FAF1E700202060DCE7880000207F
:1056B0002DE9FF5F8346DDE90E87994616468A4647
:1056C0009000FFF76FF805001CD05C20FFF76AF828
:1056D000040014D00020256384F85900CDE902406D
:1056E000CDE900874B46324651465846FEF71EFE2E
:1056F0002046FEF7BBFC012004B0BDE8F09F284621
:10570000FFF782F94FF0FF30F6E7F0B585B0DDE93D
:105710000B640A9DA6B1DCB15C27009726630226C4
:1057200084F85960002604AFCDE90246CDE9005760
:10573000FEF7FCFD2046FEF799FC049805B0F0BD8D
:10574000502080F31188BFF34F8FBFF36F8FFEE7B8
:10575000502080F31188BFF34F8FBFF36F8FFEE7A8
:105760000548416919B1006B18B10020704701204C
:105770007047022070470000880000200148C06880
:1057800070470000880000202DE9F0412E4C0027D2
:10579000206B28B1A069401CA0613846BDE8F081AB
:1057A000E668761CE66013D1606B006838B1502063
:1057B00080F31188BFF34F8FBFF36F8FFEE7606BED
:1057C000A16B6163A063206A401C2062FEF734FF76
:1057D000A06ADFF87880864209D3606B0068A0B1C8
:1057E000606BC068C5686868864211D2A062206894
:1057F000C06A00EB800158F82100012800D9012778
:10580000E0690028C9D00127C7E74FF0FF30EDE776
:10581000281DFFF769F8A86A18B105F11800FFF70D
:1058200063F8E86A2169884200D9206100EB8001B1
:1058300008EB8100291DFFF7A7F8E86A2168C96A0B
:105840008842CAD30127C8E7880000202408002026
:1058500070B504004FF0000133D01B4D286884421E
:1058600007D0502080F31188BFF34F8FBFF36F8FA5
:10587000FEE7206D38B1401E2065E36CE26A9A4273
:105880001FD040B11DE0502080F31188BFF34F8F2F
:10589000BFF36F8FFEE7201DFFF726F8E06CE06294
:1058A000C0F13800A061E06A2969884200D9286106
:1058B000064900EB800001EB8000211DFFF764F832
:1058C0000121084670BD0000880000202408002047
:1058D00070B504004FF000002BD0194DE16A2A6822
:1058E000D26A914226D2A069002804DB2868C06AE7
:1058F000C0F13800A061134E01EB8101606906EB35
:105900008101884211D1201DFEF7EEFF2868C06A90
:10591000E0622969884200D9286100EB800006EB2B
:105920008000211DFFF730F802E02868C06AE062BD
:10593000012070BDE16C2A68D26A9142F8D370BD33
:10594000880000202408002070B5C068C46854B1E5
:1059500004F118000646FEF7C7FF144D286B50B13E
:105960003146134815E0502080F31188BFF34F8F64
:10597000BFF36F8FFEE7201DFEF7B6FFE06A2969CF
:10598000884200D928610B4900EB800001EB8000C0
:10599000211DFEF7F9FFE06A2968C96A884202D929
:1059A0000120E86170BD002070BD0000880000206B
:1059B000AC0C0020240800202DE9F0472C4D0024D9
:1059C0002746286B38B1FEF7EBFF286B401E286393
:1059D000286B40B146E0502080F31188BFF34F8F11
:1059E000BFF36F8FFEE7A968224E0120D1B3A6F561
:1059F000916980463068E0B1F068C46804F118002D
:105A0000FEF772FF201DFEF76FFFE06A29698842EA
:105A100000D9286100EB800109EB8100211DFEF710
:105A2000B3FFE06A2968C96A8842E3D3C5F81C80DD
:105A3000E0E70CB1FEF700FEAC694CB14FEA080696
:105A4000FFF7A2FE00B1EE61641EF9D10020A8614B
:105A5000E86938B10849012738070860BFF34F8F5C
:105A6000BFF36F8FFEF7BCFF3846BDE8F08700003C
:105A700088000020AC0C002004ED00E010B586B0DA
:105A8000FEF75CFB114C2068B8B100200390049035
:105A900005AA04A903A8FEF745FFDDE903210220BA
:105AA0008DE8070000230AA10B48059AFFF72DFE99
:105AB000606010B106B0012010BD502080F3118845
:105AC000BFF34F8FBFF36F8FFEE70000C4000020CD
:105AD000546D722053766300154700082DE9FF418D
