:020000040800F2
:1000000078230020AD020008D32600081924000838
:10001000D12600082D05000841310008000000002D
:10002000000000000000000000000000ED010008DA
:10003000030600080000000049020008212800080B
:10004000C7020008C7020008C7020008C70200086C
:10005000C7020008C7020008C7020008C70200085C
:10006000C7020008C7020008C702000831050008DF
:100070003D0500084905000855050008C7020008AD
:10008000C702000800000000C7020008C7020008FD
:10009000C7020008C7020008C7020008C70200081C
:1000A000C7020008C7020008C7020008C70200080C
:1000B000C7020008C7020008C7020008C7020008FC
:1000C000C7020008C7020008C7020008C7020008EC
:1000D000C7020008C70200082931000835310008AE
:1000E000C7020008C7020008C7020008C7020008CC
:1000F000B1280008C7020008C7020008000000007D
:1001000000000000C702000800000000C70200084D
:10011000C702000800000000C7020008C70200086C
:10012000C7020008C7020008C7020008C70200088B
:10013000C70200080000000000000000C70200081D
:10014000C7020008C702000800000000000000000D
:10015000000000000000000000000000000000009F
:10016000000000000000000000000000C7020008BE
:10017000C7020008000000000000000000000000AE
:1001800000000000C702000800000000000000009E
:10019000000000000000000000000000000000005F
:1001A0000000000000000000C7020008C7020008AD
:1001B000C7020008C7020008C702000800000000CC
:1001C00000000000C702000800000000000000005E
:1001D000C7020008C7020008DFF80CD000F0ECF8F6
:1001E00000480047A5360008782300202C4B1968EA
:1001F0000868B0E8F04F80F30988BFF36F8F4FF0C5
:10020000000080F311887047000000000848006873
:10021000006880F308884FF0000080F3148862B60D
:1002200061B6BFF34F8FBFF36F8F00DF00BF00BF1A
:1002300008ED00E0DFF80C00016841F47001016096
:10024000704700BF88ED00E0EFF30980BFF36F8FC8
:10025000134B1A681EF0100F08BF20ED108A20E91A
:10026000F04F106009B44FF0500080F31188BFF3D5
:100270004F8FBFF36F8F04F031FA4FF0000080F31F
:10028000118809BC19680868B0E8F04F1EF0100F1B
:1002900008BFB0EC108A80F30988BFF36F8F7047F6
:1002A00050000020EFF305807047000006488047AB
:1002B00006480047FEE7FEE7FEE7FEE7FEE7FEE74B
:1002C000FEE7FEE7FEE7FEE7A1280008D9010008E7
:1002D0002DE9F05F0546002092469B46884606467B
:1002E000814640241BE0284641464746224600F00E
:1002F00053F853465A46C01A914110D31146184636
:10030000224600F03AF82D1A67EB01084F462246C4
:100310000120002100F031F817EB00094E41201EAA
:10032000A4F10104DFDC484631462A464346BDE8D5
:10033000F09F40EA01039B0703D009E008C9121FA0
:1003400008C0042AFAD203E011F8013B00F8013B8F
:10035000521EF9D27047D2B201E000F8012B491EBB
:10036000FBD270470022F6E710B513460A46044652
:100370001946FFF7F0FF204610BD202A04DB203A83
:1003800000FA02F1002070479140C2F1200320FAE8
:1003900003F3194390407047202A04DB203A21FAE6
:1003A00002F00021704721FA02F3D040C2F120028E
:1003B0009140084319467047064C074D06E0E06837
:1003C00040F0010394E8070098471034AC42F6D39C
:1003D000FFF706FF3456000854560008012909D1DA
:1003E00088210B4A03280ED005DC012809D00228F9
:1003F00000D191617047042807D05528FAD1516285
:10040000704751617047D1617047116270470000B9
:10041000000000202DE9F047334C2078002500280B
:100420005FD0324890F80290017890F803A0B9F1BB
:10043000010F57D1012904D0032946D0042950D1F6
:1004400049E04178AA2904D029A002F07BFE25705A
:1004500047E0804600798608B00003F047F9074678
:10046000002041460AE000BF01EB8003DA88B3F8C0
:10047000073043EA024247F82020401CB042F3DB39
:1004800008EB860090F80780062000EB86011748ED
:1004900003F0C4F80646B0450AD1184897ED000AA3
:1004A00080ED010A25704946504603F0A9FE08E098
:1004B00013A002F047FE4246314614A002F042FE6D
:1004C0002570384603F0C6F80BE0257049465046C3
:1004D000FFF784FF05E0257004220849504602F02A
:1004E00053F92570BDE8F087360000207801002020
:1004F000484541445F4552524F520A0000000020D7
:100500004352435F4552524F520A00006372635F89
:1005100063616C203A307825582020206372635F35
:1005200046726D653A20307825580000FEE70000DD
:10053000014800F0EEB80000D4020020014800F0AD
:10054000E8B8000034030020014800F0E2B80000E1
:1005500094030020014800F0DCB80000F403002000
:100560000D4902688A4201D20C4901E00B49203151
:10057000D2B21423083AB2FBF3F2436C02F01F022A
:1005800023F003031944816404498031C1640121CB
:1005900091400165704700000804024000080240D5
:1005A0000179074A02EB81024265054A4432491E3D
:1005B000826501F01F0201219140C1657047000072
:1005C000FC08024030B5D0E913456560446D14B1B4
:1005D000D0E91645656090F8444004F01F050124F9
:1005E000AC40056C6C60046863608368102B036822
:1005F00003D099600068C26030BD9A600068C16035
:1006000030BD70470648016841F0807101600548BF
:1006100000214160016841F0010101607047000064
:10062000FCED00E0001000E072B6FEE710B590F8B7
:10063000253000210122022B03D00421C1630121B6
:1006400022E003681C6824F00E041C60836C1C68A4
:1006500024F480741C6003681C6824F001041C608E
:1006600090F84430046C03F01F0302FA03F3636054
:10067000D0E913345C60436D33B11C6824F480749A
:100680001C60D0E916345C6080F82520002280F8D8
:100690002420084610BD70B590F8252000240121C3
:1006A0002346022A07D00422C26380F8251080F86E
:1006B0002430012429E00268156825F00E05156034
:1006C0000268156825F001051560826C156825F42F
:1006D0008075156090F84420056C02F01F0201FA45
:1006E00002F26A60D0E913255560426D32B1156897
:1006F00025F480751560D0E91625556080F8251021
:1007000080F82430816B01B18847204670BDC06BF2
:100710007047F0B4016C0C6801680D6890F84420D3
:1007200002F01F06042202FA06F3234211D06B07DF
:100730000FD50B689B0603D40B6823F004030B60F2
:1007400090F8441001F01F018A40016C4A60016B6F
:100750001DE0022303FA06F727424FF0000C4FF08A
:10076000010218D0AF0716D50C68A40605D40C6892
:1007700024F00A040C6080F8252090F8441001F061
:100780001F018B40016C4B6080F824C0C16A0029B6
:100790001AD0F0BC08470823B340234214D02B07DB
:1007A00012D50B6823F00E030B6090F84410036C15
:1007B00001F01F0102FA01F15960C26380F825209F
:1007C00080F824C0416BE2E7F0BC704770B50400CC
:1007D0000CD02B4A21681420914209D2294A0A449C
:1007E000B2FBF0F08000606427480AE0012070BD91
:1007F000234A52420A44B2FBF0F080006064204871
:1008000008382064022084F825000A6847F6F07052
:100810008243D4E902031843D4E904352B43184337
:10082000A3691843E3691843236A18431043086017
:100830002046FFF795FEA0680025B0F5804F00D157
:100840006560A16C20790860D4E91301416060689B
:10085000401E032808D82046FFF7A2FE606D056001
:10086000D4E91601416002E06565A565E565E563CB
:10087000012084F8250084F82450002070BD000079
:1008800008040240F8FFFDBF0000024070B50446B6
:1008900090F82400002501280CD0012084F82400C1
:1008A00094F825600020012E06D084F8240002254B
:1008B000284670BD022070BD022684F82560E063E2
:1008C0002068066826F0010606602046FFF77AFEDB
:1008D000206B00282068016802D041F00E0106E07C
:1008E00021F0040101602068016841F00A01016003
:1008F000A06C0168C90303D5016841F480710160EF
:10090000606D18B1016841F4807101602068016870
:1009100041F001010160CBE72DE9F04FDFF82092B3
:10092000002301260324A9F1040B85B00F2709F148
:10093000040AABF1040EFAE006FA03F52A407CD073
:1009400091F804C00CF0030CBCF1010F02D0BCF113
:10095000020F26D1D0F808C0CDF800C04FEA430CF2
:1009600004FA0CF8CDF810C0DDF800C02CEA080C31
:10097000CDF800C0D1F80C80DDF810C008FA0CF8F2
:10098000DDF800C048EA0C08C0F80880D0F804C0C0
:100990002CEA050C0D79C5F300159D4045EA0C05C0
:1009A00045600D79ED43AD070ED0C5684FEA4308A9
:1009B00004FA08FC25EA0C05D1F808C00CFA08FC7A
:1009C0004CEA050CC0F80CC00D7905F00305022DAA
:1009D00016D1DD0800EB850CCDF808C0DCF82080CE
:1009E0005D074FEAD56C07FA0CF528EA05080D6992
:1009F00005FA0CF5DDF808C045EA0805CCF82050EA
:100A000005684FEA430CCDF808C004FA0CFC25EA4F
:100A10000C0591F804C00CF00308DDF808C008FAD2
:100A20000CF848EA0508C0F800804D6815F4403F0E
:100A30007CD0444DD5F860C000E077E04CF0010C6C
:100A4000C5F860C02D6E23F0030C05F0010500957C
:100A50003D4D65440295AD684FEA837C4FEA1C78B2
:100A600007FA08FC25EA0C05B0F1904F06D0DFF834
:100A7000DCC0604505D14FF0010C20E04FF0000CC8
:100A80001DE0DFF8CCC0604502D14FF0020C16E04B
:100A9000DFF8C0C0604502D14FF0030C0FE0DFF873
:100AA000B8C0604502D14FF0040C08E0DFF8ACC0DC
:100AB000604502D14FF0050C01E04FF0060C0CFA36
:100AC00008FC4CEA050C029DC5F808C0D9F8005096
:100AD000CC46D1F8048095435FEAC82800D5154379
:100AE000CCF80050DAF80050D446D1F80480954391
:100AF0005FEA882800D51543CCF80050DBF8005099
:100B0000DC46D1F8048095435FEA883800D5154368
:100B1000CCF80050DEF80050F446D1F8048095433C
:100B20005FEAC83800D51543CCF800505B1C0A6852
:100B300032FA03F57FF400AF05B0BDE8F08F000096
:100B40000804014000100240000001400004004879
:100B500000080048000C004800100048001400483D
:100B60000AB1816170478162704700000148806866
:100B7000704700004000002002488168426811442C
:100B8000816070474000002010B50024032000F071
:100B90009BF80F2000F008F808B1012401E000F0F4
:100BA00047F8204610BD000030B505461B4887B009
:100BB000016E41F400510166006E06A900F4005078
:100BC000009001A800F02AFB00F05AFB1449154AD6
:100BD000B0FBF1F11448491E0260416040F2E73277
:100BE0000021C0E90321816000F0E9FD040012D179
:100BF0000D4800F05DFE04000DD12C2000F036F809
:100C0000102D07D2002229462C2000F03DF807487D
:100C1000056000E0012407B0204630BD001002400E
:100C200040420F00003401405404002040000020E6
:100C30000D4808B5016E41F001010166016E01F039
:100C400001010091816D41F080518165806D00222C
:100C500000F0805000900F21901E00F015F8BDE8C4
:100C6000084000F0A1B8000000100240002809DB95
:100C700000F01F02012191404009800000F1E020B6
:100C8000C0F8001170470000F0B40E4B1B680C4612
:100C9000C3F30223C3F10705042D00D90425191D50
:100CA000072901D2002300E0DB1E012606FA05F128
:100CB000491E214099409E40761E16403143F0BCAB
:100CC00002F050BA0CED00E0064900F00702086897
:100CD0004FF6FF03184040EA0220034A1043086021
:100CE000704700000CED00E00000FA052B492C4B8A
:100CF0000A6832214A432B4940B1B0F5007F0868A9
:100D000029D020F4C06040F480602CE00868C0F373
:100D10004120022804D051F8800F20F4807022E096
:100D2000D1F8800020F48070C1F88000086820F4B9
:100D3000C06040F400700860B2FBF3F0401C00E0BB
:100D4000401E4A69520501D50028F9D1486940057D
:100D50000AD503207047C0F34120022806D051F87D
:100D6000800F40F48070086000207047D1F8800048
:100D700040F48070C1F88000086820F4C06040F43E
:100D800000700860B2FBF3F0401C00E0401E4A69AE
:100D90005205DBD50028F9D1D8E700004C0000202F
:100DA00040420F00007000400248816841F48041D9
:100DB00081607047007000402DE9F84304460068E8
:100DC00000269D4D00035ED5A86D0027C00008D405
:100DD000A86D40F08050A865A86D012700F08050F4
:100DE0000090DFF85892D9F8001041F48071C9F8EA
:100DF0000010FFF7BBFE804606E000BFFFF7B6FE1F
:100E0000A0EB080002282BD8D9F80000C005F5D5C2
:100E1000D5F8900010F4407014D0216C814211D0AC
:100E2000D5F89000D5F8901020F4407041F480314E
:100E3000C5F89010D5F8901021F48031C5F89010C5
:100E4000C5F89000C00711D0FFF790FE804641F230
:100E5000883907E0FFF78AFEA0EB0801494501D970
:100E600003260BE0D5F890008007F3D5D5F8900065
:100E7000216C20F440700843C5F890001FB1A86DA4
:100E800020F08050A8652078C00707D0D5F88800EA
:100E9000616820F003000843C5F8880020788007C7
:100EA00007D5D5F88800A16820F00C000843C5F8E4
:100EB00088002078400707D5D5F88800E16820F041
:100EC00030000843C5F888002078000707D5D5F81A
:100ED0008800216920F0C0000843C5F88800207808
:100EE000800607D5D5F88800616920F44060084382
:100EF000C5F888002078400607D5D5F88800A16994
:100F000020F440500843C5F888002078000607D533
:100F1000D5F88800E16920F440400843C5F888000E
:100F20002088C00507D5D5F88800216A20F4403014
:100F30000843C5F888002088800507D5D5F88800C3
:100F4000616A20F440200843C5F8880020884005E5
:100F50000FD5D5F88800A16A20F440100843C5F8E1
:100F60008800A06AB0F5801F03D1E86840F48010C3
:100F7000E860208800050FD5D5F88800E16A20F4E4
:100F800040000843C5F88800E06AB0F5800F03D13F
:100F9000E86840F48010E8602088C0040FD5D5F8D8
:100FA0008800216B20F040700843C5F88800206B52
:100FB000B0F1807F03D1E86840F48010E8602088B9
:100FC0004FF0006180040ED5D5F88800626B20F0E8
:100FD00040601043C5F88800606B884203D1E86820
:100FE00040F48010E860208840040ED5D5F88800D1
:100FF000A26B20F040601043C5F88800A06B8842C7
:1010000003D1E86840F48010E860208800040FD520
:10101000D5F88800E16B20F040500843C5F88800FF
:10102000E06BB0F1805F03D1E86840F48030E860A5
:101030003046BDE8F8830000001002400070004018
:101040002DE9F0470E4605004FF0000725D0DFF8E8
:10105000AC81D8F8000000F00F00B0420CD2D8F8F4
:10106000001021F00F013143C8F80010D8F800003B
:1010700000F00F00B04210D12968614CC80741F25E
:10108000883A5AD06868DFF87C91032808D0022893
:1010900020682DD0400500282CDB0120BDE8F0871A
:1010A00020688001F9D5E06800F00302E068C0F331
:1010B0000310401C032A19D0534A00BFB2FBF0F0C2
:1010C000E268C2F306225043E268C2F34162521C56
:1010D0005200B0FBF2F0484517D9A06810F0F00FAD
:1010E0000CD0880711D5A86840B10EE0474AE5E763
:1010F0008003D0E700F0D6F8484506D9A06820F074
:10110000F00040F08000A0608027A068696820F0AF
:1011100003000843A060FFF729FD814606E000BFF9
:10112000FFF724FDA0EB090151453AD8A068696892
:1011300000F00C00B0EB810FF2D12868810714D5C4
:10114000400703D5A06840F4E060A060287800075D
:1011500005D5A06820F4605040F4E060A060A0686D
:10116000A96820F0F000084304E0802F03D1A068B4
:1011700020F0F000A060D8F80010404601F00F0108
:10118000B14216D9016821F00F0131430160FFF728
:10119000EDFC074607E000BFFFF7E8FCC11B514527
:1011A00001D903207AE7D8F8000000F00F00B04220
:1011B000F2D12878400705D5A068E96820F4E060FE
:1011C0000843A0602878000706D5A068296920F4A4
:1011D000605040EAC100A06000F064F8A1680C4AC9
:1011E000C1F30311515C01F01F01C84009490860B7
:1011F00009480068BDE8F047FFF7D6BC0020024070
:101200000010024000B4C4040024F40000127A006C
:10121000005600084C000020400000200F22026011
:101220000C4A936803F003034360936803F0F003F0
:101230008360936803F4E063C36092684FF4E063F3
:1012400003EAD20202610448006800F00F0008605F
:101250007047000000100240002002400548064987
:1012600000688968054AC1F30221515C01F01F0141
:10127000C84070474C000020001002401056000883
:101280000548064900688968054AC1F3C221515CD6
:1012900001F01F01C84070474C00002000100240C0
:1012A00010560008184910B58868C0F38102174825
:1012B000012A0BD08A684310C2F38102022A06D0A9
:1012C0008A68C2F38102032A03D0002010BD1846A9
:1012D00010BDCA6802F00304CA68C2F30312521CAC
:1012E000032C02D0B0FBF2F001E0B3FBF2F0CA68CD
:1012F000C968C2F306225043C1F34161491C490049
:10130000B0FBF1F010BD0000001002400024F4001A
:101310002DE9F84304007AD02078F84DC00747D073
:10132000A868E96800F00C0001F003010C2802D065
:10133000082817D001E0032914D06068B0F5803F79
:1013400017D0B0F5A02F286817D020F4803028607F
:10135000286820F4802028606068E0B1FFF706FC70
:10136000064614E02868800322D560680028D2D0A1
:101370001EE0286840F48030EDE740F480202860CB
:10138000F7E700BFFFF7F2FB801B642870D82868DE
:101390008003F7D50CE0FFF7E9FB064605E000BF48
:1013A000FFF7E4FB801B6428F0D828688003F7D49B
:1013B000207880074CD5A868E96800F00C0001F09F
:1013C00003010C2802D004280DD001E002290AD024
:1013D000E068002828682BD040F480702860FFF770
:1013E000C5FB064619E02868400502D5E0680028DC
:1013F00091D06868217C20F0FE4040EA016068607E
:10140000BF480068FFF7D0FB002800D120E072E160
:10141000FFF7ACFB801B0228B8D828684005F7D539
:101420006868217C20F0FE4040EA016068600FE0BF
:1014300020F480702860FFF799FB064605E000BFA6
:10144000FFF794FB801B0228A0D828684005F7D43A
:101450002078000729D560690028D5F8940013D0BA
:1014600040F00100C5F89400FFF780FB064606E057
:1014700090E000BFFFF77AFB801B022886D8D5F8E2
:1014800094008007F6D510E020F00100C5F8940024
:10149000FFF76CFB064604E0FFF768FB801B0228A1
:1014A00078D8D5F894008007F6D42078400761D525
:1014B000A86D0026C00008D4A86D40F08050A86533
:1014C000A86D012600F0805000908E480168C90583
:1014D00011D40168804641F480710160FFF746FB3A
:1014E000074604E0FFF742FBC01B022852D8D8F899
:1014F0000000C005F6D5A068012815D00528D5F84C
:10150000900016D020F00100C5F89000D5F89000AA
:1015100020F00400C5F89000A06841F28838B8B106
:10152000FFF724FB07460EE0D5F8900040F00100DD
:10153000F0E740F00400C5F89000F5E7FFF716FB70
:10154000C11B414526D8D5F890008007F6D50CE0A0
:10155000FFF70CFB074604E0FFF708FBC11B414502
:1015600018D8D5F890008007F6D41EB1A86D20F0E9
:101570008050A8652078800629D5A0690028D5F874
:10158000980013D040F00100C5F89800FFF7EEFA7C
:10159000064606E075E000BFFFF7E8FA801B022868
:1015A0006FD8D5F898008007F6D510E020F001003C
:1015B000C5F89800FFF7DAFA064604E0FFF7D6FA16
:1015C000801B02285DD8D5F898008007F6D4E06922
:1015D000F0B3A968C1F3810103295DD0022828680E
:1015E00020F08070286003D0FFF7C0FA04464BE07B
:1015F000FFF7BCFA064604E0FFF7B8FA801B0228A2
:101600003FD828688001F7D4F4E908016FF00F0291
:1016100002EB01110843218A5204490802EB4151AF
:10162000A26841EA02210843217D4FF07E42490829
:1016300002EB41610843217B40EAC160E968324A1C
:1016400011400843E860286840F08070286000E09E
:101650005EE0E86840F08070E860FFF787FA0446D3
:1016600005E000BFFFF782FA001B022809D82868AE
:101670008001F7D54CE000BFFFF778FA001B022885
:1016800002D90320BDE8F88328688001F4D4E86813
:101690001E490840E8603BE00128F3D0E868226A70
:1016A00000F00301914226D1616A00F0F0020901C5
:1016B000103991421FD1A26A00F4FE41B1EB022F12
:1016C00019D194F82C2000F07841B1EBC26F12D1FF
:1016D000218E00F4C00249084905A1F5001191428C
:1016E00009D194F8341000F0C06049084906A1F10E
:1016F000007181420CD00120C4E7000000100240BC
:1017000040000020007000400C809F01FCFFEEFEB6
:101710000020B7E7704770477047704770477047C1
:10172000F0B590F83C20012A3AD0012580F83C50D1
:10173000022280F83D2003685A689C68194E1A4FAF
:10174000B34201D0BB4204D122F4700C4A6842EA91
:101750000C02DFF858C002EA0C02D1F800C04CEAD3
:10176000020CC3F804C00268B2420DD0B2F1804F3F
:101770000AD00F4B9A4207D00E4B9A4204D0BA427D
:1017800002D00D4B9A4204D1896824F0800319439A
:10179000916080F83D50002180F83C100846F0BD73
:1017A0000220F0BD002C0140003401408FFFFFFDFE
:1017B000000400400008004000400140704710B5A0
:1017C000040003D094F83D0010B107E0012010BDE3
:1017D000002084F83C00204600F022F8022084F823
:1017E0003D00211D206801F069F8012084F84800BF
:1017F00084F83E0084F83F0084F8400084F84100FB
:1018000084F8420084F8430084F8440084F84500DA
:1018100084F8460084F8470084F83D00002010BD9D
:1018200008B50068B0F1804F08D10548816D41F0DE
:1018300001018165806D00F00100009008BD00008D
:101840000010024090F83D10012901D0012070479E
:10185000022180F83D1000680F4988420ED0B0F197
:10186000804F0BD00D49884208D00D49884205D0E1
:101870000C49884202D00C49884207D181680B4A42
:101880001140062906D0B1F5803F03D0016841F030
:101890000101016000207047002C0140000400405D
:1018A00000080040003401400040014007000100F2
:1018B00090F83D10012901D001207047022180F8E5
:1018C0003D100168CA6842F00102CA600068104910
:1018D00088420ED0B0F1804F0BD00E49884208D01C
:1018E0000D49884205D00D49884202D00C498842F2
:1018F00007D181680B4A1140062906D0B1F5803F17
:1019000003D0016841F00101016000207047000030
:10191000002C014000040040000800400034014059
:10192000004001400700010070B5044690F83C00FB
:101930000025012814D0012684F83C60022084F898
:101940003D0022689068364B184020F47F4090603C
:10195000086870282ED010DC10F00F0F03D021E0A3
:101960004FF0020070BD4FEA2012072A1AD2DFE8BA
:1019700002F0525252524A3840002A4BC21A984240
:1019800049D009DCB0F5805F0DD0B0F5005F1CD008
:10199000B0F1101F06D13EE0102A3CD0202A3AD0E8
:1019A000502A38D0012584F83D60002084F83C009E
:1019B000284670BDCB68D1E90121206800F0DCFF2A
:1019C0002068816841F0770109E0CB68D1E9012105
:1019D000206800F0D1FF2068816841F48041816077
:1019E000E1E7CA684968206800F0DAFF5021206802
:1019F00006E0CA684968206800F0E3FF60212068BB
:101A000000F0C4FFCFE7CA684968206800F0C8FF4B
:101A100040212068F4E7226801461046F0E7000004
:101A200088FFCEFF2000100070472DE9F0410446EA
:101A30000068C66805694FF00007A90713D5B1070C
:101A400011D5F91E01610120207720688069800787
:101A5000204602D0FFF7E8FF04E000F0B7F8204688
:101A600000F0B5F82777680716D5700714D52168F8
:101A70006FF004000861022020772068806910F46C
:101A8000407F204602D0FFF7CFFF04E000F09EF831
:101A9000204600F09CF82777280715D5300713D586
:101AA00021686FF008000861042020772068C06971
:101AB0008007204602D0FFF7B7FF04E000F086F869
:101AC000204600F084F82777E80616D5F00614D5EE
:101AD00021686FF010000861082020772068C06935
:101AE00010F4407F204602D0FFF79EFF04E000F094
:101AF0006DF8204600F06BF82777E80708D0F0076C
:101B000006D021686FF001000861204600F060F8FF
:101B1000280601D4A80408D5300606D521686FF43C
:101B2000025008612046FFF7F6FDE80508D53006AB
:101B300006D521686FF4807008612046FFF7EAFD42
:101B4000680608D5700606D521686FF04000086168
:101B5000204600F047F8A80608D5B00606D521684B
:101B60006FF0200008612046FFF7D6FDE80208D597
:101B7000F00206D521686FF4801008612046FFF757
:101B8000CDFDA80208D5B00206D521686FF400107B
:101B900008612046FFF7C1FD680208D5700206D52E
:101BA00021686FF4800008612046FFF7B8FD280225
:101BB0000AD5300208D521686FF40000086120467C
:101BC000BDE8F041FFF7FABDBDE8F081704770470E
:101BD00000680349884201D1FEF7CEBF704700007C
:101BE00000340140704790F88410012918D0012179
:101BF00080F884102421C0F8881001680A680B68F6
:101C000023F001030B6022F00051002242660368BA
:101C100019602021C0F8881080F884201046704791
:101C20000220704710B50446D0F88C00202801D05F
:101C3000022010BD61B15AB10120E066002020678A
:101C4000204601F0D3F90028F3D1E16E012901D03B
:101C5000012010BD226810211162226852E8001F85
:101C600041F0100142E80013002BF6D110BD000036
:101C70002DE9F04105462048204C01270E468542BB
:101C800016D100F08EF81C49A6808839677032465C
:101C900001F11000FEF74DFB174800218838102293
:101CA000016041608160C16001468830FFF7BAFF82
:101CB0001148943085421CD100F073F80E49324629
:101CC000683901F13400FEF734FBA7700A4834216B
:101CD0006838FEF747FB0A48006808B101F0C4FD08
:101CE000BDE8F04104493422683901F1FC00FFF7F6
:101CF00099BFBDE8F0810000AC0100203400002055
:101D000030000020704770B5044690F88400012828
:101D10001DD0012084F884002420C4F888002068A5
:101D20000568026822F0010202602068826822F0E1
:101D300060620A438260204600F056FE206805601B
:101D40002020C4F88800002084F8840070BD0220A0
:101D500070BD70B5044690F8840001281DD00120A4
:101D600084F884002420C4F888002068056802688C
:101D700022F0010202602068826822F060420A4379
:101D80008260204600F030FE206805602020C4F804
:101D90008800002084F8840070BD022070BD704768
:101DA000704770B50446D0F88800D4F88C6021687C
:101DB00089684FF01005090618D5212816D120682A
:101DC000083050E8001F21F0800140E80012002A8E
:101DD000F5D1E06F38B1FEF729FC20B1E06FFEF7D6
:101DE00096FC202823D0204600F0AEFF20688068B3
:101DF00040061AD5222E18D12068083050E8001F5E
:101E000021F0400140E80012002AF5D1D4F880000A
:101E100040B1FEF70BFC28B1D4F88000FEF777FC48
:101E2000202804D0204600F065FF002070BDC4F8D3
:101E30009050032070BD70472DE9F04103680446BF
:101E4000D86919689A6840F60F0528424FF00005D6
:101E50004FF002060AD187067ED501F0200702F076
:101E6000805C57EA0C0777D0616F42E1B64FDFF82C
:101E7000DCC2174001EA0C0C57EA0C0C6CD05FEA8C
:101E8000C07C0CD05FEAC15C09D54FF0010CC3F8EF
:101E900020C0D4F8903043F00103C4F89030830799
:101EA00009D5D30707D023681E62D4F8903043F0D9
:101EB0000403C4F8903043070AD5D30708D0266836
:101EC00004233362D4F8903043F00203C4F8903016
:101ED00003070CD501F020033B4308D026680823F4
:101EE0003362D4F8903043F00803C4F8903003050F
:101EF0000BD54B0109D526684FF400633362D4F843
:101F0000903043F02003C4F89030D4F89030002B88
:101F10003DD0800609D501F0200002F08051084331
:101F200003D0616F09B120468847D4F8900021683A
:101F30008968490602D410F0280F2AD0204600F004
:101F4000D9FE2068806840061ED52068083050E819
:101F5000001F21F0400100E021E040E80012002ACB
:101F6000F3D1D4F8800078B179498163D4F8800046
:101F7000FEF791FB00280AD0D4F88000816B00E0C6
:101F80002046BDE8F04108472046FFF754FFBDE872
:101F9000F0812046FFF74FFFC4F89050F7E7D4F8E0
:101FA0006CC02027BCF1010F7ED15FEAC06C7BD5ED
:101FB0005FEAC16C78D510201862206880684006FE
:101FC00051D5D4F880100A6850680004000C3ED047
:101FD000B4F85C3083423AD9A4F85E00086800681F
:101FE00080062CD4216851E8000F20F4807041E86D
:101FF0000002002AF6D12068083050E8001F21F0C6
:10200000010140E80012002AF5D12068083050E8AC
:10201000001F21F0400140E80012002AF5D1C4F869
:102020008C70E566216851E8000F20F0100041E84F
:102030000002002AF6D1D4F88000FEF7F7FA2667EE
:10204000B4F85C00B4F85E10401A81B207E0B4F84E
:102050005C1081429BD11068800698D52667204687
:10206000FFF706FE93E7B4F85C00B4F85E10401A80
:1020700081B2B4F85E00002889D0002987D0226898
:1020800052E8000F20F4907042E80003002BF6D1D4
:102090002D4BDB432068083050E8002F1A4040E801
:1020A000002CBCF1000F00E00EE0F3D1C4F88C70FE
:1020B000E5666567206850E8002F22F0100240E8CE
:1020C0000023002BF6D1C9E7C60209D5560207D571
:1020D0004FF4801018622046BDE8F041FFF760BE63
:1020E00003060AD501F0800302F40002134304D072
:1020F000A16F00297FF444AF49E7420611D54A0693
:102100000FD52046016851E8002F22F0400241E837
:102110000023002BF6D1C0F88870856700F07AF9AB
:1021200035E7020206D54A0004D52046BDE8F04155
:10213000FFF735BEC00195D5002993DA2046BDE8EA
:10214000F041FFF7DFBD0000010000102001000496
:10215000A12B000810B5040003D0D4F8880010B1FA
:1021600007E0012010BD002084F88400204600F024
:1021700027F82420C4F888002068016821F00101B4
:102180000160A06A10B1204600F050FC204600F02B
:10219000F3FD0128E6D02068416821F490414160B8
:1021A0002068816821F02A0181602068016841F07F
:1021B000010101602046BDE8104000F09BBC00001A
:1021C0002DE9F04F97B00446142111A8FEF7CAF884
:1021D00044216846FEF7C6F862492068624EDFF87F
:1021E0008CB1022700254FF007084FF0100A4FF07E
:1021F0008009884254D1684600970295FEF7DCFDBD
:1022000008B1FEF711FAB06D40F40030B065B06D62
:1022100000F400301690F06C40F00200F064F06CB6
:10222000CDE9127500F0020016901820CDE914587F
:10223000119011A95846FEF76FFB4E4E4C484F4681
:1022400030601A20C6E90105C6E903597561B56118
:10225000F56130463562FEF7B9FA08B1FEF7E4F9E8
:10226000C4F88060B462434E414860361430306038
:10227000C6E903577561B561F5611B203562C6E992
:10228000010A3046FEF7A2FA08B1FEF7CDF9E6677B
:10229000002205212620B462FEF7F6FC26205BE032
:1022A000354988425AD10420009003956846FEF7CC
:1022B00083FD08B1FEF7B8F9B06D40F48020B06539
:1022C000B06D00F480201690F06C40F00200F064D5
:1022D000F06CCDE9127500F0020016904FF44060EA
:1022E000CDE91458119011A95846FEF715FB214E5F
:1022F0001F48C036283030601C20C6E90105C6E9F9
:10230000035975614FF44050B561C6E907504F4617
:102310003046FEF75BFA08B1FEF786F9C4F8806034
:10232000B4621348154E3C303060C6E903577561FE
:10233000B561F5611D203562C6E9010A3046FEF738
:1023400045FA08B1FEF770F9E6670022052127205B
:10235000B462FEF799FC2720FEF788FC17B0BDE8B1
:10236000F08F0000004400400010024000040048CC
:1023700008000240D402002000480040F40300207E
:102380007047704770B50446D0F88800202801D007
:10239000022070BD39B332B32165A4F85420A4F8EB
:1023A00056200021C4F890102120C4F88800E06F66
:1023B000D8B1154BC362E36F14481863E36F144838
:1023C0005863E06F134681632068E56F00F12802CF
:1023D0002846216DFEF75AFA38B11020C4F8900053
:1023E0002020C4F88800012070BD216840200862C8
:1023F0002068083050E8001F41F0800140E80012DA
:10240000002AF5D1002070BDA72C0008E92C000897
:10241000B12B000870477047FEE700000A4A01210F
:10242000117001680A6822F004020A60BFF34F8F3E
:10243000BFF36F8F00680168490703D5016821F079
:10244000040101607047000034000020194808B5FD
:10245000816C41F004018164816C01F00401009100
:10246000816C41F001018164806C002200F0010068
:10247000009005210B20FEF707FC0B20FEF7F6FB72
:10248000002205210C20FEF7FFFB0C20FEF7EEFBDF
:10249000002205210D20FEF7F7FB0D20FEF7E6FBDD
:1024A000002205210E20FEF7EFFBBDE808400E20BC
:1024B000FEF7DCBB0010024010B501210A4A0846B5
:1024C00001F086F9094C084A0021A060483A084802
:1024D00001F0F6F9044A2060243A0021054801F091
:1024E000EFF9606010BD0000C8550008280000200A
:1024F000FB2700080528000810B586B0142168469F
:10250000FDF730FF1548C16C41F02001C164C16C7A
:1025100001F020010591C16C41F00201C164C16C60
:1025200001F002010591C16C41F00101C164C06C70
:102530000B4C00F001000590002240212046FEF7E0
:102540000FFB4020009001200021CDE90101039103
:1025500069462046FEF7E0F906B010BD00100240C3
:102560000004004810B588B0002416480094019477
:1025700002940394049405944FF080410694016002
:10258000A921C0E90114611EC0E903148461FFF7A9
:1025900016F908B1FEF748F84FF4805000906946EC
:1025A0000848FFF7C1F908B1FEF73EF8049404A902
:1025B00004480694FFF7B4F8002801D0FEF734F879
:1025C00008B010BDD80000201C4810B51A490160A1
:1025D0001B494160002181600C22C160C0E90412E6
:1025E0008161C161016241628162FFF7B3FD08B19F
:1025F000FEF71AF800211148FFF7ABFB08B1FEF710
:1026000013F800210D48FFF77EFB08B1FEF70CF828
:102610000A48FFF7E8FA08B1FEF706F80749102262
:1026200088390648FFF7FEFA06480068016821F07D
:102630000401016010BD000000440040AC01002016
:1026400020A10700D40200201E4810B51C490160DB
:102650001D494160002181600C22C160C0E9041263
:102660008161C161016241628162FFF773FD08B15E
:10267000FDF7DAFF00211348FFF76BFB08B1FDF708
:10268000D3FF00210F48FFF73EFB08B1FDF7CCFF59
:102690000C48FFF7A8FA08B1FDF7C6FF0949342234
:1026A000FC390848FFF7BEFA08480068016821F0C5
:1026B00004010160BDE810400448FFF7AFBE000010
:1026C000004800404002002000093D009403002023
:1026D000FEE7FEE72DE9F05F284E17468A4683465F
:1026E000012240213046FEF73BFA52465946244823
:1026F000FFF748FEDFF88880D8F888002028FBD153
:10270000002240213046FEF72BFA4FF08040416A0C
:1027100057B3C14600251B4C804623E02078012892
:1027200029D0012240213046FEF71AFA5246594676
:102730001348FFF727FE4846D0F888102029FBD120
:10274000002240213046FEF70BFAD8F8241040460C
:1027500001F5FA6102E02278012A0CD0426A8A422D
:10276000F9D96D1CBD42D9DB3046BDE8F05F0022CF
:102770004021FEF7F5B9BDE8F09F000000040048D5
:1027800040020020360000202DE9F047154689461A
:10279000804600F039FF042000EB4506AF007000D2
:1027A00000F0A4FF4AF60121018048F480714180C5
:1027B00004468780002107E059F8212004EB8103BB
:1027C000170CDF801A81491CA942F5DBA900891D7D
:1027D00000F024FFBB2141EA002004EB8501012227
:1027E000C8804FF6FF7000EA46012046FFF772FFEF
:1027F0002046BDE8F04700F02DBF012000F0ACFFFF
:10280000FBE70000054D4FF0FF342146A86802F0B9
:10281000F7FA0128F9D1FDF7FDFDF6E728000020C1
:1028200010B54FF0E020006902F038FC012803D019
:10283000BDE8104001F0FEBF10BD10B594B03821C6
:102840006846FDF78FFD14210EA8FDF78BFD0020D3
:10285000FEF74CFA012000900004019002200324AE
:10286000CDE907045521CDE909010B900C900D909D
:102870006846FEF74DFD08B172B6FEE70F20CDE9C0
:102880000E04002010901190129004210EA8FEF763
:10289000D7FB002801D072B6FEE714B010BD0000CF
:1028A0000248016841F470010160704788ED00E062
:1028B0000148FFF7BAB80000540400202DE9F043A6
:1028C0000268264B264D274E274C4FF080499842F0
:1028D00007D0484505D0A84203D0B04201D0A0425D
:1028E00003D122F070074A683A43204FDFF880C0D6
:1028F000DFF8808098420DD048450BD0A84209D01F
:10290000B04207D0A04205D0B84203D0604501D004
:10291000404503D122F44075CA682A434D6922F02C
:1029200080022A4302608A68C2620A688262984210
:1029300007D0A04205D0B84203D0604501D0404541
:1029400001D109690163012141610169C90703D00E
:10295000016921F001010161BDE8F083002C014013
:1029600000040040000800400034014000400140E5
:10297000004401400048014010B5846842EA032247
:1029800024F47F440A432243826010BD8268034BD3
:102990001A400A4342F00701816070478FFFCFFF62
:1029A00010B5036A046A24F001040462846924F007
:1029B000F00444EA021423F00A020A43846102622A
:1029C00010BD10B5036A046A24F01004046284691F
:1029D00023F0A00324F4704444EA023243EA0111D4
:1029E0008261016210BD000030B5416EB9B102686C
:1029F00091689268C1F342610B4B520F9C5CE500F9
:102A000003F10804A25CB5FBF2F2A0F86A205A5C5C
:102A1000615CD200B2FBF1F1A0F8681030BD012179
:102A2000A0F86A10F8E70000F055000890F82810A8
:102A3000090706D501684A68836B22F400421A43ED
:102A40004A6090F82810C90706D001684A68C36A2E
:102A500022F400321A434A6090F82810890706D5FC
:102A600001684A68036B22F480321A434A6090F886
:102A70002810490706D501684A68436B22F4802272
:102A80001A434A6090F82810C90606D501688A687A
:102A9000C36B22F480521A438A6090F8281089068A
:102AA00006D501688A68036C22F400521A438A60D2
:102AB00090F82810490611D501684A68436C22F441
:102AC00080121A434A60416CB1F5801F06D101683B
:102AD0004A68836C22F4C0021A434A6090F82810B6
:102AE000090606D501684A68C06C22F40022024338
:102AF0004A6070472DE9F84300260446C0F890600C
:102B0000FEF734F88046206800684FF02005000783
:102B10006FF07E4713D543460022290420460097D4
:102B200000F0B8FA58B1216851E8000F20F0800099
:102B300041E80002002AF6D1C4F8885021E020685C
:102B40000068400722D5434600224FF4800120460A
:102B5000009700F09FFAC8B1216851E8000F20F4F7
:102B6000907041E80002002AF6D12068083050E851
:102B7000001F21F0010140E80012002AF5D1C4F83D
:102B80008C5084F884600320BDE8F883C4F8885032
:102B9000C4F88C5044F86C6F666026760020F3E72A
:102BA00010B5806A0021A0F85E10FFF744F910BD4F
:102BB00070B5846AD4F88800D4F88C50216889688C
:102BC0004FF00006090606D5212804D1A4F8566066
:102BD000204600F0B9F820688068400606D5222D0E
:102BE00004D1A4F85E60204600F084F8D4F8900088
:102BF00040F01000C4F890002046FFF71CF970BDAB
:102C000010B50146806A096809684FF0000289061C
:102C10002DD4A0F85E20036853E8001F21F48071D2
:102C200043E80014002CF6D10168083151E8003F58
:102C300023F0010341E80034002CF5D1016808318C
:102C400051E8003F23F0400341E80034002CF5D167
:102C50002021C0F88C10C16E012908D1016851E80B
:102C6000003F23F0100341E80034002CF6D1026746
:102C7000C16E012902D0FFF783FB10BDB0F85C10D4
:102C8000FEF7F6FF10BD10B5806A01210167C16E25
:102C9000012902D0FFF775FB10BDB0F85C104908A0
:102CA000FEF7E6FF10BD10B50146806A09680968A5
:102CB000890616D40021A0F856100168083151E8A1
:102CC000002F22F0800241E80023002BF5D102689A
:102CD00052E8001F41F0400142E80013002BF6D1FA
:102CE00010BDFFF797FB10BD10B5806AFFF793FB8F
:102CF00010BD000010B5026852E8001F21F4907169
:102D000042E80013002BF6D10E4B0268083252E85D
:102D1000001F194042E80014002CF6D1C16E0129B1
:102D200008D1016851E8002F22F0100241E8002389
:102D3000002BF6D12021C0F88C100021C16641671C
:102D400010BD0000FEFFFFEF026852E8001F21F0F7
:102D5000C00142E80013002BF6D10168083151E8A8
:102D6000002F22F4000241E80023002BF5D120219E
:102D7000C0F88810704700002DE9F0410446016852
:102D800080682269E3691043626900251A43104391
:102D9000DFF82CC20A688B4B1A4002430A60206895
:102DA0004168E26821F44051114341602168A06903
:102DB000614501D0226A10438A68834B1A4002435E
:102DC0008A602068C16A626A21F00F011143C16202
:102DD0007E4923687E488B420DD1D0F8880010F0E0
:102DE000030006D0012855D0022842D003283FD145
:102DF00052E001203DE077498B420BD1D0F88800AA
:102E000010F00C0035D0042833D0082840D00C280E
:102E10002ED141E070498B420BD1D0F8880010F0E0
:102E2000300026D0102835D0202831D030281FD1AE
:102E300032E06A498B420BD1D0F8880010F0C00014
:102E400017D0402826D0802822D0C02810D123E0D7
:102E500063450DD1D0F8880010F4406009D0B0F57A
:102E6000806F17D0B0F5006F12D0B0F5406F13D05F
:102E700010205B495B4F00264FF4004263453BD175
:102E800060B1022813D004280BD0082872D10DE0BD
:102E90000220EEE70420ECE70820EAE7FEF7DEF97F
:102EA00001E0FEF7FFF9010001D17CE01146606A04
:102EB00037F810206768B1FBF2F007EB4703834255
:102EC00070D8B0EB073F6DD8002308461946FDF7D0
:102ED000FFF9090241EA10610202780810187141F5
:102EE0003A460023FDF7F4F93F4AA0F540719142BC
:102EF00058D82168C86056E0E3694FF6EF789342EE
:102F00002CD109284ED2DFE800F00508114D0D4DF7
:102F10004D4D1000FEF7A2F901E0FEF7B1F90100F6
:102F200004D140E0FEF7BEF9F9E71146606A37F8D0
:102F30001000B1FBF0F04100606801EB5001B1FB03
:102F4000F0F0A0F1100141452CD84FF6F07101408E
:102F5000C0F3420001432068C16024E0092821D267
:102F6000DFE800F0050912200E2020201100FEF7F6
:102F700075F902E016E0FEF783F9010004D112E0D2
:102F8000FEF790F9F9E71146606A37F81000B1FBD7
:102F9000F0F1606801EB5001B1FBF0F0A0F110011D
:102FA00041450AD901250120A4F86A0024F8680FD8
:102FB0002846E6602661BDE8F08180B299E700000E
:102FC00000800040F369FFCFFFF4FF11003801409B
:102FD000001002400044004000480040004C004007
:102FE0000024F400D8550008FFFC0F0070B581657F
:102FF000A0F85C2000210446C0F890102220C4F8FC
:103000008C00D4F88000F0B11F4BC362D4F880303C
:103010001E481863D4F880301D485863D4F88000E7
:1030200013468163A56D21682A462431D4F88000B7
:10303000FDF72CFC38B11020C4F890002020C4F813
:103040008C00012070BD206940B1216851E8000F5B
:1030500040F4807041E80002002AF6D12068083070
:1030600050E8001F41F0010140E80012002AF5D1AC
:103070002068083050E8001F41F0400140E800128D
:10308000002AF5D1002070BD012C0008872C000813
:10309000B12B00082DE9F047994617460D46044626
:1030A0004FF00008089E33E0701C31D0FDF75EFD44
:1030B000A0EB0900B04218D8BEB1206801684907EA
:1030C00026D5802D24D0402D22D0C169C9430907BF
:1030D0000DD4082505622046FFF70CFEC4F8905079
:1030E00084F884800120BDE8F0870320FBE7C069F5
:1030F000C04300050CD421684FF4006008622046EC
:10310000FFF7F8FD2020C4F8900084F88480ECE7F5
:103110002068C06935EA000004D00020B842C3D05E
:103120000020E0E70120F9E70148FEF785BE000036
:10313000AC0100200148FEF77FBE000040020020E5
:10314000FEE700000FB4054B10B503A9044A02982E
:1031500000F028F810BC5DF814FB00003D360008B4
:103160003C0000200907090E002804DB00F1E020E4
:1031700080F80014704700F00F0000F1E02080F8A4
:10318000141D704702E008C8121F08C1002AFAD1B6
:1031900070477047002001E001C1121F002AFBD1D7
:1031A000704700002DE9FF4F8DB00F460546002601
:1031B00006E025280BD0DDE90F1290476D1C761C28
:1031C00028780028F5D111B03046BDE8F08F0024F2
:1031D000A246A1460122EC4900E0044315F8013F54
:1031E000203B02FA03F00842F7D128782A2810D0B1
:1031F0006FF02F022878A0F13001092914D80AEBCA
:103200008A0102EB410144F0020400EB010A6D1C4B
:10321000F0E701CF5FEA000A03D544F40054CAF195
:10322000000A44F002046D1C28782E2817D115F8E6
:10323000010F44F004042A280ED06FF02F022878E2
:10324000A0F1300109290AD809EB890102EB4101FB
:1032500000EB01096D1CF2E757F8049B6D1C287800
:103260006C280FD006DC4C2817D068280DD06A28AF
:1032700014D104E0742810D07A280FD10DE044F462
:1032800000140AE044F4801401E044F44014697826
:10329000814202D104F580146D1C6D1C2A786E2ABF
:1032A0001FD00CDC632A31D004DC002A8BD0582AD2
:1032B00011D1A3E0642A68D0692A0CD165E0732A91
:1032C0002ED004DC6F2A73D0702A04D19BE0752ABB
:1032D0006FD0782A6ED01046DDE90F129047761C29
:1032E00050E1C4F30250022806D0032809D0042874
:1032F00001CF09D0066045E101CFF117C0E90061B7
:1033000040E101CF06803DE106703BE117F8040B78
:103310008DF8000000208DF80100EB46012003E04D
:1033200057F804BB4FF0FF3061074FF0000102D4A3
:103330000DE008F10101884649450FDA8045F8DBC8
:103340001BF808100029F4D108E008F101018846B3
:103350008142FADB1BF808100029F6D1DDE90F23C2
:10336000AAEB08008146214600F036F9304400EB14
:10337000080604E0DDE90F121BF8010B9047B8F1D5
:103380000108F7D221464846F7E00A21C4F3025368
:103390004FF0000B0891022B04D001CFC117032B73
:1033A00009D00AE0FF1D27F00707F7E8020108E04F
:1033B00032E01FE020E000B2C117042B01D140B27F
:1033C000C117031E71F1000307DA4FF0000CD0EBB8
:1033D0000C006CEB01012D2302E0230504D52B2307
:1033E0008DF82430012303E0E30701D02023F7E721
:1033F000984658E00A2110E010210EE010204FF00E
:10340000000B08900CE010214FF0000B44F0040476
:103410004FF00809089103E008214FF0000B0891D4
:10342000C4F30253022B04D001CF0021032B06D09A
:1034300006E0FF1D27F00707F7E8020103E080B26E
:10344000042B00D1C0B24FF0000823072BD5702AFF
:1034500007D0DDF820C08CF0100C5CEA0B0C05D016
:103460000EE040238DF82430012308E050EA0103E8
:1034700006D030238DF824308DF82520022398467D
:10348000DDF820C08CF0080C5CEA0B0C0BD150EA84
:10349000010301D1630706D530238DF824304FF0A6
:1034A0000108A9F10109582A04D038A20B9208AAF0
:1034B0000A920BE03AA2F9E75B46089AFCF708FF8C
:1034C0000B9B9B5C0A9A521E0A92137050EA0102EF
:1034D000F2D10A98ADEB000000F1200B600702D595
:1034E00024F4803401E04FF00109D94502DDA9EB55
:1034F0000B0000E0002000EB0B0141440890AAEB18
:10350000010AE00306D4DDE90F232146504600F00E
:1035100063F806444FF0000908E009A911F8090012
:10352000DDE90F12904709F10109761CC145F4DB72
:10353000E0030CD5DDE90F232146504600F04CF89E
:10354000064404E0DDE90F1230209047761C08990C
:10355000481E08900029F5DC08E00A980A990078CE
:10356000491C0A91DDE90F129047761CBBF100015E
:10357000ABF1010BF1DC21465046DDE90F2300F0F1
:1035800019F806446D1C1BE609280100303132335E
:10359000343536373839616263646566000000008F
:1035A0003031323334353637383941424344454679
:1035B000000000002DE9F041044600251E46174694
:1035C000880404D405E039462020B0476D1C641EF1
:1035D000F9D52846BDE8F0812DE9F04104460025E3
:1035E0001E469046C80301D5302700E020278804F6
:1035F00004D505E041463846B0476D1C641EF9D538
:103600002846BDE8F081000003487721416241610E
:103610008161C161016270470000002030B503463E
:10362000FF200022044C03E09D5C4540521C605D7D
:103630008A42F9D330BD00008054000804490A686A
:103640001206FCD5024AC1B20C321160704700006C
:103650001C44004010B5002821D0114B0022001F4F
:10366000196803E0814203D80A4649680029F9D164
:1036700052B11368841A9C4204D100681844106047
:10368000104602E0506000E0186039B102680B1A81
:10369000934203D10B681A4402604968416010BD2F
:1036A000D0000020FDF770FAFFF7C7F8FEF724FFFF
:1036B000FEF7CCFEFEF788FFFEF7C6FFFEF752FFCF
:1036C000002240210748FDF74BFAFCF79BFF064814
:1036D000FEF7B8F800F04EF8FEF7EEFE00F05CF8EA
:1036E000FEE7000000040048D8000020F0B50B30D1
:1036F000154D20F007010024144A0FE003688B42A7
:103700000BD38B4205D95E1A43184768C3E900679B
:1037100000E04368136002C004E0021D1068002846
:10372000ECD12046002802D1286808B10020F0BD65
:10373000064A07481060074A121A22F00702C0E939
:10374000002401202860D7E7D4000020D00000200A
:103750007C1D0020781F002010B5EFF3058111B10A
:103760006FF0050403E0002408B100F0BBFE204622
:1037700010BD0000EFF3058010B16FF00500704739
:103780000448016811B14FF0FF307047012101601A
:1037900000207047A000002010B5EFF3058010B1A5
:1037A0006FF0050010BD08480168012902D04FF0F4
:1037B000FF3010BD054A002182F8141D022101606E
:1037C00000F040FF002010BDA00000200BE000E052
:1037D000F8B5144603460E464FF00005EFF305809A
:1037E00098BB93B39E423DD84CB1A0680028E068D6
:1037F00003D0502836D3012002E008B132E0002087
:10380000012B05D010B31846A26801F046F820E05D
:1038100040B103200090002211460120A36801F06E
:103820007DF804E003220021012001F056F8050094
:1038300018D086B100231A46194601F0E7F801288E
:1038400009D0284600F000FE00250BE0184601F0E4
:1038500007F8050006D00CB1216800E000212846D9
:1038600000F0DEFD2846F8BD38B50024E51E00282E
:103870000BD000BFEFF30581A9B10021009169468B
:1038800001F0D3F9012815D102E06FF0030412E032
:10389000009880B109494FF080500860BFF34F8F06
:1038A000BFF36F8F07E000231A46194601F0AEF808
:1038B000012800D02C46204638BD000004ED00E071
:1038C0002DE9FF414FEA01034FF00005EFF30581B9
:1038D000039549BB40B38027182100244AB31668DA
:1038E00006B1344696691EB13146761E382E02D294
:1038F0001679F60703D0002004B0BDE8F0815669C0
:1039000006B1B708D2F808C0BCF1000F0DD0D568D9
:103910005C2D18D312693AB136B18DE806103A46DB
:10392000214601F090FB03900DE0D6685EB9126964
:103930004AB903AACDE90012BAB2214601F056FBFA
:10394000012800D003950398D6E700002DE9F04147
:10395000134C0F460546E6682068001D00F062FC27
:10396000681C07D137B12168BDE8F0410D48091D39
:1039700000F0A8BC20683544B5424560216805D2F6
:10398000A06BBDE8F041091D00F084BC606B091D0F
:1039900000F080FCA06A854200D2A562BDE8F081FB
:1039A00050000020900900202DE9F041054600F06C
:1039B00095FC2D4CA068401CA06020682B4F10B1D6
:1039C000606930B32BE02560A068012827D100266C
:1039D00006EB860007EB800000F04EFC761C382ECC
:1039E000F6D3234800F048FC2148143000F044FC92
:1039F0001F48283000F040FC1D483C3000F03CFCE3
:103A00001B48503000F038FC194860631430A06344
:103A100005E02068E96AC06A884200D82560606ACB
:103A2000401C60626864E86A2169884200D92061AC
:103A300000EB800007EB8000291D00F043FC00F044
:103A40006DFC606900280CD02068E96AC06A884271
:103A500007D208494FF080500860BFF34F8FBFF383
:103A60006F8FBDE8F081000050000020E0040020CE
:103A70004009002004ED00E038B500F02FFC104CA8
:103A80002068C8B90F4800F0F7FB0E48143000F06A
:103A9000F3FB0C48E060143020610A4B0020F03B3F
:103AA000009003F1500210210A2000F037FF20603F
:103AB00010B105A100F0B4FCBDE8384000F02EBC08
:103AC0008C000020940A0020546D72510000000008
:103AD00030B4026C0B46002A0BD0C1681144C1609F
:103AE0008468A14201D30168C16030BC1846FCF76C
:103AF00020BC30BC70472DE9F041856B1746044669
:103B00000026026C82B1C7B1E068FCF712FCE168E4
:103B1000206C091AE1602268914202D2A168081A59
:103B2000E060022F16D017E02068A8B9A06801F065
:103B30002DFB06460020A0600EE06068FCF7F9FB54
:103B4000216C606808446060A168884204D32068E2
:103B5000606001E005B16D1E6D1CA5633046BDE8D7
:103B6000F08110B5044690F8590058B101280CD0E6
:103B700002280FD0502080F31188BFF34F8FBFF37E
:103B80006F8FFEE7206B00F0DDFB2046BDE81040A4
:103B900000F0D8BB10BD000010484FF44061420750
:103BA00006D0C01D0D4920F00700411AC1F5406143
:103BB0000B4A00230144C2E900030839183A21F0F6
:103BC000070111604B600B600B1AC0E90013936092
:103BD0004FF00040536050617047000074110020A6
:103BE000BC000020144E154CA6F29C474FF08058A4
:103BF000DFF84C9012E000BF00F070FBF068C56881
:103C0000281D00F00FFBA068401EA0606068401EE9
:103C1000606000F083FB2846FFF7A3FF6068002880
:103C2000EAD138680128F9D9C9F80080BFF34F8F6D
:103C3000BFF36F8FF2E700007C09002050000020E6
:103C400004ED00E070B51D46049C51B1C4F800209D
:103C5000C4E90F010121204600F094FE84F84C5085
:103C600070BD2460F4E700002DE9F05F8846DDE9CF
:103C70000B941546834691009A460A9EA522206B16
:103C8000FCF769FB6FF00301206B01EB8501084431
:103C900020F00707780707D0502080F31188BFF382
:103CA0004F8FBFF36F8FFEE70025B8F1000F0FD0E5
:103CB0005FF00000221818F8001082F8341018F88D
:103CC000001011B1401C1028F4D384F8435001E0D7
:103CD00084F83450382E00D33726E662C4E91365E1
:103CE000201D00F0D4FA04F1180000F0D0FA24618D
:103CF000C6F138006462A061656584F85850524688
:103D00005946384600F066FA2060B9F1000F01D03C
:103D1000C9F80040BDE8F09F30B5114900E01146F8
:103D20000A688242FBD34B685C18844203D1406826
:103D300018444860084643681C18944209D1084C4E
:103D4000183C2468A24209D052681A4442600A68AA
:103D500012680260814200D0086030BD0460F9E75B
:103D6000BC00002070B5002441600B4D0061914201
:103D700006D8D11A8269914206D2011D286907E04E
:103D80009A4203D2994201D3012403E0011DE8685D
:103D900000F080FA204670BD8C00002010B504466B
:103DA00000F09CFAA06B28B15FF0000400F0B6FAB6
:103DB000204610BD0124F9E730B589B03C4D6EE0D6
:103DC0000498002806DADDE90601059A9047049870
:103DD000002864DB069C606910B1201D00F022FA07
:103DE00003A800F0D7F8024604980A2857D2DFE863
:103DF00000F00505052D334A05052D3394F82800FC
:103E000040F0010084F828000599A069059B014451
:103E10002046FFF7A7FF68B3216A2046884794F839
:103E2000280040073BD5002000900598A169002399
:103E300042181946204601F0EFFAD8B9502080F315
:103E40001188BFF34F8FBFF36F8FFEE714F8280F71
:103E500020F00100207022E094F8280040F00100DA
:103E600084F828000598A06128B1811813462046DF
:103E7000FFF778FF13E0502080F31188BFF34F8FD6
:103E8000BFF36F8FFEE794F82800810703D4204624
:103E900000F058FA03E020F0010084F82800002226
:103EA00004A9286800F010FF002889D109B030BDAE
:103EB0008C0000202DE9FC410F46054600F006FC71
:103EC00001A800F067F80446019818B101F012FA51
:103ED000BDE8FC81254EAFB130690068D0B3002742
:103EE000291B3A46306800F0DBFA01F003FA00289B
:103EF000EED11F494FF080500860BFF34F8FBFF3E2
:103F00006F8FE5E7A542EBD801F0F4F9F06827469A
:103F1000C068C468201D00F085F994F828004107A6
:103F200019D5A0692B4641193A462046FFF71AFFDA
:103F3000A8B100200346014600902A46204601F021
:103F40006BFA60B9502080F31188BFF34F8FBFF335
:103F50006F8FFEE707E020F0010084F82800216A57
:103F600020468847B4E70127BAE700008C0000200C
:103F700004ED00E00648416B096829B1416BC9684E
:103F8000C9684968816270474FF0FF31FAE7000065
:103F90005000002070B5054601F08EF8064E04462C
:103FA000B068844203D200F009F8012000E000204C
:103FB00028602046B46070BD8C000020F8B5194D13
:103FC00020E0C068C4680668201D00F02BF9216A53
:103FD0002046884794F82800400713D5A06930444C
:103FE000B04206D924616060211DE86800F052F9F2
:103FF00008E000200346014600903246204601F0CA
:104000000BFA38B1E86801680029DAD12969C5E9F5
:104010000310F8BD502080F31188BFF34F8FBFF31A
:104020006F8FFEE78C00002008484068401C4FF06E
:10403000500080F3118804D0BFF34F8FBFF36F8F10
:10404000FEE7BFF34F8FBFF36F8FFEE7C400002082
:10405000074CE068016841B1C0680021D0F8000059
:10406000FFF728FFFFF7A8FEF3E701210020F7E79D
:104070008C0000202DE9F041044600F02FF994F95E
:10408000455004F1240609E0606A48B1304601F069
:10409000F9F808B100F054FA6D1E6DB2002DF3DC92
:1040A0004FF0FF3684F8456000F038F900F016F95B
:1040B00094F9445004F1100709E0206948B13846EA
:1040C00001F0E0F808B100F03BFA6D1E6DB2002D72
:1040D000F3DC84F84460BDE8F04100F01FB9000053
:1040E0002DE9F0410546002700F0F0FA324E306825
:1040F00008B9FFF751FD706905424ED1C5B30835C7
:1041000068070ED005F00700C0F1080005446807F5
:1041100007D0502080F31188BFF34F8FBFF36F8F0C
:10412000FEE72DB37068854237D823481830014622
:104130000C6801E020460C466168A94202D2216861
:104140000029F7D131688C4227D0076821680160C7
:1041500060680837411B10290FD96019420708D041
:10416000502080F31188BFF34F8FBFF36F8FFEE7AE
:1041700013E041606560FFF7CFFD61687068401A29
:104180007060B268904200D2B06070690143002054
:10419000C4E90001F068401CF06001F0ABF878075A
:1041A00007D0502080F31188BFF34F8FBFF36F8F7C
:1041B000FEE73846BDE8F081A40000200449086805
:1041C00018B10868026D521C02650868704700004B
:1041D0005000002010B5031F4FF080741C601B1F9F
:1041E00021F001011960191F044B0B6014390A609A
:1041F000091F6FF0020244380A6010BD2940000810
:104200001CB54AF60322ADF8002040EA0120ADF8C3
:104210000200BB20ADF80400002206216846FEF72C
:1042200059FA1CBDD0E9013201699A60D0E9012335
:104230005A604A68824201D182684A600022026163
:104240000868401E0860086870470000034B036060
:1042500003F15C000860802010607047BC0A0020F9
:10426000044B036003F15C0008604FF48070106041
:1042700070470000180D002000F108014FF0FF32D8
:10428000C0E90112C1600161002101607047002195
:104290000161704730B50B685A1C02D000F108026A
:1042A00002E0026904E02246546825689D42FAD97A
:1042B00053684B6099608A60516008610168491CCD
:1042C000016030BD42684A6093688B6093685960B2
:1042D000916008610168491C01607047502080F3BB
:1042E0001188BFF34F8FBFF36F8F0A494868401C96
:1042F000486001280CD10848006810F0FF0F07D073
:10430000502080F31188BFF34F8FBFF36F8FFEE70C
:1043100070470000C400002004ED00E00849486830
:1043200028B1401E486001D180F3118870475020A9
:1043300080F31188BFF34F8FBFF36F8FFEE700004C
:10434000C400002070B500282AD0164DA0F1080442
:1043500060686969084207D1502080F31188BFF373
:104360004F8FBFF36F8FFEE722683AB1502080F382
:104370001188BFF34F8FBFF36F8FFEE788436060F4
:1043800000F0A4F960686968084468602046FFF797
:10439000C3FC2869401C2861BDE8704000F0AABF3A
:1043A00070BD0000A40000204FF0E020002101615A
:1043B000816105494FF47A720968B1FBF2F1491E37
:1043C00041610721016170474C00002010B5FBF7E7
:1043D00069FF114910280ED300F1E02090F8F00396
:1043E0000A78904207D2502080F31188BFF34F8F94
:1043F000BFF36F8FFEE709480068896800F4E0604A
:10440000884207D9502080F31188BFF34F8FBFF344
:104410006F8FFEE710BD0000C40000200CED00E02F
:1044200010B5084B002200BF53F832401CB1521C9B
:10443000082AF9D310BD43F8321003EBC2014860DB
:1044400010BD0000A004002010B504000AD000F048
:1044500013F894F8460000280CD12046BDE810401F
:10446000FFF770BF502080F31188BFF34F8FBFF369
:104470006F8FFEE710BD0000084A002102EBC10368
:104480005B68834206D1002042F8310002EBC10193
:1044900048607047491C0829F0D37047A0040020E9
:1044A00070B515460E460446FFF718FF94F9441000
:1044B0000020491C01D184F8440094F94510491C9E
:1044C00001D184F84500FFF729FFA06B28B92A46DF
:1044D000314604F1240000F051F82046BDE8704058
:1044E000FFF7C8BD10B5020014D00F48006B38B1FB
:1044F000502080F31188BFF34F8FBFF36F8FFEE71B
:1045000000F0E4F800211046FFF720FA00F0F2FE78
:10451000002807D105494FF080500860BFF34F8F46
:10452000BFF36F8F10BD00005000002004ED00E0CD
:1045300002490A6A0260C968416070475000002061
:1045400001490120C86170475000002010B50C4699
:1045500050B1094909681831FFF79CFE2046BDE8B3
:1045600010400121FFF7F2B9502080F31188BFF30A
:104570004F8FBFF36F8FFEE75000002070B51446D9
:104580000D4668B10A4909681831FFF79BFE0CB166
:104590004FF0FF3521462846BDE87040FFF7D6B9F9
:1045A000502080F31188BFF34F8FBFF36F8FFEE76A
:1045B0005000002070B504003ED0226DA2B1E06C26
:1045C000884200D30146E06A884235D0012A33D1BF
:1045D0001A4D2A6894420FD1502080F31188BFF3FE
:1045E0004F8FBFF36F8FFEE7502080F31188BFF32A
:1045F0004F8FBFF36F8FFEE7E162A269002A02DBF3
:10460000C1F13801A1610E4E00EB8000616906EB3B
:104610008000814210D1201DFFF704FEE06A296965
:10462000884200D9286100EB800006EB8000211D44
:10463000BDE87040FFF746BE70BD0000500000208E
:10464000E004002030B587B00024039405AA04A933
:1046500003A80494FFF7FAFDDDE903010094CDE916
:104660000110002315A11748059A00F0ECFC164D27
:104670000028E8621FD000F09FFE012809D0401CEE
:1046800019D1502080F31188BFF34F8FBFF36F8F84
:10469000FEE7502080F31188BFF34F8FBFF36F8F79
:1046A0004FF0FF30A86201206861EC6007B0BDE800
:1046B000304000F045B807B030BD000049444C45DB
:1046C00000000000E53B0008500000200248016B9C
:1046D000491C01637047000050000020164810B5C7
:1046E000016B11B10121C16110BD0021C1610169DE
:1046F000124A01E0B9B1491E01EB810352F823309F
:10470000002BF7D001EB810302EB830202F10804D6
:1047100053685B685360A34201D15B685360DA68F9
:104720000260016110BD502080F31188BFF34F8FEC
:10473000BFF36F8FFEE7000050000020E004002070
:104740001CB537480168374A914207D1502080F3A1
:104750001188BFF34F8FBFF36F8FFEE700683149B9
:10476000491E884207D1502080F31188BFF34F8F34
:10477000BFF36F8FFEE72C4908780190FF20087087
:1047800008788DF800009DF800009DF8002000F0EA
:10479000F000904207D0502080F31188BFF34F8F74
:1047A000BFF36F8FFEE79DF80000204C00F0500033
:1047B00020700720A06005E09DF8002052008DF8D1
:1047C0000020401E9DF800201206F5D4A0600328AA
:1047D00007D0502080F31188BFF34F8FBFF36F8F46
:1047E000FEE74FF44070A060019808700C4820303C
:1047F000016841F470010160016841F0704101609D
:10480000FFF7D2FD00206060FBF714FD0848016847
:1048100041F040410160FBF7F9FC00201CBD0000A5
:1048200000ED00E071C20F4100E400E0C400002090
:1048300034EF00E010B5502080F31188BFF34F8FA4
:10484000BFF36F8F00F03EFC18B104494FF0805069
:104850000860002080F3118810BD000004ED00E026
:1048600010B50C4648B184420FD9502080F311880E
:10487000BFF34F8FBFF36F8FFEE7502080F3118897
:10488000BFF34F8FBFF36F8FFEE70222002100F0CE
:1048900024F8002800D0846310BD38B50C4648B118
:1048A00084420FD9502080F31188BFF34F8FBFF39C
:1048B0006F8FFEE7502080F31188BFF34F8FBFF357
:1048C0006F8FFEE70221134600220091114600F08F
:1048D00025F8002800D0846338BDF8B517460E4689
:1048E000050013D005FB06F05030FFF7F9FB04007C
:1048F0000AD0002084F8460004F150023B463146BD
:1049000028460094FFF79EF92046F8BD502080F31A
:104910001188BFF34F8FBFF36F8FFEE738B5049D4B
:1049200018B153B1CAB181B120E0502080F3118891
:10493000BFF34F8FBFF36F8FFEE7502080F31188D6
:10494000BFF34F8FBFF36F8FFEE7502080F31188C6
:10495000BFF34F8FBFF36F8FFEE739B1502080F365
:104960001188BFF34F8FBFF36F8FFEE750241C46B3
:10497000012384F846302B460094FFF763F9204664
:1049800038BD000070B50D46040025D0FFF7A6FC29
:10499000D4E90F20216802FB0011A1600021A1636E
:1049A000216861600A46D4E90F01401E00FB012125
:1049B000E16021464FF0FF3001F8440F487004F1E8
:1049C00010008DB1FFF758FC04F12400FFF754FCF0
:1049D000FFF7A4FC012070BD502080F31188BFF3C5
:1049E0004F8FBFF36F8FFEE721690029F0D000F0F1
:1049F00049FC0028ECD004494FF080500860BFF318
:104A00004F8FBFF36F8FE3E704ED00E02DE9FF4721
:104A100082B01D468A464FF00008040003D0BAF168
:104A2000000F08D011E0502080F31188BFF34F8FA2
:104A3000BFF36F8FFEE7206C38B1502080F31188F0
:104A4000BFF34F8FBFF36F8FFEE7022D0AD1E06BEC
:104A5000012807D0502080F31188BFF34F8FBFF398
:104A60006F8FFEE700F01AFB3F4F4FF000094FF049
:104A7000805648B9049838B1502080F31188BFF3AC
:104A80004F8FBFF36F8FFEE7FFF728FCA06BE16B42
:104A9000884207D3022D05D00498D0B1B8F1000F99
:104AA0001AD01EE02A4651462046FFF724F8616AD4
:104AB00019B104F1240000F0E5FB20B13E60BFF322
:104AC0004F8FBFF36F8FFFF729FC012006B0BDE8C1
:104AD000F087FFF723FC22E06846FFF729FD4FF03F
:104AE0000108FFF71BFCFFF7F1FDFFF7F7FB94F957
:104AF0004400401C01D184F8449094F94500401CC6
:104B000001D184F84590FFF709FC04A9684600F03C
:104B100033FA30B12046FFF7ADFA00F0EBFB00208E
:104B2000D4E7FFF7DBFBA06BE16B884213D1FFF703
:104B3000F5FB04F110000499FFF708FD2046FFF78C
:104B400099FA00F0D7FB00289ED13E60BFF34F8F4B
:104B5000BFF36F8F98E7FFF7E1FB2046FFF78AFA74
:104B600000F0C8FB90E7000004ED00E02DE9F047FD
:104B70001F4690468946040003D0B9F1000F08D0C3
:104B800011E0502080F31188BFF34F8FBFF36F8F78
:104B9000FEE7206C38B1502080F31188BFF34F8FAF
:104BA000BFF36F8FFEE7022F0AD1E06B012807D019
:104BB000502080F31188BFF34F8FBFF36F8FFEE754
:104BC000FFF704FC5020EFF3118680F31188BFF348
:104BD0004F8FBFF36F8FA06BE16B884206D3022F1C
:104BE00004D0002086F31188BDE8F08794F9455081
:104BF000A06B3A4649462046FEF77DFF681C04D06C
:104C00006D1C84F845500120ECE7606A0028FAD05A
:104C100004F1240000F036FB0028F4D0B8F1000FB6
:104C2000F1D00121C8F80010EDE770B50E46040080
:104C300009D0206C78B1502080F31188BFF34F8FDA
:104C4000BFF36F8FFEE7502080F31188BFF34F8FC3
:104C5000BFF36F8FFEE7206848B9A06838B15020D5
:104C600080F31188BFF34F8FBFF36F8FFEE7FFF71D
:104C7000ADFB5020EFF3118580F31188BFF34F8F08
:104C8000BFF36F8FA16BE06B884218D994F9450090
:104C9000491CA163411C04D0401C84F8450001203C
:104CA0000EE0606A0028FAD004F1240000F0EAFA6D
:104CB0000028F4D0002EF2D001203060EFE7002071
:104CC00085F3118870BD00002DE9F747002683B0F9
:104CD0008A46040003D0BAF1000F08D011E050203A
:104CE00080F31188BFF34F8FBFF36F8FFEE7206C07
:104CF00038B1502080F31188BFF34F8FBFF36F8F0F
:104D0000FEE700F0CBF9DFF8F4804FF000094FF038
:104D1000805748B9059838B1502080F31188BFF307
:104D20004F8FBFF36F8FFEE7FFF7D8FAA56BC5B1C2
:104D300051462046FEF7CCFE6D1EA563206950B19A
:104D400004F1100000F09EFA28B1C8F80070BFF31B
:104D50004F8FBFF36F8FFFF7E1FA012006B0BDE878
:104D6000F087059808B11EB106E0FFF7D7FA27E0F3
:104D70006846FFF7DDFB0126FFF7D0FAFFF7A6FC38
:104D8000FFF7ACFA94F94400401C01D184F8449038
:104D900094F94500401C01D184F84590FFF7BEFA14
:104DA00005A9684600F0E8F8002820460AD0FFF779
:104DB00061F900F09FFA2046FEF7F0FF0028B3D01B
:104DC0000020CBE7FEF7EAFF90B104F1240005993B
:104DD000FFF7BCFB2046FFF74DF900F08BFA0028E7
:104DE000A2D1C8F80070BFF34F8FBFF36F8F9BE75E
:104DF0002046FFF73FF900F07DFA95E704ED00E06B
:104E00002DE9F343002683B00400354609D0206C19
:104E100078B1502080F31188BFF34F8FBFF36F8FAD
:104E2000FEE7502080F31188BFF34F8FBFF36F8FE1
:104E3000FEE700F033F9DFF83C814FF000094FF056
:104E4000805748B9049838B1502080F31188BFF3D7
:104E50004F8FBFF36F8FFEE7FFF740FAA06BC8B12B
:104E6000401EA063206810B9FFF7A8F9A060206970
:104E700050B104F1100000F005FA28B1C8F8007034
:104E8000BFF34F8FBFF36F8FFFF748FA012005B0D4
:104E9000BDE8F083049808B166B10FE03DB1502041
:104EA00080F31188BFF34F8FBFF36F8FFEE7FFF7DB
:104EB00035FA5DE06846FFF73BFB0126FFF72EFA67
:104EC000FFF704FCFFF70AFA94F94400401C01D1F3
:104ED00084F8449094F94500401C01D184F8459031
:104EE000FFF71CFA04A9684600F046F8002820469F
:104EF00012D0FFF7BFF800F0FDF92046FEF74EFF95
:104F00000028A9D09DB3FFF7E9F9606A50B3206B80
:104F10000068C0F1380126E0FEF740FFE0B12068EC
:104F200038B9FFF7DBF9A06800F070F90546FFF724
:104F3000F5F904F124000499FFF708FB2046FFF778
:104F400099F800F0D7F9002886D1C8F80070BFF3AF
:104F50004F8FBFF36F8F7FE72046FFF78BF800F08E
:104F6000C9F979E70021A068FFF724FB9FE7FFE775
:104F700000208CE704ED00E02DE9F0410C4605002F
:104F800011D0C4B1FFF7AAF9174BDA686E68206830
:104F9000911B471C17D02F681B6A9F4219D096425D
:104FA00017D8012410E0502080F31188BFF34F8FF1
:104FB000BFF36F8FFEE7502080F31188BFF34F8F50
:104FC000BFF36F8FFEE70024FFF7A8F92046BDE886
:104FD000F081884205D9401A20602846FFF7A8FAD8
:104FE000F1E700202060DCE7500000202DE9FF5FA2
:104FF0008346DDE90E87994616468A469000FFF7FC
:105000006FF805001CD05C20FFF76AF8040014D08C
:105010000020256384F85900CDE90240CDE90087DE
:105020004B46324651465846FEF71EFE2046FEF7D6
:10503000BBFC012004B0BDE8F09F2846FFF782F9D1
:105040004FF0FF30F6E7F0B585B0DDE90B640A9D5F
:10505000A6B1DCB15C2700972663022684F859606C
:10506000002604AFCDE90246CDE90057FEF7FCFD6E
:105070002046FEF799FC049805B0F0BD502080F35F
:105080001188BFF34F8FBFF36F8FFEE7502080F37F
:105090001188BFF34F8FBFF36F8FFEE7054841695B
:1050A00019B1006B18B10020704701207047022031
:1050B00070470000500000200148C06870470000A1
:1050C000500000202DE9F0412E4C0027206B28B124
:1050D000A069401CA0613846BDE8F081E668761CF6
:1050E000E66013D1606B006838B1502080F31188FE
:1050F000BFF34F8FBFF36F8FFEE7606BA16B6163F0
:10510000A063206A401C2062FEF734FFA06ADFF82B
:105110007880864209D3606B0068A0B1606BC0687C
:10512000C5686868864211D2A0622068C06A00EB38
:10513000800158F82100012800D90127E0690028E2
:10514000C9D00127C7E74FF0FF30EDE7281DFFF773
:1051500069F8A86A18B105F11800FFF763F8E86A62
:105160002169884200D9206100EB800108EB8100B1
:10517000291DFFF7A7F8E86A2168C96A8842CAD3DF
:105180000127C8E750000020E004002070B50400AB
:105190004FF0000133D01B4D2868844207D05020C7
:1051A00080F31188BFF34F8FBFF36F8FFEE7206D41
:1051B00038B1401E2065E36CE26A9A421FD040B1CC
:1051C0001DE0502080F31188BFF34F8FBFF36F8F26
:1051D000FEE7201DFFF726F8E06CE062C0F1380022
:1051E000A061E06A2969884200D92861064900EB7C
:1051F000800001EB8000211DFFF764F801210846C3
:1052000070BD000050000020E004002070B50400D4
:105210004FF000002BD0194DE16A2A68D26A914202
:1052200026D2A069002804DB2868C06AC0F13800D3
:10523000A061134E01EB8101606906EB8101884298
:1052400011D1201DFEF7EEFF2868C06AE0622969CF
:10525000884200D9286100EB800006EB8000211D08
:10526000FFF730F802E02868C06AE062012070BDF4
:10527000E16C2A68D26A9142F8D370BD50000020D8
:10528000E004002070B5C068C46854B104F118008F
:105290000646FEF7C7FF144D286B50B13146134840
:1052A00015E0502080F31188BFF34F8FBFF36F8F4D
:1052B000FEE7201DFEF7B6FFE06A2969884200D9A3
:1052C00028610B4900EB800001EB8000211DFEF7F7
:1052D000F9FFE06A2968C96A884202D90120E861B9
:1052E00070BD002070BD0000500000206809002043
:1052F000E00400202DE9F0472C4D00242746286BC0
:1053000038B1FEF7EBFF286B401E2863286B40B1D5
:1053100046E0502080F31188BFF34F8FBFF36F8FAB
:10532000FEE7A968224E0120D1B3A6F59169804617
:105330003068E0B1F068C46804F11800FEF772FF4D
:10534000201DFEF76FFFE06A2969884200D92861B5
:1053500000EB800109EB8100211DFEF7B3FFE06A3D
:105360002968C96A8842E3D3C5F81C80E0E70CB11C
:10537000FEF700FEAC694CB14FEA0806FFF7A2FE4B
:1053800000B1EE61641EF9D10020A861E86938B16E
:105390000849012738070860BFF34F8FBFF36F8FAD
:1053A000FEF7BCFF3846BDE8F08700005000002043
:1053B0006809002004ED00E010B586B0FEF75CFB44
:1053C000114C2068B8B100200390049005AA04A9EC
:1053D00003A8FEF745FFDDE9032102208DE8070061
:1053E00000230AA10B48059AFFF72DFE606010B15B
:1053F00006B0012010BD502080F31188BFF34F8FFD
:10540000BFF36F8FFEE700008C000020546D722008
:1054100053766300514000082DE9FF411E461346B4
:1054200002000A9D4FF0000016D0144C2768002F90
:105430000FD0CDE900130292062917DAFFF72EFEEE
:1054400002284FF000030FD0002269462068FFF7C2
:10545000DDFA04B0BDE8F081502080F31188BFF37D
:105460004F8FBFF36F8FFEE72A46EEE700233246E9
:1054700069463846FFF77AFBEBE700008C00002016
:1054800000070E091C1B1215383F363124232A2D24
:1054900070777E796C6B6265484F464154535A5D14
:1054A000E0E7EEE9FCFBF2F5D8DFD6D1C4C3CACD04
:1054B00090979E998C8B8285A8AFA6A1B4B3BABDF4
:1054C000C7C0C9CEDBDCD5D2FFF8F1F6E3E4EDEAE4
:1054D000B7B0B9BEABACA5A28F88818693949D9AD4
:1054E0002720292E3B3C35321F18111603040D0AC4
:1054F0005750595E4B4C45426F68616673747D7AB4
:10550000898E878095929B9CB1B6BFB8ADAAA3A4A3
:10551000F9FEF7F0E5E2EBECC1C6CFC8DDDAD3D493
:10552000696E676075727B7C51565F584D4A434483
:10553000191E171005020B0C21262F283D3A333473
:105540004E49404752555C5B7671787F6A6D646363
:105550003E39303722252C2B0601080F1A1D141353
:10556000AEA9A0A7B2B5BCBB9691989F8A8D848343
:10557000DED9D0D7C2C5CCCBE6E1E8EFFAFDF4F333
:105580002856000800000000000000000000000095
:1055900000000000000400000800000000000000FF
:1055A0000000000018560008000000000000000085
:1055B00000000000000000000002000010000000D9
:1055C000000000000000000020560008000000005D
:1055D00000000000000000000100020004000600BE
:1055E00008000A000C0010002000400080000001AC
:1055F0000101010307010000080402040801010180
:105600000000000000000000010203040607080972
:10561000000000000102030452533438350000003A
:1056200052533438355258007A687568616E736821
:10563000750000005456000800000020D80000004B
:10564000843100082C570008D8000020A022000058
:10565000943100080000000000000000000000007D
:10566000000000000000000000000000000000003A
:10567000000000000000000000000000000000002A
:10568000000000000000000000000000000000001A
:1056900000000000100000000100000000000000F9
:1056A0000024F400000000000000000000000000E2
:1056B00000000000000000000000000000000000EA
:1056C00000000000000000000000000000000000DA
:1056D00000000000000000000000000000000000CA
:1056E00000000000000000000000000000000000BA
:1056F00000000000000000000000000000000000AA
:105700000000000000000000000000000000000099
:10571000000000000000000000000000AAAAAAAAE1
:0C5720000000000000000000000000007D
:04000005080001D915
:00000001FF
