:020000040800F2
:1000000078230020AD020008112F0008D12B000832
:100010000D2F00080D0600083D3D000800000000FF
:10002000000000000000000000000000ED010008DA
:10003000F906000800000000490200086D310008C0
:10004000C7020008C7020008C7020008C70200086C
:10005000C7020008C7020008C7020008C70200085C
:10006000C7020008C7020008C702000811060008FE
:10007000210600083106000841060008C7020008F2
:10008000C702000800000000C7020008C7020008FD
:10009000C7020008C7020008C7020008C70200081C
:1000A000C7020008C7020008C7020008C70200080C
:1000B000C7020008C7020008C7020008C7020008FC
:1000C000C7020008C7020008C7020008C7020008EC
:1000D000C7020008C70200081D3D00082D3D0008AA
:1000E000C7020008C7020008C7020008C7020008CC
:1000F00001320008C7020008C70200080000000023
:1001000000000000C702000800000000C70200084D
:10011000C702000800000000C7020008C70200086C
:10012000C7020008C7020008C7020008C70200088B
:10013000C70200080000000000000000C70200081D
:10014000C7020008C702000800000000000000000D
:10015000000000000000000000000000000000009F
:10016000000000000000000000000000C7020008BE
:10017000C7020008000000000000000000000000AE
:1001800000000000C702000800000000000000009E
:10019000000000000000000000000000000000005F
:1001A0000000000000000000C7020008C7020008AD
:1001B000C7020008C7020008C702000800000000CC
:1001C00000000000C702000800000000000000005E
:1001D000C7020008C7020008DFF80CD000F0ECF8F6
:1001E00000480047D9420008782300202C4B1968AA
:1001F0000868B0E8F04F80F30988BFF36F8F4FF0C5
:10020000000080F311887047000000000848006873
:10021000006880F308884FF0000080F3148862B60D
:1002200061B6BFF34F8FBFF36F8F00DF00BF00BF1A
:1002300008ED00E0DFF80C00016841F47001016096
:10024000704700BF88ED00E0EFF30980BFF36F8FC8
:10025000134B1A681EF0100F08BF20ED108A20E91A
:10026000F04F106009B44FF0500080F31188BFF3D5
:100270004F8FBFF36F8F05F0D1FA4FF0000080F37E
:10028000118809BC19680868B0E8F04F1EF0100F1B
:1002900008BFB0EC108A80F30988BFF36F8F7047F6
:1002A00050000020EFF305807047000006488047AB
:1002B00006480047FEE7FEE7FEE7FEE7FEE7FEE74B
:1002C000FEE7FEE7FEE7FEE7ED310008D901000892
:1002D0002DE9F05F0546002092469B46884606467B
:1002E000814640241BE0284641464746224600F00E
:1002F00053F853465A46C01A914110D31146184636
:10030000224600F03AF82D1A67EB01084F462246C4
:100310000120002100F031F817EB00094E41201EAA
:10032000A4F10104DFDC484631462A464346BDE8D5
:10033000F09F40EA01039B0703D009E008C9121FA0
:1003400008C0042AFAD203E011F8013B00F8013B8F
:10035000521EF9D27047D2B201E000F8012B491EBB
:10036000FBD270470022F6E710B513460A46044652
:100370001946FFF7F0FF204610BD202A04DB203A83
:1003800000FA02F1002070479140C2F1200320FAE8
:1003900003F3194390407047202A04DB203A21FAE6
:1003A00002F00021704721FA02F3D040C2F120028E
:1003B0009140084319467047064C074D06E0E06837
:1003C00040F0010394E8070098471034AC42F6D39C
:1003D000FFF706FF306C0008506C0008012920D19F
:1003E000032815D004DC01280AD0022818D10BE01C
:1003F000042811D0552813D188220A4B1A600FE027
:100400008822094B1A600BE08822084B1A6007E02B
:100410008822074B1A6003E08822064B1A6000BF4F
:1004200000BF7047240000201400002018000020A6
:100430001C000020200000202DE9FC5F5E480078B1
:10044000002872D04FF000095C4890F80090C07806
:1004500001905A488778012F01D0BDE8FC9FB9F17F
:10046000010F72D155484078AA287FD153490879A5
:10047000C11700EB91718C10A2464FEA8A0003F07D
:100480004FFF054600200090834600BF20E0820019
:10049000921D4A4B9B5C8200D21DDFF820C11CF8E4
:1004A000022043EA022200928200D21D63469B5C36
:1004B000820008321CF8022043EA022B009A4BEA21
:1004C000024100EE101A05EB800282ED000A401C8A
:1004D000A042DCDB052000EB8400801C374911F8CA
:1004E0000080062000EB8401344803F0AFFE06468E
:1004F000B0452CD1012F06D0022F0AD0032F0ED0E9
:10050000042F19D112E095ED000A2D4880ED000A64
:1005100012E095ED000A2B4880ED000A0CE095ED05
:10052000000A294880ED000A06E040E095ED000A47
:10053000264880ED000A00BF00BF00201E49087059
:100540003946019804F050FE0CE016E00EE020A0C1
:1005500003F0F6FB4246314620A003F0F1FB0020F9
:1005600015490870284603F08FFE1FE023A003F012
:10057000E7FB00201049087018E0104800780328B5
:1005800002D0042811D107E000200B490870394639
:100590000198FFF723FF08E00020074908700422B4
:1005A0001949019802F07CFD00BF00BF00BF002088
:1005B0000149087000BF50E7380000207801002092
:1005C00004000020080000200C0000201000002083
:1005D0004352435F4552524F520A00006372635FB9
:1005E00063616C203A307825582020206372635F65
:1005F00046726D653A2030782558000048454144E0
:100600005F4552524F520A000000002000BFFEE733
:1006100010B5024800F011F910BD0000D40200200E
:1006200010B5024800F009F910BD000034030020A5
:1006300010B5024800F001F910BD0000940300203D
:1006400010B5024800F0F9F810BD0000F4030020D6
:1006500030B50E4D0468AC4201D20D4901E00C49A1
:1006600020310B460478083C1425B4FBF5F2446CA9
:10067000A40803EB84048464054C8034C46402F051
:100680001F050124AC40046530BD00000804024091
:100690000008024001794A1E064B03EB82024265C4
:1006A000044A403282654A1E02F01F0301229A402A
:1006B000C26570470009024030B5D0E913546C6040
:1006C000446D14B1D0E916546C6090F8444004F0C5
:1006D0001F050124AC40056C6C600468636084688D
:1006E000102C04D10468A2600468E16003E004688F
:1006F000A1600468E26030BD7047000007480068F0
:1007000040F08070054908600020054948600846AF
:10071000006840F00100086070470000FCED00E058
:10072000001000E072B600BFFEE70146002091F81D
:100730002520022A03D00422CA63012027E00A6888
:10074000126822F00E020B681A608A6C126822F49A
:1007500080728B6C1A600A68126822F001020B68C2
:100760001A6091F8442002F01F0301229A400B6C9A
:100770005A60D1E913325A604A6D42B14A6D12682B
:1007800022F480724B6D1A60D1E916325A60012250
:1007900081F8252000BF002281F8242000BF704787
:1007A00070B50446002594F8250002280BD00420DB
:1007B000E063012084F8250000BF002084F82400B5
:1007C00000BF012534E02068006820F00E00216899
:1007D00008602068006820F0010021680860A06CB3
:1007E000006820F48070A16C086094F8440000F068
:1007F0001F0101208840216C4860D4E91310486033
:10080000606D40B1606D006820F48070616D0860BB
:10081000D4E916104860012084F8250000BF0020AC
:1008200084F8240000BFA06B10B12046A16B88475C
:10083000284670BD0146C86B704770B50446206CF1
:1008400005682068066894F8440000F01F01042041
:1008500088402840E0B106F00400C8B12068006874
:1008600000F0200028B92068006820F0040021680A
:10087000086094F8440000F01F0104208840216CB7
:100880004860206B002856D02046216B884752E0F4
:1008900094F8440000F01F0102208840284018B35B
:1008A00006F0020000B32068006800F0200040B9A4
:1008B0002068006820F00A0021680860012084F8A0
:1008C000250094F8440000F01F0102208840216CAC
:1008D000486000BF002084F8240000BFE06A50B3E5
:1008E0002046E16A884726E094F8440000F01F01A2
:1008F000082088402840F0B106F00800D8B12068F0
:10090000006820F00E002168086094F8440000F0B0
:100910001F0101208840216C48600120E06384F8B9
:10092000250000BF002084F8240000BF606B10B1D8
:100930002046616B884770BD70B504460CB9012034
:1009400070BD2F49206888420BD22E492068401A7A
:100950001421B0FBF1F0800060642A48083820645C
:100960000AE027492068401A1421B0FBF1F080000A
:100970006064234808382064022084F82500206839
:10098000056847F6F0708543D4E902010843216900
:10099000084361690843A1690843E1690843216A82
:1009A00008430543206805602046FFF751FEA06814
:1009B000B0F5804F01D1002060602079A16C086003
:1009C000D4E913104860606860B16068042809D8F1
:1009D0002046FFF75FFE0020616D0860D4E9161025
:1009E000486003E000206065A065E0650020E063EA
:1009F000012084F82500002084F8240000BF9FE730
:100A000008040240080002402DE9F04104460D466A
:100A100016461F464FF0000800BF94F82400012836
:100A200002D10220BDE8F081012084F8240000BF3B
:100A300094F8250001283FD1022084F825000020E9
:100A4000E0632068006820F00100216808603B46F0
:100A5000324629462046FFF72FFE206B30B1206832
:100A6000006840F00E00216808600BE02068006814
:100A700020F00400216808602068006840F00A0047
:100A800021680860A06C006800F4803028B1A06C78
:100A9000006840F48070A16C0860606D28B1606DE2
:100AA000006840F48070616D08602068006840F064
:100AB00001002168086006E000BF002084F82400DF
:100AC00000BF4FF002084046ACE7000078B5024690
:100AD0000B460021CAE001268E401D6805EA060487
:100AE000002C73D01D7905F00305012D04D01D796C
:100AF00005F00305022D13D190684E000325B54083
:100B0000A8434E00DD68B540284390605068012539
:100B10008D40A8431D79C5F300158D4028435060D2
:100B20001D7905F00305032D09D0D0684E0003257B
:100B3000B540A8434E009D68B5402843D0601D795C
:100B400005F00305022D13D1CE0802F1200555F85A
:100B500026004D07EE0E0F25B540A8434E07F60EB2
:100B60001D69B5402843CE0802F1200545F826004E
:100B700010684E000325B540A8431D7905F0030514
:100B80004E00B540284310605D6805F44035002DE7
:100B90006BD000BF384D2D6E45F00105364E3566E1
:100BA00035462D6E05F00105009500BF00BF4FEAE8
:100BB000B6358E0855F826008D072E0F0F25B54047
:100BC000A843B2F1904F02D100251AE04DE02B4D21
:100BD000AA4201D1012514E0294DAA4201D10225E2
:100BE0000FE0284DAA4201D103250AE0264DAA4272
:100BF00001D1042505E0254DAA4201D1052500E0DB
:100C000006258E07360FB5402843214D8E0845F83E
:100C10002600204D2868A0435D6805F4801505B1C5
:100C200020431C4D28602D1D2868A0435D6805F4F5
:100C3000001505B12043174D2D1D2860154D2D1FA2
:100C40002868A0435D6805F4003505B12043114DC7
:100C50002D1F28602D1F2868A0435D6805F480358E
:100C600005B120430B4D083D2860491C1D68CD404F
:100C7000002D7FF430AF78BD001002400004004822
:100C800000080048000C004800100048001400480C
:100C900008000140080401400AB1816100E081625E
:100CA00070470000014800687047000040000020C5
:100CB000034800680349096808440149086070470F
:100CC000400000204800002010B50024032000F060
:100CD000D1F80F2000F008F808B1012401E000F07D
:100CE00051F8204610BD0000F0B587B0044600263C
:100CF000002700BF1E48006E40F400501C490866E3
:100D00000846006E00F40050009000BF00BF01A92B
:100D100002A800F023FC00F05BFC06461548B6FB79
:100D2000F0F0471E14481549086040F2E7311348B7
:100D3000C160476000210161816000F0B8FF054695
:100D400095B90E4801F048F805466DB92C2000F021
:100D50003FF8102C07D2002221462C2000F04CF83E
:100D60000748046000E00125284607B0F0BD0000F8
:100D70000010024040420F000034014054040020A3
:100D80004400002008B500BF1048006E40F001008C
:100D90000E4908660846006E00F00100009000BF92
:100DA00000BF00BF0846806D40F08050886508464F
:100DB000806D00F08050009000BF00BF00220F2126
:100DC000901E00F019F800F0F5F808BD0010024080
:100DD0000146084600280DDB00BF00BF00F01F03DE
:100DE00001229A4043099B0003F1E023C3F800214C
:100DF00000BF00BF00BF70472DE9F05F80460D4681
:100E0000164602F0ADFF074639462A46334601F042
:100E10000700C0F1070ABAF1040F02D94FF0040A23
:100E200001E0C0F1070AD14600F1040ABAF1070F48
:100E300002D24FF0000A01E0A0F1030AD4464FF0BD
:100E4000010A0AFA09FAAAF1010A0AEA020A0AFAE6
:100E50000CFA4FF0010B0BFA0CFBABF1010B0BEA98
:100E6000030B4AEA0B042146404602F081FFBDE82D
:100E7000F09F000000BF00F00702064B19684FF614
:100E8000FF031940044B0B4343EA0221014B196055
:100E900000BF70470CED00E00000FA0502468ABB77
:100EA0004148006800F4C060B0F5806F2BD13E4827
:100EB0008030006820F480703B4BC3F880001846F7
:100EC000006820F4C06040F4007018603748006883
:100ED00032235843364BB0FBF3F0411C00E0491E6F
:100EE0003148406900F48060B0F5806F01D100297D
:100EF000F5D12D48406900F48060B0F5806F51D184
:100F00000320704708E028488030006820F4807093
:100F1000254BC3F8800045E0B2F5007F3AD1224866
:100F2000006800F4C060B0F5806F2AD11E488030A0
:100F3000006840F480701C4BC3F8800018460068BD
:100F400020F4C06040F40070186018480068322334
:100F50005843174BB0FBF3F0411C00E0491E124808
:100F6000406900F48060B0F5806F01D10029F5D1AF
:100F70000D48406900F48060B0F5806F12D1032005
:100F8000BFE709488030006840F48070064BC3F822
:100F9000800007E00448006820F4C06040F48060EE
:100FA000014B18600020ACE7007000404C000020AE
:100FB00040420F000348806840F480400149886047
:100FC00070470000007000402DE9F84304460027F8
:100FD000B846206800F40020B0F5002F73D1B94660
:100FE000D348806D00F0805078B900BFD048806D44
:100FF00040F08050CE4988650846806D00F08050F2
:10100000009000BF00BF4FF00109CA48006840F4DB
:101010008070C8490860FFF745FE064606E0FFF706
:1010200041FE801B022801D9032705E0C148006862
:1010300000F480700028F2D000BF002F46D1BC48D9
:101040009030006800F44075CDB1206CA84216D0F5
:10105000B7489030006820F44075B548D0F890004B
:1010600040F48030B249C1F890000846D0F89000B2
:1010700020F48030C1F890000846C0F8905005F088
:101080000100A0B1FFF70EFE064608E0FFF70AFEDA
:10109000801B41F28831884201D9032706E0A44829
:1010A0009030006800F002000028EFD000BF5FB968
:1010B0009F489030006820F44070216C08439C49A0
:1010C000C1F8900003E00CE0B84600E0B846B9F182
:1010D000010F05D19648806D20F0805094498865B5
:1010E00000BF207800F0010048B1914888300068C6
:1010F00020F00300616808438D49C1F8880020781A
:1011000000F00200022809D189488830006820F0E8
:101110000C00A16808438649C1F88800207800F0D7
:101120000400042809D182488830006820F030008B
:10113000E16808437E49C1F88800207800F0080083
:10114000082809D17A488830006820F0C000216959
:1011500008437749C1F88800207800F02000202853
:1011600009D173488830006820F440606169084301
:101170006F49C1F88800207800F04000402809D16C
:101180006B488830006820F44050A16908436849E2
:10119000C1F88800207800F08000802809D16448D8
:1011A0008830006820F44040E16908436049C1F894
:1011B0008800208800F48070B0F5807F09D15C48F9
:1011C0008830006820F44030216A08435849C1F84B
:1011D0008800208800F40070B0F5007F09D15448E1
:1011E0008830006820F44020616A08435049C1F803
:1011F0008800208800F48060B0F5806F13D14C48DF
:101200008830006820F44010A16A084348498831BA
:101210000860A06AB0F5801F05D14548C06840F459
:1012200080104349C860208800F40060B0F5006F6A
:1012300013D13F488830006820F44000E16A084339
:101240003B4988310860E06AB0F5800F05D1384825
:10125000C06840F480103649C860208800F480508F
:10126000B0F5805F13D132488830006820F04070BC
:10127000216B08432E4988310860206BB0F1807FD4
:1012800005D12B48C06840F480102949C8602088E7
:1012900000F40050B0F5005F13D125488830006895
:1012A00020F04060616B0843214988310860606B21
:1012B000B0F1006F05D11E48C06840F480101C4991
:1012C000C860208800F48040B0F5804F13D11848E2
:1012D0008830006820F04060A16B084314498831D1
:1012E0000860A06BB0F1006F05D11148C06840F4F0
:1012F00080100F49C860208800F40040B0F5004F0E
:1013000013D10B488830006820F04050E16B08434F
:10131000074988310860E06BB0F1805F05D104486F
:10132000C06840F480300249C8604046BDE8F88398
:1013300000100240007000402DE9F04104460D46C7
:101340004FF0000814B90120BDE8F0817D48006825
:1013500000F00F00A8420ED27A48006820F00F007B
:101360002843784908600846006800F00F00A8424A
:1013700001D00120E8E7207800F00100002864D0C7
:101380006068032823D17048006800F0007008B935
:101390000120D9E701F0BEFD06466C48864237D9E8
:1013A0006948806800F0F00030B1207800F0020059
:1013B00002282DD1A06858BB6348806820F0F00057
:1013C00040F08000604988604FF0800820E060684D
:1013D000022806D15C48006800F4003040B90120C2
:1013E000B2E75948006800F4806008B90120ABE713
:1013F00000F000F906465548864209D952488068EF
:1014000020F0F00040F080004F4988604FF08008E5
:101410004D48806820F00300616808434A498860AD
:10142000FFF740FC074608E0FFF73CFCC01B41F219
:101430008831884201D9032086E74348806800F05C
:101440000C006168B0EB810FEED1207800F0020053
:10145000022820D1207800F00400042805D13A4861
:10146000806840F4E06038498860207800F0080027
:10147000082807D13448806820F4605040F4E060C8
:10148000314988603048806820F0F000A168084346
:101490002D49886008E0B8F1800F05D12A4880689E
:1014A00020F0F000284988602648006800F00F000E
:1014B000A84219D92348006820F00F002843214989
:1014C0000860FFF7EFFB074608E0FFF7EBFBC01BE8
:1014D00041F28831884201D9032035E71948006874
:1014E00000F00F00A842F0D1207800F0040004289A
:1014F00007D11548806820F4E060E168084312498C
:101500008860207800F00800082808D10E4880681C
:1015100020F46050216940EAC1000B49886000F066
:1015200069F809498968C1F30311094A515C01F05E
:101530001F01C8400749086007480068FFF7D4FB4F
:1015400002E70000002002400010024000B4C40482
:10155000FC6B00084C000020440000200F220260B9
:101560000D4A926802F0030242600B4A926802F050
:10157000F0028260084A926802F4E062C260064AA1
:10158000926802F46052D2080261044A126802F0C2
:101590000F020A6070470000001002400020024065
:1015A00001480068704700004C00002000B5FFF7BC
:1015B000F7FF05498968C1F30221044A515C01F033
:1015C0001F01C84000BD0000001002400C6C000864
:1015D00000B5FFF7E5FF05498968C1F3C221044A58
:1015E000515C01F01F01C84000BD00000010024026
:1015F0000C6C000870B5224DAD6805F00C05042D8B
:1016000001D120483AE01E4DAD6805F00C05082DCB
:1016100001D11D4832E01A4DAD6805F00C050C2DC6
:101620002BD1174DED6805F00304154DED68C5F39A
:1016300003156A1C022C0CD0032C09D1124DB5FBEA
:10164000F2F50F4EF668C6F3062605FB06F10AE032
:1016500000BF0C4DB5FBF2F5094EF668C6F3062641
:1016600005FB06F100BF00BF054DED68C5F3416500
:101670006D1C6B00B1FBF3F000E0002070BD0000BA
:10168000001002400024F40000127A002DE9F84313
:10169000044614B90120BDE8F883207800F0010069
:1016A000002865D0FC48806800F00C07FA48C06844
:1016B00000F003060C2F01D1032E01D0082F0AD110
:1016C000F548006800F40030002851D06068002818
:1016D0004ED10120DFE700BF6068B0F5803F06D142
:1016E000ED48006840F48030EB4908601AE060681B
:1016F000B0F5A02F0BD1E848006840F48020E649FF
:1017000008600846006840F4803008600AE0E2485B
:10171000006820F48030E04908600846006820F442
:101720008020086000BF606888B1FFF7BBFA0546FB
:1017300006E0FFF7B7FA401B642801D90320AAE7A7
:10174000D548006800F400300028F2D010E0FFF720
:10175000A9FA054606E0FFF7A5FA401B642801D95F
:10176000032098E7CC48006800F400300028F2D14C
:10177000207800F00200022860D1C748806800F09D
:101780000C07C548C06800F003060C2F01D1022EDB
:1017900001D0042F18D1C048006800F4806018B14F
:1017A000E06808B9012076E7BB48406820F0FE40B9
:1017B000217C40EA0160B8494860B8480068FFF7FA
:1017C00093FA18B3012066E7E06800B3B2480068F6
:1017D00040F48070B0490860FFF764FA054606E0FF
:1017E000FFF760FA401B022801D9032053E7AA48FB
:1017F000006800F480600028F2D0A748406820F01C
:10180000FE40217C40EA0160A349486016E0A248FE
:10181000006820F48070A0490860FFF743FA05468D
:1018200006E0FFF73FFA401B022801D9032032E708
:101830009948006800F480600028F2D1207800F018
:101840000800082836D16069D0B193489430006808
:1018500040F001009049C1F89400FFF723FA0546D3
:1018600006E0FFF71FFA401B022801D9032012E708
:1018700089489430006800F002000028F1D019E097
:1018800085489430006820F001008349C1F8940035
:10189000FFF708FA054606E0FFF704FA401B0228A6
:1018A00001D90320F7E67C489430006800F002007C
:1018B0000028F1D1207800F00400042872D14FF004
:1018C00000087548806D012121EA107078B100BFD1
:1018D0007148806D40F080506F4988650846806D82
:1018E00000F08050009000BF00BF4FF001086C482E
:1018F000006800F48070B0B96948006840F48070F6
:1019000067490860FFF7CEF9054606E0FFF7CAF918
:10191000401B022801D90320BDE66148006800F49D
:1019200080700028F2D000BFA068012808D15A4872
:101930009030006840F001005749C1F8900021E064
:10194000A06805280FD154489030006840F004008A
:101950005149C1F890000846D0F8900040F00100CD
:10196000C1F890000EE04C489030006820F0010073
:101970004949C1F890000846D0F8900020F00400D2
:10198000C1F8900000BFA068A8B1FFF78BF9054629
:1019900009E0FFF787F9401B41F28831884202D9FC
:1019A000032078E625E03C489030006800F0020013
:1019B0000028EED013E0FFF775F9054608E0FFF7C1
:1019C00071F9401B41F28831884201D9032062E657
:1019D00031489030006800F002000028EFD1B8F1E3
:1019E000010F05D12C48806D20F080502A49886570
:1019F00000BF207800F02000202836D1A069D0B1A7
:101A000025489830006840F001002349C1F898004B
:101A1000FFF748F9054606E0FFF744F9401B0228A6
:101A200001D9032037E61C489830006800F0020016
:101A30000028F1D019E018489830006820F0010023
:101A40001549C1F89800FFF72DF9054606E0FFF7A4
:101A500029F9401B022801D903201CE60E489830C2
:101A6000006800F002000028F1D1E069002860D091
:101A70000948806800F00C000C287AD0E069022840
:101A800058D10548006820F0807003490860FFF7CE
:101A900009F905460DE00000001002404400002056
:101AA00000700040FFF7FEF8401B022801D9032018
:101AB000F1E54A48006800F000700028F2D1D4E94E
:101AC0000810401E41EA0011A06A41EA0021208E60
:101AD0000122C2EB500041EA40513420005DC2EBCC
:101AE000500041EA40612C20005D41EAC0603B4962
:101AF000C9683B4A114008433849C8600846006835
:101B000040F0807008600846C06840F08070C8608F
:101B1000FFF7C8F8054606E0FFF7C4F8401B0228A7
:101B200001D90320B7E52D48006800F000700028B7
:101B3000F2D051E02948006820F080702749086001
:101B4000FFF7B0F8054606E0FFF7ACF8401B0228A7
:101B500001D903209FE52148006800F000700028AB
:101B6000F2D11E48C0681F4908401C49C86033E0D4
:101B7000FFE7E069012800D18DE51848C66806F046
:101B80000301206A814225D106F0F001606A401EFF
:101B9000B1EB001F1ED106F4FE41A06AB1EB002F8D
:101BA00018D106F078412C20005DB1EBC06F11D147
:101BB00006F4C001208E0122C2EB5000B1EB405F61
:101BC00008D106F0C0613420005DC2EB5000B1EBDB
:101BD000406F01D001205EE500205CE5001002406E
:101BE0000C809F01FCFFEEFE704770477047704706
:101BF0007047704730B502460B4600BF92F83C0074
:101C0000012801D1022030BD012082F83C0000BF34
:101C1000022082F83D0010684168106884681D4DFC
:101C20001068A84203D01C4D1068A84203D121F4CB
:101C30007001586801431948014018680143106851
:101C40004160144D1068A84213D01068B0F1804F65
:101C50000FD0134D1068A8420BD0124D1068A84247
:101C600007D00D4D1068A84203D00F4D1068A84250
:101C700005D124F080049868044310688460012032
:101C800082F83D0000BF002082F83C0000BF00BF8A
:101C9000B9E70000002C0140003401408FFFFFFD38
:101CA000000400400008004000400140704710B5AB
:101CB00004460CB9012010BD94F83D0028B900205D
:101CC00084F83C00204600F029F8022084F83D000A
:101CD000211D206801F09CFA012084F8480000BF13
:101CE00084F83E0001213F2001554020015541204C
:101CF0000155422001554320015500BF00BF01207E
:101D000084F84400452001554620015547200155DF
:101D100000BF012084F83D000020CCE708B5016831
:101D2000B1F1804F0DD100BF0649896D41F001012D
:101D3000044A91651146896D01F00101009100BFCF
:101D400000BF08BD00100240014691F83D00012887
:101D500001D001207047022081F83D00184B08682F
:101D6000984213D00868B0F1804F0FD0154B086827
:101D700098420BD0144B0868984207D0134B086860
:101D8000984203D0124B0868984210D108688068C6
:101D9000104B00EA0302062A0FD0B2F5803F0CD0A8
:101DA0000868006840F001000B68186005E00868EA
:101DB000006840F001000B6818600020CAE70000CE
:101DC000002C0140000400400008004000340140A5
:101DD0000040014007000100014691F83D00012844
:101DE00001D001207047022081F83D000868C068DA
:101DF00040F001000B68D860184B0868984213D077
:101E00000868B0F1804F0FD0154B086898420BD08E
:101E1000144B0868984207D0134B0868984203D0C7
:101E2000124B0868984210D108688068104B00EA8D
:101E30000302062A0FD0B2F5803F0CD00868006874
:101E400040F001000B68186005E00868006840F089
:101E500001000B6818600020C4E70000002C01405E
:101E600000040040000800400034014000400140F0
:101E7000070001002DE9F04104460D46002700BF90
:101E800094F83C00012802D10220BDE8F081012035
:101E900084F83C0000BF022084F83D00206886687A
:101EA0003F48064026F47F462068866028687028F0
:101EB00024D00CDC00F00F01002964D100110728A8
:101EC00061D2DFE800F05354555649353F00354A9A
:101ED000811A90424FD009DCB0F5805F0DD0B0F58B
:101EE000005F18D0B0F1101F4DD143E0102943D04E
:101EF000202942D0502946D140E046E0D5E90213DE
:101F00006A68206801F0EAF92068866846F077067A
:101F10002068866039E0D5E902136A68206801F01C
:101F2000DDF92068806840F48040216888602CE0FA
:101F3000EA686968206801F0E9F95021206801F039
:101F4000D9F922E0EA686968206801F0F2F96021B5
:101F5000206801F0CFF918E0EA686968206801F0AC
:101F6000D5F94021206801F0C5F90EE000BF00BF9F
:101F700000BF00BF00BF00BF00BF00BF29682068CE
:101F800001F0B8F901E0012700BF00BF012084F88B
:101F90003D0000BF002084F83C0000BF384674E7D5
:101FA00088FFCEFF20001000704770B504462068FF
:101FB000C6682068056905F00200022819D106F0FC
:101FC0000200022815D1401F2168086101202077F6
:101FD0002068806900F0030018B12046FFF7E4FF95
:101FE00005E0204600F0F1F8204600F0EFF8002070
:101FF000207705F00400042819D106F00400042815
:1020000015D1C043216808610220207720688069CB
:1020100000F4407018B12046FFF7C6FF05E02046E7
:1020200000F0D3F8204600F0D1F80020207705F02A
:102030000800082819D106F00800082815D1C04367
:1020400021680861042020772068C06900F003003F
:1020500018B12046FFF7A8FF05E0204600F0B5F8CC
:10206000204600F0B3F80020207705F0100010287B
:1020700019D106F01000102815D1C043216808615D
:10208000082020772068C06900F4407018B120460D
:10209000FFF78AFF05E0204600F097F8204600F0A1
:1020A00095F80020207705F0010048B106F0010006
:1020B00030B16FF0010021680861204600F088F817
:1020C00005F08000802804D005F40050B0F5005FD2
:1020D0000AD106F08000802806D16FF402502168F2
:1020E00008612046FFF781FD05F48070B0F5807F20
:1020F0000AD106F08000802806D16FF48070216834
:1021000008612046FFF770FD05F04000402809D126
:1021100006F04000402805D1C043216808612046F0
:1021200000F062F805F02000202809D106F0200018
:10213000202805D1C043216808612046FFF756FDDD
:1021400005F48010B0F5801F0BD106F48010B0F5B7
:10215000801F06D16FF48010216808612046FFF7C8
:1021600047FD05F40010B0F5001F0BD106F4001078
:10217000B0F5001F06D16FF40010216808612046F9
:10218000FFF735FD05F48000B0F5800F0BD106F4A4
:102190008000B0F5800F06D16FF4800021680861DF
:1021A0002046FFF726FD05F40000B0F5000F0BD127
:1021B00006F40000B0F5000F06D16FF400002168AE
:1021C00008612046FFF772FD70BD70477047000040
:1021D00010B5044603492068884201D1FEF768FD26
:1021E00010BD0000003401407047014600BF91F867
:1021F0008400012801D102207047012081F8840069
:1022000000BF2420C1F888000868026808680068D8
:1022100020F001000B68186022F000520020486690
:10222000086802602020C1F8880000BF002081F803
:10223000840000BF00BFDFE72DE9F04104460E46F1
:102240001746D4F88C00202825D106B117B90120F3
:10225000BDE8F0810120E066002020673A46314663
:10226000204601F0A1FC05469DB9E06E01280FD182
:1022700010202168086200BF00BF216851E8001FDC
:1022800041F01000226842E800010029F5D100E089
:1022900001252846DCE70220DAE7000070B5054694
:1022A0000C461C48854216D100F0A9F81A48048053
:1022B00001201A490870224619491A48FEF739F8D0
:1022C00017480021016041608160C1601022014611
:1022D0001048FFF7B1FF1448854219D100F08FF87C
:1022E000012012490870224611491248FEF721F8D0
:1022F00034210F48FEF736F80F48006818B10E4831
:10230000006802F0FFF8342209490748FFF794FFFC
:1023100070BD0000AC010020360000203500002018
:102320002401002034010020400200203800002059
:10233000440100207801002030000020704770B573
:1023400004460D4600BF94F88400012801D1022004
:1023500070BD012084F8840000BF2420C4F88800E8
:10236000206806682068006820F001002168086085
:102370002068806820F060602843216888602046DB
:1023800000F0ECFF206806602020C4F8880000BF41
:10239000002084F8840000BF00BFD9E770B5044670
:1023A0000D4600BF94F88400012801D1022070BDC1
:1023B000012084F8840000BF2420C4F8880020682D
:1023C00006682068006820F0010021680860206825
:1023D000806820F06040284321688860204600F033
:1023E000BDFF206806602020C4F8880000BF0020E0
:1023F00084F8840000BF00BFD9E77047704770B50C
:102400000446D4F88850D4F88C602068806800F0C6
:102410008000802823D1212D21D100BF00BF216859
:10242000083151E8001F21F080002168083141E89F
:102430000002002AF3D100BFE06F68B1E06FFEF741
:1024400074F948B1E06FFEF7F5F9202804D11020A7
:10245000C4F89000032070BD204601F0C3F9206845
:10246000806800F04000402826D1222E24D100BFF1
:1024700000BF2168083151E8001F21F040002168A9
:10248000083141E80002002AF3D100BFD4F88000EF
:1024900078B1D4F88000FEF748F950B1D4F8800044
:1024A000FEF7C8F9202804D11020C4F890000320BA
:1024B000D1E7204601F048F90020CCE77047000042
:1024C0002DE9F04704462068C56920680668206841
:1024D000876840F60F0005EA0009B9F1000F0FD137
:1024E00005F0200060B106F0200010B907F0805020
:1024F00030B1606F10B12046616F8847BDE8F0874A
:10250000B9F1000F7ED0DF48384018B9DE483040BE
:102510000028F7D005F0010058B106F4807040B1F2
:10252000012021680862D4F8900040F00100C4F84E
:10253000900005F0020058B107F0010040B1022000
:1025400021680862D4F8900040F00400C4F89000BC
:1025500005F0040058B107F0010040B104202168E3
:102560000862D4F8900040F00200C4F8900005F032
:10257000080070B106F0200010B9C248384040B1E0
:10258000082021680862D4F8900040F00800C4F8E0
:10259000900005F4006060B106F0806048B14FF42F
:1025A000006021680862D4F8900040F02000C4F870
:1025B0009000D4F89000002852D005F0200050B1CF
:1025C00006F0200010B907F0805020B1606F10B104
:1025D0002046616F8847D4F890A02068806800F09A
:1025E0004000402802D00AF0280070B3204601F0D5
:1025F000ABF82068806800F04000402826D100BF7A
:1026000000BF00E02DE02168083151E8001F21F0F3
:1026100040002168083141E80002002AF1D100BFE2
:10262000D4F8800068B19948D4F880108863D4F851
:102630008000FEF7B5F898B1D4F88000816B884728
:102640000EE02046FFF73AFF0AE003E02046FFF7DE
:1026500035FF05E02046FFF731FF0020C4F8900069
:102660004CE7E06E012865D105F01000002861D02C
:1026700006F010000028FAD01020216808622068B7
:10268000806800F0400040287AD1D4F880000068CB
:1026900040681FFA80F8B8F1000F5CD0B4F85C0015
:1026A000404558DDA4F85E80D4F8800000680068DA
:1026B00000F02000E8BB00BF00BF216851E8001F08
:1026C00021F48070226842E800010029F5D100BFA2
:1026D00000BF00BF2168083151E8001F21F0010050
:1026E0002168083141E80002002AF3D100BF00BF91
:1026F00000BF2168083151E8001F21F04000216827
:10270000083141E80002002AF3D100BF2020C4F8BC
:102710008C000020E06600BF00BF216851E8001F68
:1027200021F01000226842E800010029F5D100BF25
:1027300001E004E068E0D4F88000FDF7F6FF022035
:102740002067B4F85C00B4F85E20801A81B220469D
:10275000FFF7A4FD12E0B4F85C0040450ED1D4F8B8
:1027600080000068006800F02000202806D10220C8
:102770002067B4F85C102046FFF790FDBEE6FFE747
:1027800034F85C0F6188401A1FFA80F860885C3C5E
:10279000C8B3B8F1000F36D000BF00BF216851E8C0
:1027A000001F21F49070226842E800010029F5D151
:1027B00000BF00BF00BF2168083151E8001F314A47
:1027C000D24301EA02002168083141E80002002AF0
:1027D000F1D100BF2020C4F88C000020E0666067C3
:1027E00000BF00BF216851E8001F21F010002268DF
:1027F00042E800010029F5D100BF022020674146D0
:102800002046FFF74BFD79E605F4801050B107F440
:10281000800038B14FF48010216808622046FFF72D
:10282000EDFD6BE605F0800058B106F0800010B9B0
:1028300007F4000028B1A06F10B12046A16F8847AF
:102840005CE605F0400030B106F0400018B12046CB
:1028500000F0B0FF52E605F4000030B106F0804011
:1028600018B12046FFF7C9FD48E605F0807030B189
:1028700006F0004018B12046FFF760FD3EE600BFBD
:102880003CE600000100001020010004973500081C
:1028900010B504460CB9012010BDA06900B100E0DC
:1028A00000BFD4F8880028B9002084F884002046AE
:1028B00000F02AF82420C4F888002068006820F07E
:1028C000010021680860A06A10B1204600F072FD86
:1028D000204600F0A7FF012800D1DDE7206840680E
:1028E00020F49040216848602068806820F02A0029
:1028F000216888602068006840F001002168086055
:10290000204600F0D3FDC7E710B598B00446142167
:1029100013A8FDF727FD442102A8FDF723FD7949FF
:102920002068884272D1022002900020049002A800
:10293000FEF74AFB08B1FDF7F5FE00BF7248806D57
:1029400040F40030704988650846806D00F400301E
:10295000019000BF00BF00BF0846C06C40F00200FD
:10296000C8640846C06C00F00200019000BF00BFC0
:102970001820139002201490002015901690072024
:10298000179013A96148FEF7A1F8614861490860F2
:102990001A20486000215F488160C1608021016188
:1029A000002141618161C1610162FDF7C5FF08B18C
:1029B000FDF7B8FE00BF5748C4F88000846200BF2E
:1029C00053481430544908601B2048601021524875
:1029D00081600021C160802101610021416181612C
:1029E000C1610162FDF7A8FF08B1FDF79BFE00BFC2
:1029F0004948E067846200BF002205212620FEF7D7
:102A0000FBF92620FEF7E4F979E0FFE74349206867
:102A1000884274D1042002900020059002A8FEF79D
:102A2000D3FA08B1FDF77EFE00BF3748806D40F451
:102A30008020354988650846806D00F4802001902B
:102A400000BF00BF00BF0846C06C40F00200C86471
:102A50000846C06C00F00200019000BF00BF4FF4B8
:102A600040601390022014900020159016900720CB
:102A7000179013A92548FEF729F82548283028493A
:102A800008601C204860002125488160C1608021C9
:102A90000161002141618161C1614FF440510162D6
:102AA000FDF74AFF08B1FDF73DFE00BF1C48C4F822
:102AB0008000846200BF16483C301A4908601D201F
:102AC00048601021174881600021C16080210161A8
:102AD000002141618161C1610162FDF72DFF08B1F3
:102AE000FDF720FE00BF0F48E067846200BF0022B0
:102AF00005212720FEF780F92720FEF769F918B095
:102B000010BD0000004400400010024000040048D6
:102B100008000240D4020020340300200048004096
:102B200094030020F40300207047704770B50446FA
:102B30000E461546D4F8880020283FD106B10DB9BD
:102B4000012070BD44F8506FA580E580002020640E
:102B50002120A063E06A503CE0B11948E16FC862EF
:102B60001848E16F08631848E16F48630020E16F7F
:102B70008863236803F128022B46216DE06FFDF77F
:102B800043FF38B11020C4F890002020C4F888001A
:102B90000120D6E740202168086200BF00BF2168FD
:102BA000083151E8001F41F080002168083141E8F8
:102BB0000002002AF3D100BF0020C2E70220C0E7D4
:102BC000E336000839370008AB3500087047704716
:102BD00000BFFEE70121124A11700168096821F067
:102BE00004010268116000BF00BF00BFBFF34F8F38
:102BF00000BF00BF00BF00BF00BF00BFBFF36F8FAB
:102C000000BF00BF00BF0168096801F0040129B1DD
:102C10000168096821F00401026811607047000032
:102C20003400002008B500BF1D48806C40F004004F
:102C30001B4988640846806C00F00400009000BFC7
:102C400000BF00BF0846806C40F001008864084661
:102C5000806C00F00100009000BF00BF0022052141
:102C60000B20FEF7C9F80B20FEF7B2F80022052171
:102C70000C20FEF7C1F80C20FEF7AAF8002205216F
:102C80000D20FEF7B9F80D20FEF7A2F8002205216D
:102C90000E20FEF7B1F80E20FEF79AF808BD0000EE
:102CA0000010024010B50B4A0121084601F0C4FB98
:102CB00009490860094A0021094801F051FC094905
:102CC0000860094A0021094801F04AFC08490860E7
:102CD00010BD0000C46B0008300000207C6B0008B1
:102CE0004531000828000020A06B00085131000881
:102CF0002C00002000B587B0142102A8FDF732FB9C
:102D000000BF1C48C06C40F020001A49C864084647
:102D1000C06C00F02000019000BF00BF00BF08465B
:102D2000C06C40F00200C8640846C06C00F00200AD
:102D3000019000BF00BF00BF0846C06C40F001001A
:102D4000C8640846C06C00F00100019000BF00BFDD
:102D5000002240210848FDF79FFF402002900120FB
:102D6000039000200490059002A90348FDF7AEFEF1
:102D700007B000BD001002400004004800B587B055
:102D8000002003900490059006900090019002901E
:102D90004FF0804013490860A92048600021114885
:102DA0008160491EC160002101618161FEF77FFFE2
:102DB00008B1FDF7B7FC4FF48050039003A9094810
:102DC000FFF758F808B1FDF7ADFC00200090029025
:102DD00069460448FEF70EFF08B1FDF7A3FC07B0F3
:102DE00000BD0000D800002010B51E481E49086034
:102DF0001E48486000211C488160C16001610C21AF
:102E0000416100218161C161016241620020164976
:102E100088620846FFF73CFD08B1FDF783FC0021FE
:102E20001148FFF7BBFA08B1FDF77CFC00210E4802
:102E3000FFF785FA08B1FDF775FC0B48FFF7D5F9E8
:102E400008B1FDF76FFC102209490748FFF7F4F9B4
:102E500008480068006820F0040006490968086016
:102E600010BD000000440040AC01002020A107007C
:102E700024010020D402002010B51F481F4908601B
:102E80001F48486000211D488160C16001610C211C
:102E9000416100218161C1610162416200201749E5
:102EA00088620846FFF7F4FC08B1FDF73BFC0021FF
:102EB0001248FFF773FA08B1FDF734FC00210F4800
:102EC000FFF73DFA08B1FDF72DFC0C48FFF78DF92F
:102ED00008B1FDF727FC34220A490848FFF7ACF98E
:102EE00009480068006820F0040007490968086084
:102EF0000548FFF76FFE10BD00480040400200206B
:102F000000093D00440100209403002000BFFEE7BB
:102F100000BFFEE770B5164DED6805F00304144DD3
:102F2000ED68C5F303156B1C022C0CD0032C09D1E2
:102F3000104DB5FBF3F50E4EF668C6F3062605FBFD
:102F400006F10AE000BF0C4DB5FBF3F5084EF6683C
:102F5000C6F3062605FB06F100BF00BF044DED6871
:102F6000C5F341656D1C6A00B1FBF2F070BD000055
:102F70000010024000127A000024F40070B50446EC
:102F80000D46012240210A48FDF786FE2A462146C9
:102F90000848FFF7CBFD00BF0648D0F8880020287E
:102FA000FAD1002240210248FDF776FE70BD0000F4
:102FB00000040048400200202DE9F04106460F467B
:102FC0001446012240213248FDF766FE3A4631465A
:102FD0003048FFF7ABFD00BF2E48D0F8880020280E
:102FE000FAD1002240212A48FDF756FE4FF08040DA
:102FF000456A0CE028480078012800D10EE04FF027
:10300000805026490860BFF34F8FBFF36F8F4FF09A
:103010008040416A05F164008142EBD900BF1E483F
:10302000007890BB8CB34FF000082CE01A48007871
:10303000012801D1BDE8F081012240211448FDF7AB
:103040002BFE3A4631461348FFF770FD00BF11488A
:10305000D0F888002028FAD1002240210C48FDF742
:103060001BFE4FF08040456A04E00B4800780128C1
:1030700000D1DFE74FF08040416A05F196008142C0
:10308000F3D908F10108A045D0DB00BFD2E700006A
:1030900000040048400200203800002004ED00E059
:1030A0002DE9FE4F07468846154601F0B9F8A800FD
:1030B0000290680000F1040AD1464FEA490001F08D
:1030C0002FF9044626464AF60120208047F48070F6
:1030D00060800298A080002015E008EB800191ED4F
:1030E000000A8DED000A4FF6FF72009902EA1142C4
:1030F0004100C91C24F8112000998AB24100091D21
:1031000024F81120401CA842E7DB6800C01C4FEAED
:10311000400B5946304601F099F80190BB210198C7
:1031200041EA00216800C01C24F810104FEA494011
:10313000010C01222046FFF73FFF204601F0A4F8D2
:10314000BDE8FE8F00BF012001F020F9FBE7000081
:1031500000BF4FF0FF310448006803F035F8012844
:10316000F7D1FDF769F9F4E73000002010B54FF012
:10317000E020006903F0DAF9012801D002F04AFCEE
:1031800010BD00B593B0382105A8FDF7EBF8142168
:103190006846FDF7E7F80020FDF780FE0120059066
:1031A0000004069002200C9003210D9102210E9143
:1031B00055210F91022110911191129105A8FEF74E
:1031C00065FA08B1FDF7AEFA0F20009003200190D8
:1031D000002002900390049004216846FEF7ACF8AA
:1031E00008B1FDF79FFA13B000BD00000348006866
:1031F00040F47000014908607047000088ED00E06D
:1032000010B50248FEF7D1FE10BD000054040020A6
:1032100010B502682A4B98420BD0B0F1804F08D00D
:10322000284B984205D0284B984202D0274B984211
:1032300003D122F070024B681A43214B984214D0FC
:10324000B0F1804F11D01F4B98420ED01E4B9842C8
:103250000BD01E4B984208D01D4B984205D01D4BF9
:10326000984202D01C4B984203D122F44072CB68A2
:103270001A4322F080034C6943EA040202608B681F
:10328000C3620B6883620E4B98420BD00F4B98427F
:1032900008D00F4B984205D00E4B984202D00E4BEF
:1032A000984201D10B69036301234361036903F071
:1032B00001031BB1036923F00103036110BD00008A
:1032C000002C014000040040000800400034014090
:1032D00000400140004401400048014030B50C4628
:1032E000816821F47F4142EA032525432943816017
:1032F00030BD00000A468168034B194042F00703C5
:1033000019438160704700008FFFCFFF30B50B4637
:103310001446026A056A25F001050562816921F0FB
:10332000F00141EA041122F00A021A4381610262AB
:1033300030BD30B50B461446026A056A25F010050B
:103340000562816921F4704141EA043122F0A00252
:1033500042EA03128161026230BD000070B5456E21
:103360002DB90125A0F86A50A0F868501CE0082388
:1033700008240568AD68C5F342610568AD686A0F49
:103380000A4DAD5C15FB04F5094EB65C95FBF6F5F0
:10339000A0F86A50054D6D5C15FB03F5044E765C94
:1033A00095FBF6F5A0F8685070BD0000EC6B0008C6
:1033B000F46B000890F8281001F00801082907D1E3
:1033C0000168496821F40041826B11430268516031
:1033D00090F8281001F0010139B10168496821F421
:1033E0000031C26A11430268516090F8281001F060
:1033F0000201022907D10168496821F48031026B7A
:1034000011430268516090F8281001F0040104296A
:1034100007D10168496821F48021426B1143026899
:10342000516090F8281001F01001102907D10168AF
:10343000896821F48051C26B11430268916090F851
:10344000281001F02001202907D10168896821F4A2
:103450000051026C11430268916090F8281001F04D
:103460004001402913D10168496821F48011426C60
:10347000114302685160416CB1F5801F07D10168AA
:10348000496821F4C001826C11430268516090F8D0
:10349000281001F08001802907D10168496821F4D2
:1034A0000021C26C114302685160704738B5044670
:1034B0000020C4F89000FDF7F5FB05462068006881
:1034C00000F00800082821D16FF07E402B46002232
:1034D0004FF400110090204600F0CAFBB0B100BFCD
:1034E00000BF216851E8001F21F08000226842E8F7
:1034F00000010029F5D100BF2020C4F8880000BFDA
:10350000002084F8840000BF032038BD20680068D4
:1035100000F00400042830D16FF07E402B460022DA
:103520004FF480010090204600F0A2FB28B300BFBA
:1035300000BF216851E8001F21F49070226842E822
:1035400000010029F5D100BF00BF00BF216808318C
:1035500051E8001F21F001002168083141E8000214
:10356000002AF3D100BF2020C4F88C0000BF002047
:1035700084F8840000BF0320C7E72020C4F8880037
:10358000C4F88C000020E066206700BF84F8840047
:1035900000BF00BFB9E770B50446A56A0020A5F8D2
:1035A0005E002846FEF78AFF70BD2DE9F041054612
:1035B000AC6AD4F88860D4F88C702068806800F019
:1035C0008000802807D1212E05D10020A4F85600C4
:1035D000204600F007F92068806800F0400040288D
:1035E00007D1222F05D10020A4F85E00204600F06C
:1035F000ABF8D4F8900040F01000C4F890002046DA
:10360000FEF75CFFBDE8F08170B50546AC6A28683E
:10361000006800F02000E0BB0020A4F85E0000BFBE
:1036200000BF216851E8001F21F48070226842E841
:1036300000010029F5D100BF00BF00BF216808319B
:1036400051E8001F21F001002168083141E8000223
:10365000002AF3D100BF00BF00BF2168083151E844
:10366000001F21F040002168083141E80002002AD3
:10367000F3D100BF2020C4F88C00E06E01280ED1E9
:1036800000BF00BF216851E8001F21F01000226830
:1036900000E004E042E800010029F3D100BF00206F
:1036A0002067E06E012805D1B4F85C102046FEF7D3
:1036B000F5FD02E02046FFF737FA70BD70B505460C
:1036C000AC6A01202067E06E012806D1B4F85C00E6
:1036D00041082046FEF7E2FD02E02046FFF725FA0A
:1036E00070BD70B50546AC6A2868006800F020001F
:1036F000F0B90020A4F8560000BF00BF21680831CF
:1037000051E8001F21F080002168083141E80002E3
:10371000002AF3D100BF00BF00BF216851E8001F9D
:1037200041F04000226842E800010029F5D102E0A2
:103730002046FFF74BFA70BD70B50446A56A2846CF
:10374000FFF745FA70BD000000BF00BF026852E8F5
:10375000002F22F49071036843E80012002AF5D18B
:1037600000BF00BF00BF0268083252E8002F104BB4
:1037700002EA03010268083242E80013002BF2D18A
:1037800000BFC16E01290CD100BF00BF026852E822
:10379000002F22F01001036843E80012002AF5D13F
:1037A00000BF2021C0F88C100021C166416770471E
:1037B000FEFFFFEF10B5044600BF00BF216851E8CF
:1037C000001F21F04000226842E800010029F5D1E5
:1037D00000BF2020C4F888000020A0672046FFF723
:1037E000F5F910BD00BF00BF026852E8002F22F0BB
:1037F000C001036843E80012002AF5D100BF00BFF2
:1038000000BF0268083252E8002F22F4000102686B
:10381000083242E80013002BF3D100BF2021C0F88A
:10382000881070472DE9FE4F044600200290D449CD
:103830002068884200D100E000BF2169A0680843E9
:1038400061690843E16940EA010820680068CD49E0
:10385000084040EA0800216808602068406820F4B9
:103860004050E168084321684860D4F81880C44992
:103870002068884202D0206A40EA080820688068F0
:10388000C149084040EA0800216888602068C06A91
:1038900020F00F00616A08432168C86200BFBB497D
:1038A0002068884216D1BA48006800F0030030B1A1
:1038B000012808D0022804D0032808D105E00125FA
:1038C00007E0022505E0042503E0082501E01025B6
:1038D00000BF6FE0AF492068884216D1AC4800684D
:1038E00000F00C0030B1042808D0082804D00C28BF
:1038F00008D105E0002507E0022505E0042503E0E6
:10390000082501E0102500BF54E0A3492068884243
:1039100016D19F48006800F0300030B1102808D060
:10392000202804D0302808D105E0002507E0022532
:1039300005E0042503E0082501E0102500BF39E07B
:1039400096492068884216D19148006800F0C0006E
:1039500030B1402808D0802804D0C02808D105E024
:10396000002507E0022505E0042503E0082501E025
:10397000102500BF1EE082492068884219D1844882
:10398000006800F4406048B1B0F5806F0AD0B0F52F
:10399000006F05D0B0F5406F08D105E0002507E0C5
:1039A000022505E0042503E0082501E0102500BFFD
:1039B00000E0102500BF72492068884259D135B116
:1039C000022D08D0042D08D0082D0DD109E0FDF7F7
:1039D000EDFD06460CE0724E0AE0FDF70BFE0646D2
:1039E00006E04FF4004603E000260120029000BFED
:1039F00000BF002E10D06B49606A31F81000B6FB92
:103A0000F0F9606800EB4000484503D860680003A7
:103A1000484502D201200290A6E06249606A31F86E
:103A200010C06246002330461946FCF751FC4FF4A3
:103A3000807C0022A0FB0C3B01FB0CB100FB0211BF
:103A40006068400818185141CDE90001D4F804C05D
:103A500062460023FCF73CFC0746B7F5407F05D3E0
:103A6000B7F5801F02D22068C7607DE00120029078
:103A70007AE0E069B0F5004F3FD1092D17D2DFE8B9
:103A800005F005090D160F1616161300FDF78EFD2D
:103A9000064610E0FDF79CFD06460CE0404E0AE0AD
:103AA000FDF7A8FD064606E04FF4004603E00026B9
:103AB0000120029000BF00BF86B33A49606A31F826
:103AC0001000B6FBF0F04000616800EB5100B0FB65
:103AD000F1F7102F0ED3B7F5803F0BD24FF6F070F1
:103AE00007EA000AC7F342004AEA000A2068C0F861
:103AF0000CA039E00120029036E0092D18D2DFE851
:103B000005F005090E17101717171400FDF74EFDE5
:103B1000064611E0FDF75CFD06460DE024E0204E70
:103B20000AE0FDF767FD064606E04FF4004603E0B5
:103B300000260120029000BF00BFAEB11949606AA3
:103B400031F81000B6FBF0F0616800EB5100B0FBFB
:103B5000F1F7102F06D3B7F5803F03D2B8B2216832
:103B6000C86001E0012002900120A4F86A00A4F8D6
:103B7000680000206067A0670298BDE8FE8F000023
:103B800000800040F369FFCFFFF4FF1100380140CF
:103B9000881002400044004000480040004C0040B3
:103BA0000024F400D46B000870B504460E46154698
:103BB00044F8586FA5800020A06322206063A06AAB
:103BC000583CF8B12748241DE16FC8622648E16FD0
:103BD00008632648E16F48630020E16F886354F86A
:103BE000043C03F12401626DE06F241F2B46FCF7B7
:103BF0000BFF38B11020C4F890002020C4F88C00CE
:103C0000012070BD206960B100BF00BF216851E88C
:103C1000001F41F48070226842E800010029F5D1BC
:103C200000BF00BF00BF2168083151E8001F41F00C
:103C300001002168083141E80002002AF3D100BFE9
:103C400000BF00BF2168083151E8001F41F040006B
:103C50002168083141E80002002AF3D100BF0020AA
:103C6000CFE7000009360008BD360008AB35000874
:103C70002DE9F04104460D4617469846069E41E060
:103C8000701C00283ED0FDF70DF8A0EB0800B042F4
:103C900000D816B90320BDE8F0812068006800F064
:103CA000040070B3802D2DD0402D2BD02068C0692A
:103CB000C0F3C00078B10820216808622046FFF7F1
:103CC00043FD0820C4F8900000BF002084F8840061
:103CD00000BF0120DFE72068C069C0F3C02080B1C9
:103CE0004FF40060216808622046FFF72DFD202078
:103CF000C4F8900000BF002084F8840000BF0320B7
:103D0000C9E7FFE72068C0692840A84201D1012027
:103D100000E00020B842B3D00020BCE710B5024854
:103D2000FEF7CEFB10BD0000AC01002010B502482C
:103D3000FEF7C6FB10BD00004002002000BFFEE7FA
:103D40000FB4054B10B503A9044A029800F036F8E9
:103D500010BC5DF814FB00006D4200083C00002020
:103D600002480068C0F30220704700000CED00E03C
:103D700010B5002804DB0A07130E054A135406E0A9
:103D80000A07140E034A00F00F031B1FD45410BD82
:103D900000E400E018ED00E0EFF30580704702E07A
:103DA00008C8121F08C1002AFAD1704770470020C6
:103DB00001E001C1121F002AFBD170472DE9FF4F1E
:103DC0008DB00F460546002606E025280BD0DDE91C
:103DD0000F1290476D1C761C28780028F5D111B081
:103DE0003046BDE8F08F0024A246A1460122EC49EE
:103DF00000E0044315F8013F203B02FA03F00842BB
:103E0000F7D128782A2810D06FF02F022878A0F157
:103E10003001092914D80AEB8A0102EB410144F070
:103E2000020400EB010A6D1CF0E701CF5FEA000A13
:103E300003D544F40054CAF1000A44F002046D1C96
:103E400028782E2817D115F8010F44F004042A28E9
:103E50000ED06FF02F022878A0F1300109290AD87E
:103E600009EB890102EB410100EB01096D1CF2E74E
:103E700057F8049B6D1C28786C280FD006DC4C2862
:103E800017D068280DD06A2814D104E0742810D007
:103E90007A280FD10DE044F400140AE044F48014B1
:103EA00001E044F440146978814202D104F58014A1
:103EB0006D1C6D1C2A786E2A1FD00CDC632A31D051
:103EC00004DC002A8BD0582A11D1A3E0642A68D0E0
:103ED000692A0CD165E0732A2ED004DC6F2A73D0D6
:103EE000702A04D19BE0752A6FD0782A6ED01046D4
:103EF000DDE90F129047761C50E1C4F3025002280E
:103F000006D0032809D0042801CF09D0066045E176
:103F100001CFF117C0E9006140E101CF06803DE12A
:103F200006703BE117F8040B8DF8000000208DF8B7
:103F30000100EB46012003E057F804BB4FF0FF30CF
:103F400061074FF0000102D40DE008F1010188463D
:103F500049450FDA8045F8DB1BF808100029F4D139
:103F600008E008F1010188468142FADB1BF80810DD
:103F70000029F6D1DDE90F23AAEB0800814621468E
:103F800000F036F9304400EB080604E0DDE90F12DA
:103F90001BF8010B9047B8F10108F7D221464846BB
:103FA000F7E00A21C4F302534FF0000B0891022BF3
:103FB00004D001CFC117032B09D00AE0FF1D27F061
:103FC0000707F7E8020108E032E01FE020E000B256
:103FD000C117042B01D140B2C117031E71F10003B8
:103FE00007DA4FF0000CD0EB0C006CEB01012D2335
:103FF00002E0230504D52B238DF82430012303E0B0
:10400000E30701D02023F7E7984658E00A2110E0A3
:1040100010210EE010204FF0000B08900CE0102152
:104020004FF0000B44F004044FF00809089103E03E
:1040300008214FF0000B0891C4F30253022B04D067
:1040400001CF0021032B06D006E0FF1D27F0070754
:10405000F7E8020103E080B2042B00D1C0B24FF0B8
:10406000000823072BD5702A07D0DDF820C08CF07C
:10407000100C5CEA0B0C05D00EE040238DF82430C8
:10408000012308E050EA010306D030238DF82430E4
:104090008DF8252002239846DDF820C08CF0080C0E
:1040A0005CEA0B0C0BD150EA010301D1630706D582
:1040B00030238DF824304FF00108A9F10109582A66
:1040C00004D038A20B9208AA0A920BE03AA2F9E7B0
:1040D0005B46089AFCF7FCF80B9B9B5C0A9A521E05
:1040E0000A92137050EA0102F2D10A98ADEB000077
:1040F00000F1200B600702D524F4803401E04FF07A
:104100000109D94502DDA9EB0B0000E0002000EB1E
:104110000B0141440890AAEB010AE00306D4DDE953
:104120000F232146504600F063F806444FF0000983
:1041300008E009A911F80900DDE90F12904709F11B
:104140000109761CC145F4DBE0030CD5DDE90F2342
:104150002146504600F04CF8064404E0DDE90F1219
:1041600030209047761C0899481E08900029F5DCFD
:1041700008E00A980A990078491C0A91DDE90F12B3
:104180009047761CBBF10001ABF1010BF1DC21463D
:104190005046DDE90F2300F019F806446D1C1BE6BC
:1041A000092801003031323334353637383961620D
:1041B00063646566000000003031323334353637D1
:1041C0003839414243444546000000002DE9F041A2
:1041D000044600251E461746880404D405E03946E7
:1041E0002020B0476D1C641EF9D52846BDE8F0813B
:1041F0002DE9F041044600251E469046C80301D52E
:10420000302700E02027880404D505E041463846E1
:10421000B0476D1C641EF9D52846BDE8F08100004A
:104220007720054908600549086005490860054987
:104230000860054908607047240000201400002031
:10424000180000201C0000202000002030B502468D
:10425000FF23002004E0145C5C40034D2B5D401CF8
:104260008842F8D3184630BD7C6A000800BF054A72
:10427000126802F08002002AF9D0C2B2014B0C335E
:104280001A6070471C44004010B5002821D0114B23
:104290000022001F196803E0814203D80A464968DA
:1042A0000029F9D152B11368841A9C4204D10068E4
:1042B00018441060104602E0506000E0186039B108
:1042C00002680B1A934203D10B681A4402604968D2
:1042D000416010BDD0000020FCF7F6FCFEF751FF56
:1042E000FEF708FDFEF79EFCFEF77EFDFEF7C4FD1F
:1042F000FEF744FD002240210748FCF7CDFC0748AB
:10430000FDF722FDFCF7FAF900F050F8FEF7CAFCC1
:1043100000F062F800BFFEE700040048D80000206B
:10432000F0B50B30154D20F007010024144A0FE0C2
:1043300003688B420BD38B4205D95E1A431847683A
:10434000C3E9006700E04368136002C004E0021D97
:1043500010680028ECD12046002802D1286808B156
:104360000020F0BD064A07481060074A121A22F0E2
:104370000702C0E9002401202860D7E7D40000200C
:10438000D00000207C1D0020781F002070B505465D
:10439000FFF702FD10B16FF0050404E0002415B131
:1043A000284601F0F3F8204670BD000010B5FFF775
:1043B000F3FC10B16FF0050409E00648006820B96D
:1043C000012004490860002401E04FF0FF3420463A
:1043D00010BD0000A000002070B5FFF7DDFC10B19B
:1043E0006FF005041FE011480068012819D100BFD3
:1043F000801F0021002804DB0A07130E0C4A135407
:1044000006E00A07150E0B4A00F00F031B1FD554D8
:1044100000BF00BF02200549086001F09BF900249D
:1044200001E04FF0FF34204670BD0000A0000020E6
:1044300000E400E018ED00E02DE9F84305460F46E2
:1044400014464FF00008FFF7A7FC002857D1002DB5
:1044500055D0AF4253D8461E64B1A06820B1E06881
:10446000502801D3012606E0A06820B9E06810B901
:10447000002600E00026701C002840D0012D23D12A
:10448000012E09D103200090002211460120A368CB
:1044900001F067FB804605E003220021012001F0C6
:1044A00033FB8046B8F1000F1CD0DFB100231A4661
:1044B0001946404601F012FC012813D0404601F095
:1044C0000DF84FF000080DE0012E06D139462846C0
:1044D000A26801F0E7FA804604E03946284601F078
:1044E000B3FA8046B8F1000F09D014B1D4F80090A7
:1044F00001E04FF000094946404600F0D9FF404630
:10450000BDE8F883F8B50446254600260DB9361FE8
:1045100022E0FFF741FCA8B1002000906946284640
:1045200001F02EFD012802D06FF0020614E0009881
:1045300090B14FF0805009490860BFF34F8FBFF32F
:104540006F8F09E000231A461946284601F0C6FB82
:10455000012801D06FF002063046F8BD04ED00E0FE
:104560002DE9FF4780468946144600200390FFF757
:1045700013FC00284ED1B8F1000F4BD0802618252F
:104580008246471E44B3206808B1D4F800A0A06951
:1045900000B1A5692DB1382D03D8207900F00100B4
:1045A00018B1002004B0BDE8F087606908B1606907
:1045B0008608A06840B1E0685C2805D3206918B17E
:1045C000606908B1012708E0A06830B9E06820B947
:1045D000206910B9002700E00027012F0CD12169C4
:1045E000A0684B463246CDE9005102905146404604
:1045F00001F03EFF03900DE067B903A8B2B24B464D
:104600005146CDE90050404601F000FF012801D09D
:10461000002003900398C5E72DE9F04105460E46BA
:104620001648076816480068001D00F0F5FD681C74
:1046300038B936B112480168091D124800F042FE2F
:104640001AE07C190E4800684460BC4207D20C484E
:104650000168091D0C48006800F01AFE0CE00848CB
:104660000168091D0948006800F012FE084800684A
:10467000844201D206480460BDE8F0816400002055
:104680005000002090090020580000205400002015
:104690008000002010B5044600F020FE2448006889
:1046A000401C234908602348006840B92148046041
:1046B0000846006801280DD100F006FA0AE01E48FD
:1046C000006838B91B480068C06AE16A884201D8AE
:1046D0001848046019480068401C184908600846DA
:1046E000006860641649E06A0968884202D9144982
:1046F000E06A0860E16A01EB8101124A02EB810085
:10470000211D00F0DFFD00F013FE0B48006868B1CA
:1047100008480068C06AE16A884207D24FF08050BA
:1047200009490860BFF34F8FBFF36F8F10BD0000C2
:1047300060000020500000206C0000207C00002061
:1047400068000020E004002004ED00E008B500F05F
:10475000C5FD12480068E8B9114800F089FD11480C
:1047600000F086FD0E48104908600E480F490860A9
:1047700000200F4B0F4A102100900A2001F0F1F9A0
:10478000064908600846006820B10BA1034800688C
:1047900000F08EFE00F0CCFD08BD0000940000206B
:1047A000A4090020B80900208C00002090000020FF
:1047B000CC0900201C0A0020546D7251000000003A
:1047C00010B516E000F08AFD0C48C068C468201DD2
:1047D00000F022FD0A480068401E094908600948A7
:1047E0000068401E0749086000F0A2FD204600F066
:1047F0005FF8044800680028E4D110BD7C0900205F
:10480000600000205C00002070B504460D46206C5E
:1048100070B1216CE0680144E160D4E90210884283
:1048200001D32168E1602846226CE168FBF781FD35
:1048300070BD2DE9F04104460F4615464FF00008C3
:10484000A66B206C48B9206800282CD1A06801F024
:1048500025FF80460020A06025E07DB93946226C06
:104860006068FBF766FD216C606808446060D4E90D
:104870000101884217D32068606014E03946226C39
:10488000E068FBF756FD216CE068411AE1602168A1
:10489000E068884203D2216CA068411AE160022DD1
:1048A00001D106B1761E701CA0634046BDE8F081C0
:1048B00010B5044694F8590030B9206B00F056FD4D
:1048C000204600F053FD1AE094F85900012803D166
:1048D000204600F04BFD12E094F85900022801D167
:1048E000012000E0002050B900BF502080F3118863
:1048F000BFF34F8FBFF36F8F00BF00BFFEE710BD48
:1049000001464A6A22B10A6B1268C2F1380000E01F
:10491000002070470146084A126812680AB901224D
:1049200000E000220A600A6822B9034A1268D268CD
:10493000106800E0002070478C00002030B54FF474
:104940004063174800F007042CB1C01D20F0070099
:10495000134C041B1B1B0246124C22600024114DF9
:104960006C60D018083820F007000F4C206000243D
:104970000D4D2D686C600C4D2D682C601146441A4D
:104980004C60094C24680C60084D4C682C60084D44
:104990004C682C604FF00044064D2C6030BD000088
:1049A00074110020A4000020AC000020B4000020FE
:1049B000B0000020C000002000BFFFF701FF064844
:1049C00000680128F9D94FF0805004490860BFF30E
:1049D0004F8FBFF36F8FF0E7E004002004ED00E09D
:1049E0002DE9F04106460D4617469846069C0DB93E
:1049F000246000E02760E66325640121204601F081
:104A000021F984F84C80BDE8F0812DE9F05F824601
:104A10000E4690469B460A9F0C9C4FEA8801A522B1
:104A2000206BFBF798FCA8F10100216B01EB8009DA
:104A300029F0070909F0070008B9012000E000206B
:104A400050B900BF502080F31188BFF34F8FBFF3E0
:104A50006F8F00BF00BFFEE786B1002507E0715DE4
:104A600004F134004155705D00B902E06D1C102D59
:104A7000F5D300BF00214320015502E0002084F857
:104A80003400382F00D33727E762E7640020206521
:104A9000201D00F0FAFB04F1180000F0F6FB246181
:104AA000C7F13800A06164620020606584F8580096
:104AB0005A465146484600F081FB20600B9808B1E9
:104AC0000B980460BDE8F09F10B5002407E004EBEC
:104AD00084010F4A02EB810000F0CAFB641C382CF1
:104AE000F5D30C4800F0C4FB0B4800F0C1FB0B48A9
:104AF00000F0BEFB0A4800F0BBFB0A4800F0B8FB20
:104B000004480949086004480849086010BD0000CD
:104B1000E00400204009002054090020680900201A
:104B20007C0900209009002054000020580000203B
:104B300010B50146164800E0006803688B42FBD3BD
:104B40000246436813448B4204D143684C682344B3
:104B5000436001460A464B6813440468A34211D1DE
:104B60000C4C03682468A34208D04B68046864684E
:104B700023444B6003681B680B6005E0054B1B6812
:104B80000B6001E003680B60884200D0016010BD3B
:104B9000A4000020AC0000202DE9F04104460D46A1
:104BA00016461F464FF0000865602461B5420CD8D8
:104BB000F01BA169884202D34FF0010811E0211DCA
:104BC0000948006800F064FB0BE0BE4204D2BD421D
:104BD00002D34FF0010804E0211D0448006800F0F2
:104BE00057FB4046BDE8F081900000208C0000207B
:104BF00070B5054600F072FBA86B08B9012400E00F
:104C0000002400F095FB204670BD70B5054600F00D
:104C100065FBA86BE96B884201D1012400E0002408
:104C200000F086FB204670BDF8B505460F461A48D1
:104C30000068C068C468201D00F0EEFA94F82800EF
:104C400000F00400E8B1A06941192B463A4620461D
:104C5000FFF7A2FFD8B1002003462A460146009084
:104C6000204601F0C9FE064656B900BF502080F329
:104C70001188BFF34F8FBFF36F8F00BF00BFFEE7F8
:104C800005E094F8280020F0010084F82800204670
:104C9000216A8847F8BD00008C000020F0B587B07D
:104CA000A0E00398002811DA04AE56B900BF5020E6
:104CB00080F31188BFF34F8FBFF36F8F00BF00BF2A
:104CC000FEE7D6E90020B168904700BF03980028AE
:104CD000E6DB059C606908B9012000E0002010B9FE
:104CE000201D00F099FA02A800F0DEF805460398AE
:104CF0000A2875D2DFE800F0090507394163060884
:104D00003A4200BF00BF00BF00BF94F8280040F047
:104D1000010084F828000498A269811803462A46F5
:104D20002046FFF739FFF8B12046216A884794F8FA
:104D3000280000F00400B8B1002000900498A16998
:104D4000421800231946204601F056FE074657B97F
:104D500000BF502080F31188BFF34F8FBFF36F8FD8
:104D600000BF00BFFEE700BF3BE000BF94F8280093
:104D700020F0010084F8280033E000BF94F82800F8
:104D800040F0010084F828000498A061A06908B1EF
:104D9000012000E0002050B900BF502080F31188AE
:104DA000BFF34F8FBFF36F8F00BF00BFFEE7A06957
:104DB00041192B462A462046FFF7EEFE11E094F8F3
:104DC000280000F0020018B9204600F0CFFA05E0F4
:104DD00094F8280020F0010084F8280001E0FFE7A3
:104DE00000BF00BF002203A90448006801F038F9A1
:104DF00000287FF456AF07B0F0BD000094000020FB
:104E0000F8B505460C4600F001FD684600F04CF888
:104E10000646009820BB44B9B54206D801F02EFDE5
:104E200031462846FFF700FF1CE03CB10E48006801
:104E3000006808B9012000E000200446A91B2246B2
:104E40000A48006800F07CFB01F018FD50B94FF0F3
:104E5000805007490860BFF34F8FBFF36F8F01E0A9
:104E600001F00CFDF8BD000090000020940000202F
:104E700004ED00E00A490968096809B9012100E068
:104E8000002121B14FF0FF31064A116006E00449CC
:104E90000968C968C868034A416811607047000022
:104EA000540000208000002070B5044601F04EFB45
:104EB000054607480068854204D200F00BF801203F
:104EC000206001E00020206001480560284670BD98
:104ED0009C0000202DE9F84334E025480068C068B4
:104EE000056823480068C068C468201D00F094F974
:104EF0002046216A884794F8280000F0040008B38F
:104F0000A0694619AE4207D966602461211D184880
:104F1000006800F0BDF915E0002003462A4601466E
:104F20000090204601F068FD074657B900BF5020A9
:104F300080F31188BFF34F8FBFF36F8F00BF00BFA7
:104F4000FEE700BF0A480068006808B9012000E0D9
:104F500000200028C1D00648D0F80080054800682D
:104F6000034908600348C0F80080BDE8F8830000EA
:104F70008C000020900000200E480068401C08B9FA
:104F8000012000E0002050B900BF502080F31188BC
:104F9000BFF34F8FBFF36F8F00BF00BFFEE700BFAF
:104FA000502080F31188BFF34F8FBFF36F8F00BF86
:104FB00000BFFEE7C400002008B500BF6846FFF749
:104FC000A9FC044620460099FFF71AFFFFF766FE8A
:104FD000F4E770B5044600F081F994F9455010E00B
:104FE000606A08B9012000E0002038B904F124000B
:104FF00001F0F8FB18B100F003FB00E003E0681ECD
:1050000045B2002DECDC00BFFF2084F8450000F025
:105010008FF900F063F994F9445010E0206908B961
:10502000012000E0002048B904F1100001F0DAFB93
:1050300008B100F0E5FA681E45B200E001E0002D7D
:10504000ECDC00BFFF2084F8440000F071F970BD73
:105050002DE9F04104464FF0000800F0D7FB494825
:10506000006808B9FFF76AFC47480068204000283C
:1050700070D1D4B1083404F00700B0B104F00700D7
:10508000C0F10800044404F0070008B9012000E062
:10509000002050B900BF502080F31188BFF34F8F1C
:1050A000BFF36F8F00BF00BFFEE7002C52D0374820
:1050B000006884424ED8364E3046056801E02E46E0
:1050C0002D686868A04202D228680028F7D12D48D0
:1050D000006885423ED0306800F1080828683060DA
:1050E0006868001B102819D92F1907F0070008B9A4
:1050F000012000E0002050B900BF502080F311884B
:10510000BFF34F8FBFF36F8F00BF00BFFEE768682C
:10511000001B78606C603846FFF70AFD1B49686821
:105120000968081A19490860084600681949096899
:10513000884203D215480068164908601249686819
:105140000968084368600020286013480068401C14
:105150001149086001F092FB08F0070008B901202E
:1051600000E0002050B900BF502080F31188BFF349
:105170004F8FBFF36F8F00BF00BFFEE74046BDE813
:10518000F0810000AC000020C0000020B000002032
:10519000A4000020B4000020B800002006480068E9
:1051A00030B10549096801F15000096D491C0160E1
:1051B000014800687047000050000020001F4FF0B9
:1051C00080730360001F21F001030360001F054B83
:1051D000036014380260001F6FF002030360203880
:1051E00070470000794F00087CB505460C4609A0C1
:1051F000FEF7A6FD4AF60320ADF8000045EA0420BC
:10520000ADF80200BB20ADF8040006216846FDF7AA
:10521000B5FE7CBD310A000001460A69D1E90130C2
:105220009860D1E9010358605068884201D18868CC
:105230005060002008611068401E106010687047C0
:10524000034B0360034B0B60802313607047000027
:10525000BC0A0020180B0020034B0360034B0B60BB
:105260004FF4807313607047180D0020740D0020F8
:1052700000F1080141604FF0FF31816000F1080149
:10528000C160016100210160704700210161704728
:1052900010B502460B685C1C0CB9106907E002F1FE
:1052A000080000E04068446824689C42FAD94468D9
:1052B0004C604C68A160886041600A611468641C9D
:1052C000146010BD42684A6093688B6093685960AF
:1052D0009160086103685B1C0360704700BF502049
:1052E00080F31188BFF34F8FBFF36F8F00BF0E485D
:1052F0000068401C0C49086008460068012812D16B
:105300000A480068C0B208B9012000E0002050B986
:1053100000BF502080F31188BFF34F8FBFF36F8F12
:1053200000BF00BFFEE77047C400002004ED00E0AE
:105330000D48006850B900BF502080F31188BFF3BA
:105340004F8FBFF36F8F00BF00BFFEE706480068B6
:10535000401E054908600846006820B9002080F317
:10536000118800BF00BF7047C400002070B506461A
:105370003546002E44D0083D2C4622496068096815
:10538000084008B1012000E0002050B900BF5020C3
:1053900080F31188BFF34F8FBFF36F8F00BF00BF43
:1053A000FEE7206808B9012000E0002050B900BFE6
:1053B000502080F31188BFF34F8FBFF36F8F00BF72
:1053C00000BFFEE70F49606809680840C0B1206867
:1053D000B0B90C49606809688843606000F016FA4B
:1053E0000949606809680844074908602046FFF7D2
:1053F0009FFB06480068401C0449086001F03EFA23
:1054000070BD0000C0000020B0000020BC000020E3
:1054100000204FF0E02108618861064800684FF4E1
:105420007A71B0FBF1F0401E4FF0E0214861072097
:10543000086170474C00002070B5FAF733FF04464E
:10544000102C16D304F1E02090F8F05315480078A2
:10545000854201DB012000E0002050B900BF502050
:1054600080F31188BFF34F8FBFF36F8F00BF00BF72
:10547000FEE70D48006800F4E0600C4909688842C6
:1054800001D8012000E0002050B900BF502080F377
:105490001188BFF34F8FBFF36F8F00BF00BFFEE7D0
:1054A00070BD0000C80000200CED00E0CC00002022
:1054B000024600200BE0084B53F8303033B9064B5E
:1054C00043F8301003EBC0035A6002E0401C082888
:1054D000F1D300BF70470000A004002070B504465F
:1054E000254655B900BF502080F31188BFF34F8F78
:1054F000BFF36F8F00BF00BFFEE7284600F008F83B
:1055000095F8460010B92846FFF730FF70BD00003F
:10551000014600200EE0094A02EBC00252688A42AE
:1055200007D10022054B43F8302003EBC0035A603B
:1055300002E0401C0828EED300BF7047A004002002
:105540002DE9F04105460E4617462C46FFF7C6FEEC
:1055500094F94400401C10B9002084F8440094F9E8
:105560004500401C10B9002084F84500FFF7E0FE1C
:10557000A06B28B93A46314604F1240000F062F8E5
:105580002046FFF726FDBDE8F081000070B5044617
:105590000025D4B11248006808B9012000E00020BD
:1055A00050B900BF502080F31188BFF34F8FBFF375
:1055B0006F8F00BF00BFFEE700F028F900212046F2
:1055C000FFF72AF801F05AF905463DB94FF080502F
:1055D00004490860BFF34F8FBFF36F8F70BD0000A9
:1055E0008800002004ED00E00349096801600349D8
:1055F00009684160704700007800002064000020C6
:1056000001200149086070477400002070B504460D
:105610000D4654B900BF502080F31188BFF34F8F5F
:10562000BFF36F8F00BF00BFFEE705480168183168
:105630002046FFF72DFE01212846FEF7EDFF70BD45
:105640005000002070B505460E46144655B900BFFF
:10565000502080F31188BFF34F8FBFF36F8F00BFCF
:1056600000BFFEE70648016818312846FFF72AFE0A
:105670000CB14FF0FF3621463046FEF7CDFF70BD2E
:10568000500000202DE9F04706460F4634464FF003
:105690000109002E55D0206D50B900BF502080F375
:1056A0001188BFF34F8FBFF36F8F00BF00BFFEE7BE
:1056B000E06CB84201D23D4600E0E56CE06AA842E9
:1056C0003FD0206D01283CD11F480068844201D0A2
:1056D000012000E0002050B900BF502080F3118865
:1056E000BFF34F8FBFF36F8F00BF00BFFEE7D4F84B
:1056F0002C80E562A06900F0004010B9C5F13800C7
:10570000A06108EB8801114A02EB810160698842BF
:1057100001D1012000E0002098B1201DFFF77CFDA1
:105720000B49E06A0968884202D90949E06A0860C1
:10573000E16A01EB8101054A02EB8100211DFFF7BF
:10574000C1FDBDE8F087000050000020E00400200B
:105750006800002010B586B000200590049003AAD0
:1057600004A905A8FFF76CFD0022DDE9041013462B
:10577000CDE9002102901EA11F48039A00F078FE97
:105780001E4908600846006808B1012400E00024B2
:10579000012C02D101F0F4F80446012C15D100BF10
:1057A000502080F31188BFF34F8FBFF36F8F00BF7E
:1057B0004FF0FF30124908600120124908600020B4
:1057C0001149086000F072F810E0601C08B1012077
:1057D00000E0002050B900BF502080F31188BFF3D3
:1057E0004F8FBFF36F8F00BF00BFFEE706B010BD45
:1057F00049444C4500000000B949000884000020DD
:10580000800000206C000020640000200248006836
:10581000401C014908607047880000201E4800684D
:1058200018B101201D49086034E000201B490860C0
:105830001B4801680CE051B900BF502080F311886B
:10584000BFF34F8FBFF36F8F00BF00BFFEE7491E4E
:1058500001EB8100134A52F8200008B9012000E052
:1058600000200028E7D101EB81020E4B03EB820000
:1058700042685268426000F108024368934202D1D4
:105880004268526842604268D268074B1A60044816
:10589000016000BF704700008800002074000020F5
:1058A00068000020E0040020500000201CB5524891
:1058B00000685249884201D0012000E0002050B920
:1058C00000BF502080F31188BFF34F8FBFF36F8F5D
:1058D00000BF00BFFEE7484800684849491E8842AB
:1058E00001D0012000E0002050B900BF502080F31B
:1058F0001188BFF34F8FBFF36F8F00BF00BFFEE76C
:105900003F49084600780190FF200A46107008467B
:10591000007800909DF8000000F0F0009DF8002055
:10592000904201D1012000E0002050B900BF50207A
:1059300080F31188BFF34F8FBFF36F8F00BF00BF9D
:10594000FEE79DF8000000F050002E4A107007207E
:105950002D4A106009E02C480068401E2A4A106059
:105960009DF800004006000E00909DF8000000F039
:1059700080008028EFD024480068C0F10700042888
:1059800001D1012000E0002050B900BF502080F379
:105990001188BFF34F8FBFF36F8F00BF00BFFEE7CB
:1059A000194800680002184A10601046008800F488
:1059B000E0601060124A019810700F4820300068B3
:1059C00040F470000C49203108600846006840F03F
:1059D00070400860FFF71CFD00200C490860FAF7D2
:1059E00029FC0B48006840F0404009490860FAF77C
:1059F0000DFC00201CBD000000ED00E071C20F4155
:105A000000E400E0C8000020CC000020C40000201A
:105A100034EF00E010B500BF502080F31188BFF3D1
:105A20004F8FBFF36F8F00BF00F096FD18B14FF09E
:105A300080500449086000BF002080F3118800BF37
:105A400010BD000004ED00E070B505460E460DB136
:105A5000012000E0002050B900BF502080F31188E1
:105A6000BFF34F8FBFF36F8F00BF00BFFEE7AE42A3
:105A700001D8012000E0002050B900BF502080F381
:105A80001188BFF34F8FBFF36F8F00BF00BFFEE7DA
:105A900002220021284600F037F8044604B1A6632C
:105AA000204670BDF8B505460E4617460DB10120DB
:105AB00000E0002050B900BF502080F31188BFF3F0
:105AC0004F8FBFF36F8F00BF00BFFEE7AE4201D81C
:105AD000012000E0002050B900BF502080F3118861
